:020000040000FA
:10000000709A0020797A000069D301004D7A0000CF
:100010004D7A00004D7A00004D7A00004D7A0000C4
:100020000000000000000000000000002D73000030
:100030004D7A000000000000D57200004D7A0000EB
:10004000AD730000AD730000AD730000AD73000030
:10005000AD730000AD730000AD730000AD73000020
:10006000AD730000AD730000AD730000AD73000010
:10007000AD730000AD730000AD730000454F01008B
:10008000554F0100654F0100AD730000AD730000D6
:10009000AD730000AD730000AD730000AD730000E0
:1000A000AD730000AD730000AD730000AD730000D0
:1000B000AD730000AD730000AD730000AD730000C0
:1000C000AD730000AD730000AD730000AD730000B0
:1000D000AD730000AD730000AD730000AD730000A0
:1000E000AD730000AD730000AD730000AD73000090
:1000F000AD730000AD730000AD730000AD73000080
:10010000AD730000AD730000AD730000AD7300006F
:10011000AD730000AD730000AD730000AD7300005F
:10012000AD730000AD730000AD730000AD7300004F
:10013000AD730000AD730000AD730000AD7300003F
:10014000AD730000AD730000AD730000AD7300002F
:10015000AD73000081F0004102E000BF83F0004376
:1001600030B54FEA41044FEA430594EA050F08BF52
:1001700090EA020F1FBF54EA000C55EA020C7FEA16
:10018000645C7FEA655C00F0E2804FEA5454D4EB93
:100190005555B8BF6D420CDD2C4480EA020281EA5D
:1001A000030382EA000083EA010180EA020281EA95
:1001B0000303362D88BF30BD11F0004F4FEA0131E7
:1001C0004FF4801C4CEA113102D0404261EB4101F6
:1001D00013F0004F4FEA03334CEA133302D052427C
:1001E00063EB430394EA050F00F0A780A4F1010438
:1001F000D5F1200E0DDB02FA0EFC22FA05F2801872
:1002000041F1000103FA0EF2801843FA05F3594157
:100210000EE0A5F120050EF1200E012A03FA0EFCD6
:1002200028BF4CF0020C43FA05F3C01851EBE37100
:1002300001F0004507D54FF0000EDCF1000C7EEB1D
:1002400000006EEB0101B1F5801F1BD3B1F5001F5B
:100250000CD349085FEA30004FEA3C0C04F101047A
:100260004FEA445212F5800F80F09A80BCF1004FA3
:1002700008BF5FEA500C50F1000041EB045141EA25
:10028000050130BD5FEA4C0C404141EB0101013CEE
:1002900028BFB1F5801FE9D291F0000F04BF0146DD
:1002A0000020B1FA81F308BF2033A3F10B03B3F1AF
:1002B00020020CDA0C3208DD02F1140CC2F10C023F
:1002C00001FA0CF021FA02F10CE002F11402D8BF9D
:1002D000C2F1200C01FA02F120FA0CFCDCBF41EA69
:1002E0000C019040E41AA2BF01EB0451294330BD38
:1002F0006FEA04041F3C1CDA0C340EDC04F1140415
:10030000C4F1200220FA04F001FA02F340EA0300EB
:1003100021FA04F345EA030130BDC4F10C04C4F131
:10032000200220FA02F001FA04F340EA0300294611
:1003300030BD21FA04F0294630BD94F0000F83F45B
:10034000801306BF81F480110134013D4EE77FEA3E
:10035000645C18BF7FEA655C29D094EA050F08BF8A
:1003600090EA020F05D054EA000C04BF194610466B
:1003700030BD91EA030F1EBF0021002030BD5FEAAF
:10038000545C05D14000494128BF41F0004130BDD7
:1003900014F580043CBF01F5801130BD01F000452B
:1003A00045F0FE4141F470014FF0000030BD7FEA9E
:1003B000645C1ABF194610467FEA655C1CBF0B4699
:1003C000024650EA013406BF52EA033591EA030FB0
:1003D00041F4002130BD00BF90F0000F04BF0021A8
:1003E000704730B54FF4806404F132044FF00005DB
:1003F0004FF0000150E700BF90F0000F04BF002154
:10040000704730B54FF4806404F1320410F00045B9
:1004100048BF40424FF000013EE700BF42004FEAB4
:10042000E2014FEA31014FEA02701FBF12F07F4331
:1004300093F07F4F81F06051704732F07F4208BFE8
:10044000704793F07F4F04BF41F40021704730B5EF
:100450004FF4607401F0004521F000411CE700BF3B
:1004600050EA010208BF704730B54FF000050AE0BE
:1004700050EA010208BF704730B511F0004502D5BF
:10048000404261EB41014FF4806404F132045FEAC1
:10049000915C3FF4D8AE4FF003025FEADC0C18BF6A
:1004A00003325FEADC0C18BF033202EBDC02C2F15C
:1004B000200300FA03FC20FA02F001FA03FE40EAEE
:1004C0000E0021FA02F11444BDE600BF70B54FF0F2
:1004D000FF0C4CF4E06C1CEA11541DBF1CEA1355D0
:1004E00094EA0C0F95EA0C0F00F0DEF82C4481EA38
:1004F000030621EA4C5123EA4C5350EA013518BF58
:1005000052EA033541F4801143F4801338D0A0FB44
:1005100002CE4FF00005E1FB02E506F00042E0FBF1
:1005200003E54FF00006E1FB03569CF0000F18BFF7
:100530004EF0010EA4F1FF04B6F5007F64F540749F
:1005400004D25FEA4E0E6D4146EB060642EAC62132
:1005500041EA55514FEAC52040EA5E504FEACE2E9F
:10056000B4F1FD0C88BFBCF5E06F1ED8BEF1004FA2
:1005700008BF5FEA500E50F1000041EB045170BD1E
:1005800006F0004646EA010140EA020081EA030162
:10059000B4EB5C04C2BFD4EB0C0541EA045170BD5E
:1005A00041F480114FF0000E013C00F3AB8014F1D8
:1005B000360FDEBF002001F0004170BDC4F1000421
:1005C000203C35DA0C341BDC04F11404C4F12005A2
:1005D00000FA05F320FA04F001FA05F240EA0200FD
:1005E00001F0004221F0004110EBD37021FA04F633
:1005F00042EB06015EEA430E08BF20EAD37070BDED
:10060000C4F10C04C4F1200500FA04F320FA05F04B
:1006100001FA04F240EA020001F0004110EBD3704D
:1006200041F100015EEA430E08BF20EAD37070BDBD
:10063000C4F1200500FA05F24EEA020E20FA04F396
:1006400001FA05F243EA020321FA04F001F0004145
:1006500021FA04F220EA020000EBD3705EEA430EB6
:1006600008BF20EAD37070BD94F0000F0FD101F0E5
:100670000046400041EB010111F4801F08BF013C1E
:10068000F7D041EA060195F0000F18BF704703F05C
:100690000046520043EB030313F4801F08BF013DE3
:1006A000F7D043EA0603704794EA0C0F0CEA13559F
:1006B00018BF95EA0C0F0CD050EA410618BF52EA59
:1006C0004306D1D181EA030101F000414FF000005F
:1006D00070BD50EA410606BF1046194652EA43066D
:1006E00019D094EA0C0F02D150EA013613D195EAE1
:1006F0000C0F05D152EA03361CBF104619460AD129
:1007000081EA030101F0004141F0FE4141F4700132
:100710004FF0000070BD41F0FE4141F4780170BD22
:1007200070B54FF0FF0C4CF4E06C1CEA11541DBF87
:100730001CEA135594EA0C0F95EA0C0F00F0A7F889
:10074000A4EB050481EA030E52EA03354FEA0131B6
:1007500000F088804FEA03334FF0805545EA1313C9
:1007600043EA12634FEA022245EA111545EA106591
:100770004FEA00260EF000419D4208BF964244F128
:10078000FD0404F5407402D25B084FEA3202B61A47
:1007900065EB03055B084FEA32024FF480104FF41B
:1007A000002CB6EB020E75EB030E22BFB61A75468F
:1007B00040EA0C005B084FEA3202B6EB020E75EB22
:1007C000030E22BFB61A754640EA5C005B084FEA8A
:1007D0003202B6EB020E75EB030E22BFB61A754657
:1007E00040EA9C005B084FEA3202B6EB020E75EB62
:1007F000030E22BFB61A754640EADC0055EA060E23
:1008000018D04FEA051545EA16754FEA06164FEA65
:10081000C30343EA52734FEAC2025FEA1C1CC0D111
:1008200011F4801F0BD141EA00014FF000004FF09E
:10083000004CB6E711F4801F04BF01430020B4F15F
:10084000FD0C88BFBCF5E06F3FF6AFAEB5EB030C17
:1008500004BFB6EB020C5FEA500C50F1000041EB14
:10086000045170BD0EF0004E4EEA113114EB5C04E1
:10087000C2BFD4EB0C0541EA045170BD41F48011B4
:100880004FF0000E013C90E645EA060E8DE60CEABC
:10089000135594EA0C0F08BF95EA0C0F3FF43BAFD9
:1008A00094EA0C0F0AD150EA01347FF434AF95EA90
:1008B0000C0F7FF425AF104619462CE795EA0C0F74
:1008C00006D152EA03353FF4FDAE1046194622E741
:1008D00050EA410618BF52EA43067FF4C5AE50EA1B
:1008E00041047FF40DAF52EA43057FF4EBAE12E70B
:1008F0004A0011D212F5001211D20DD56FF478739F
:10090000B3EB62520ED44FEAC12343F0004343EAF3
:10091000505323FA02F070474FF00000704750EA3E
:10092000013002D14FF0FF3070474FF000007047A8
:1009300053B94AB9002908BF00281CBF4FF0FF3146
:100940004FF0FF3000F00CB8ADF1080C6DE904CEAB
:1009500000F008F8DDF804E0DDE9022304B0704798
:10096000704700BF2DE9F04F07468C460846099EA8
:1009700015463C461946002B40F0C5808242B2FA2B
:1009800082F746D94FB1C7F1200E00FA07F3BD40F8
:1009900024FA0EFEBC404EEA030C4FEA15481FFA3B
:1009A00085FE220CBCFBF8F908FB19C309FB0EFA03
:1009B00042EA03439A4528D9EB1809F1FF3004D2E3
:1009C0009A4502D9A9F102002B44A3EB0A03A4B271
:1009D000B3FBF8F208FB123302FB0EFE44EA0344B9
:1009E000A64514D92C1902F1FF3303D2A64501D92B
:1009F000931E2C44A4EB0E0443EA00401EB1FC40BD
:100A0000002334607360BDE8F08F4846DDE713468D
:100A1000F0E702B9FFDE87BB831A01214FEA154ECA
:100A2000AAB2200CB3FBFEFC0EFB1C330CFB02F83D
:100A300040EA0343984562D9EB180CF1FF3004D229
:100A4000984502D9ACF102002B44A3EB0803A4B2F1
:100A5000B3FBFEFC0EFB1C330CFB02F244EA034426
:100A6000A2424ED92C190CF1FF3304D2A24202D972
:100A7000ACF102032C44A41ABEE7C7F1200CBD4020
:100A800000FA07F320FA0CF84FEA154E24FA0CFC92
:100A9000BC404CEA0302ABB2B8FBFEFC110C0EFBEF
:100AA0001C800CFB03F941EA0040814523D928183A
:100AB0000CF1FF3104D2814502D9ACF10201284486
:100AC000A0EB090092B2B0FBFEFC0EFB1C000CFB7D
:100AD00003F842EA004398450FD9EB180CF1FF32B6
:100AE00004D2984502D9ACF102022B44A3EB0803CF
:100AF00042EA014192E76146E2E76246F6E7604674
:100B0000A3E76346B7E7834205D90EB1C6E9007093
:100B10000021084677E7B3FA83F181B9834201D314
:100B2000BA420AD8BC1A60EB030301209C46002E8F
:100B300067D0C6E9004C002165E70846F7E7C1F138
:100B4000200C8B4002FA01F522FA0CF420FA0CFB7F
:100B500027FA0CF28F401C4300FA01F34FEA1449C4
:100B600013431FFA84FE1A0CBBFBF9F809FB18BBF0
:100B700008FB0EFA42EA0B4292453ED9A21808F150
:100B8000FF3004D2924502D9A8F102002244A2EB20
:100B90000A029BB2B2FBF9F809FB182208FB0EFE11
:100BA00043EA024296452AD9A21808F1FF3304D23B
:100BB000964502D9A8F10203224443EA0040A2EB81
:100BC0000E02A0FB05939A42CE46984602D306D168
:100BD0004F4504D20138B9EB050E63EB040886B12A
:100BE000B7EB0E0362EB080707FA0CFCCB40CF40D3
:100BF0004CEA0303C6E900379DE74046C7E7434692
:100C0000DBE73146FFE600007FB5064B4FF482512B
:100C100005930223044804AA04931AF0D7FC07B0F2
:100C20005DF804FB48150200600A0200F8B500AF49
:100C30008AB06C461D460D4B084616466361FFF7A9
:100C4000DBFB00220A4BFFF741FCFFF751FE224677
:100C50000523C4E9060625624FF42351054842F8EE
:100C6000103F1AF0B3FCBD46F8BD00BF701502007E
:100C70000000F43F600A0200B0B500AF8AB06A46D7
:100C8000CB880D88536206234C8888880649C2E9C0
:100C90000740C2E9051505484FF4435142F8103F9B
:100CA0001AF094FCBD46B0BDB1150200600A020006
:100CB00070B503788AB004460E4607AD032B20D8E2
:100CC000DFE803F002191B1D114928461CF0F9FB4F
:100CD00063781E210493A37830460393E3780D4A8A
:100CE000029323790595019363790093A3791AF010
:100CF00005FE0AB070BD0849E7E70849E5E708497D
:100D0000E3E70A212846074A1AF0F8FDE0E700BFAA
:100D1000F315020015160200FA1502000116020072
:100D20000B160200E94C0200F0B506460C46002105
:100D300093B000AF1546381D1A2239601CF026FC0E
:100D400030461CF041FF3946FFF7B2FF6E4688B0CF
:100D50006A46114B4FF4D651C2E905370223137787
:100D60000E4B0F4842F8103F1AF030FC0D4BB546C1
:100D70001B6813B12946204698472822002107F115
:100D800020001CF003FC084B07F1200118680AF052
:100D900079FE4C37BD46F0BD381602000300000155
:100DA000600A02004C2D002058350020B0B588B0F4
:100DB00000AF0C461CF008FF3946FFF779FF6D467F
:100DC0008AB06A46134BD461C2E90537022382F820
:100DD0002030114B114C12484FF40B5142F8103F88
:100DE0001AF0F4FB2068AD4618B10AF0D7FA0023D8
:100DF00023600C4C206830B10AF0D0FA00230120A7
:100E000023601EF003FB0022074B203783F80A28DB
:100E1000BD46B0BD4F16020004000001482D002061
:100E2000600A0200583500204C2D0020F0B58FB02C
:100E3000054600AF89B16C4688B06A46284B294800
:100E4000C2E9053103234FF4C25142F8103F1AF0B2
:100E5000BDFBA5463C37BD46F0BD07F118061CF0AA
:100E6000B3FE3146FFF724FF6C4688B06A461E4B3E
:100E70004FF4D651C2E9053602261C4B16771948A5
:100E800042F8103F1AF0A2FB2846A5461CF038FE97
:100E9000174D286001201EF0B6FA164928681CF08C
:100EA000CDFE90B188B06A46134B4FF4C251C2E9EF
:100EB000053003230B4842F8103F1AF087FBA54684
:100EC0000E4928681CF082FEC4E70D4B4FF4865192
:100ED000044807F11002C7E904631AF077FBEFE753
:100EE0006C160200600A020087160200030000016F
:100EF00058350020E404002094160200EC04002081
:100F0000C116020080B50B7800AF042B96BF0F4AC4
:100F10000F4852F823004B788AB0042B96BF0B4A37
:100F20000B4B52F823306A46D36140F20233094931
:100F30001384094BC2E905104FF41351074842F8D6
:100F4000103F1AF043FBBD4680BD00BF980B020066
:100F5000E8160200F016020004000002600A020017
:100F6000074A08B50346106840B18AB2194605F031
:100F700019FE18B1BDE80840FFF746BE08BD00BF26
:100F80005835002030B5B1F5006F05460C4687B0E6
:100F900009D9084B4FF4825105930223064804AA4D
:100FA00004931AF013FB2146284607B0BDE83040F1
:100FB000FFF7D6BF16170200600A0200B0B5264B35
:100FC00088B002AF7B6102230446244D4FF4865162
:100FD000234807F110023B611AF0F8FA40F60C02C0
:100FE000002128461CF0D2FA1E480AF0B9FC04B1D0
:100FF0002C60002008F0C4FE08B11AF0EAFA1BF0D9
:1010000061FC194805F0C2FD88B16C46174B88B0E9
:1010100002AAC2E9053003234FF4C251104842F836
:10102000103F1AF0D3FAA5461837BD46B0BD3C466E
:101030000F4D0FCD0FC42B680222236001233846C9
:1010400000930C490C4B09F0F3FB0028ECD06C46E4
:1010500088B00A4B02AADCE7701702004C2D002072
:10106000600A0200600100207C0100208717020056
:10107000300B0200AC0B0200BC0B0200BB170200DD
:10108000F0B51A4B1A4C87B01A4A63601A4B00AF7E
:10109000C7E900234FF020614FF07F430025C7E9E7
:1010A00002134FF002130126C7E904352A462B46E6
:1010B0003946201D267213F07BFB104B984212D04C
:1010C0006C4688B06A460E4BC2E90530032342F8ED
:1010D000103F4FF4C2512B460A4803F0A9FBA54626
:1010E0001C37BD46F0BD2670FAE700BF00A00050D7
:1010F0005C35002008090A0B0007FF000000AD0B5B
:1011000036180200680A0200014B1878704700BFC9
:101110005C350020B0B584B000AFC7E90001C7E975
:101120000223394600220E4813F0E8FC0D4B04461A
:10113000984213D06D4688B06A460B4BC2E9053021
:10114000032342F8103F00234FF4C251074803F035
:101150006FFBAD4620461037BD46B0BD0024F9E711
:10116000603500200000AD0B58180200680A02002C
:101170000246002935D0087830211A4BB2F5A67FF7
:1011800001FB0033D96A01F10101D9621DD009D8F0
:10119000B2F5A27F11D0B2F5A47F12D0B2F5A07F34
:1011A00007D07047B2F5A87F13D0B2F5AA7F14D04C
:1011B00070475B69ABB1002118479B698BB1012176
:1011C000FAE7DB696BB10221F6E71B6A4BB1032139
:1011D000F2E75B6A2BB10421EEE79B6A0BB10521B4
:1011E000EAE77047683500202DE9F04F85B0002010
:1011F00000AF0FF0F3FE002852D135481AF071FB12
:1012000000220F20114605F0F9FF002210201146A0
:1012100005F0F4FF00221120114605F0EFFF2D4CE0
:101220002D4B002523604FF4C063A3802B4BDFF8C8
:10123000B090236340F20163DFF8A880A386012207
:10124000072300264FF0030A227204F11002E26025
:1012500020464A4604F108016672E37284F80AA047
:10126000257413F03BFD40450ED0EB4688B06A462E
:101270001D4BC2E9053542F810AF4FF4C251334659
:101280001A4803F0D5FADD46204613F0E1FD20466A
:1012900013F002FE3034CDB11437BD46BDE8F08FF7
:1012A00000237B60FB6001233946BB6001F056FBE5
:1012B000011E03DA0E481AF014FBA1E7BB689B0776
:1012C000FCD1F96800299BD00A48F4E70125B6E76C
:1012D000851802006835002000F000500000015021
:1012E000711100000000AD0BE0180200A00A02001E
:1012F000A6180200C0180200012808B508D8064B3D
:1013000000EB400003EB001013F07CFD002008BD53
:101310004FF0FF30FBE700BF68350020012810B513
:101320000CD8084C00EB400004EB0014204613F0EE
:101330008FFD204613F0B0FD002010BD4FF0FF30B0
:10134000FBE700BF68350020034B00EB40000521A0
:1013500003EB001013F0C0BD6835002001282DE913
:10136000F7430546894614461F4640D8FFF7ECFF71
:1013700005EB45051F4B2A0103EB05159B588046DD
:10138000D3F81065230FF6B2C6F12001A6F12002B2
:1013900003FA01F123FA02F2F3404FEA041424FAAB
:1013A00006F444EA010444EA02040BD0124913484B
:1013B00040F20F33124A1AF05CFD40F20F31104830
:1013C0001AF050FD012308EB04023FB149462846BC
:1013D0001EF02DF9002003B0BDE8F0830093094B07
:1013E0004946284653F829301EF037F9F2E74FF006
:1013F000FF30F0E7683500202B1902004119020088
:10140000F7180200C40B020001289FBF0C2303FB46
:101410000011044800EB81019ABF4A6100204FF09F
:10142000FF30704768350020F0B58BB00678044671
:10143000731E082B0D4600AF17D820220021381D3F
:101440001CF0A4F82A462146381D3E607D621CF03F
:1014500092F80022002339460D4816F065FB0D482E
:1014600016F0DCFF2C37BD46F0BD6C4688B06A46EE
:1014700043780949D3610423C2E9051642F8103FB5
:1014800000234FF40151054803F0D2F9A546E9E7DE
:10149000C4070020F8070020661902007009020046
:1014A000F0B5FDB0214800AFFFF788FD204D214C7D
:1014B0004FF0FF334FF0FF32284607F1F80116F0E6
:1014C000DBFB97F8F830012B1FD1F3220021381DE8
:1014D0001CF05CF8B7F8FA30B7F8FC20A7F8053034
:1014E000237807F1FE01F81D3B711CF044F8B7F8B2
:1014F000FC10381D0331FFF745FD2378FF2B0EBF8D
:1015000000230133DBB22370D2E76E4688B06A460F
:101510000949C2E90513032342F8103F00234FF4A1
:10152000C451064803F084F9B546C1E7E9B50100A6
:10153000900700201251002090190200700902004B
:10154000044A1078FF280EBF0023431CDBB213703F
:10155000704700BF1251002010B51C481AF0C1F9A5
:101560001B4B1C4A1C491D481AF0BBF900210120E5
:1015700012F094F911F058FE044628B1BDE810406D
:10158000014617481AF0ADB9FFF72EFEFFF778FDB8
:101590000121204611F074FE00214FF4203018F094
:1015A000E7FC00F0BBFA014638B14FF4C03000212F
:1015B00018F0DEFC204602F0E1FA11F061FE002195
:1015C0004FF4803018F0D4FCF9E700BFC7190200CF
:1015D000E5190200EE190200FA190200021A0200CF
:1015E000311A020038B5124D95F87030D3B100F0C1
:1015F00021F9B8B10024B5F872302341DB0704D5D6
:10160000E0B21AF09EF800F0D1F90134102CF2D1BA
:101610000024084D55F8040B28B100F0C7F9013437
:10162000102CF7D138BD012CF9DC1AF08EF8F4E754
:10163000D00B0020F80B00202DE9F04391B000AF53
:1016400000F090F9494C4A4D04F174060022002341
:10165000284607F1180116F00FFB18B14437BD46B4
:10166000BDE8F083BB695A1E072A6ED8DFE802F096
:10167000196D6D046D6D4059E94688B06A46B7F83A
:101680001D803C4BC2E90538032342F8103F00237C
:101690004FF4C651384803F0CBF8CD46A4F8728019
:1016A000D4E7E94688B06A464FF47A78D7F81D3017
:1016B0003249B8FBF3F8C2E905130423C2F81C80D1
:1016C00042F8103F00234FF403512B4803F0B0F8C9
:1016D0000020CD46C4F80080FFF720FE00232268DA
:1016E00019461846FFF73AFE0020FFF705FEADE762
:1016F00000F0A0F828B119F081FF0146204819F048
:10170000FBFF204B7B6102233B6100234FF486519A
:10171000194807F1100203F08BF8012384F87030A8
:1017200094E7194B7B6102233B6100234FF4865100
:10173000114807F1100203F07BF80023DC2130464A
:1017400084F8703019F0D8FF80E7E84688B06A4620
:101750000E49C2E90513032342F8103F00234FF45A
:10176000C251054803F064F8C5466FE7D00B00206E
:10177000C4070020551A0200200A02007C1A020049
:10178000440C0020C01A0200D51A0200EB1A020015
:1017900070B5194C86B023791BB30021174A08464F
:1017A000FFF732FE0023226819461846FFF7D6FDE0
:1017B0000020FFF7A1FD124C124D134E4FF0FF32E7
:1017C0004FF0FF33204616F06DFE80B102230595E1
:1017D000049300234FF48251304604AA03F028F802
:1017E000ECE700214FF4004018F0C2FBD3E7FFF70D
:1017F00023FF00F037F8E1E7D00B0020F1B501003E
:10180000F8070020061B0200200A02007FB5074BE4
:1018100005930223049300234FF48251044804AA41
:1018200003F006F807B05DF804FB00BF3C1B0200A4
:10183000280A0200074BB3F872200023184642FA28
:1018400003F1C90703F1010348BF0130102BF6D1A2
:10185000704700BFD00B0020014819F03ABF00BF0D
:10186000440C00202DE9F04FC1B0FFF7E3FF044620
:1018700038B3FFF7F1FF431C054622D0F020630088
:1018800090FBF3F0F3224443002103A81BF07EFEFB
:1018900040F6040340F20248DFF884904FEA440B1C
:1018A00003FB0593B3F8747808FB05F34FF00008C9
:1018B000BFB201934745BA4606DC2946194819F0DC
:1018C000FBFE41B0BDE8F08F0021F32203A81BF01E
:1018D0005DFEB9F87220A7EB0806ADF80D20FFF702
:1018E0002FFE019BA64203F13A0141448DF80C0002
:1018F00009EB41010DDD5A460DF10F001BF03BFED7
:101900005E4608EB040AF11C03A8FFF73BFBD04638
:10191000D0E7760032460DF10F001BF02CFEF2E707
:10192000D00B0020440C002038B501460A4819F0BD
:1019300081FE431C044603D1BDE83840FFF766BF73
:10194000064D95F884305BB2834204D0044816F00B
:1019500065FD85F8844038BD440C0020D01B002074
:10196000F807002000231946034A0133102B42F8E0
:10197000041BFAD1704700BFF80B0020024A13681D
:1019800001331360704700BFCC35002010B4064C03
:10199000030A63710223A07104F10902601D194654
:1019A00010BCFFF7B7BB00BFD00B00202DE9F04201
:1019B000524E1FFA80F93368054600AF013348469E
:1019C0003360FFF7E3FF90B16C4688B06A464C4B3A
:1019D000C2E90535032342F8103F00234FF4C251FA
:1019E000484802F025FFA546BD46BDE8F082464BBB
:1019F000D3E90401D3E9062CC3E906014348C3E94E
:101A0000082C017899B34FF0FF344FF0FF35C3E94C
:101A1000044501390170B9F5AA4F04BF09210170CD
:101A2000BCF1FF3F08BFB2F1FF3FDDD0B3F80910B2
:101A300002F4404049BAB0F5004F8CB295B248D09C
:101A400018D8A8B3B0F5804FCED06E4688B06A469D
:101A50002F4BD461C2E90535042342F8103F00231F
:101A60004FF40351274802F0E3FEB546BCE7C3E953
:101A70000451D0E7B0F5404FE7D1B5F57F4FB3D172
:101A8000022CB1D033686E468AB06A46C2E9074379
:101A900005232049C2E9051542F8103F00234FF401
:101AA0002251184802F0C4FEB546FFF767FF9BE7D6
:101AB000C2F3042202F6541003EB4000B3F8723074
:101AC000818043FA02F2D3078ED52046FFF72CFF20
:101AD0008AE72146284619F029FE0346002883D1CB
:101AE00031686E468AB06A46C2E9074105210A4854
:101AF000C2E9050542F8101FD1E700BFC835002034
:101B0000781B0200300A0200D00B00201351002085
:101B1000011C02009B1B0200C71B020070B586B0AF
:101B2000FFF7F2FA08B9FFF7ABFA4E4D41F2D022B7
:101B3000002128461BF02AFD4FF47A732B60002306
:101B40004FF0FF32A5F872304FF0FF33DC2105F182
:101B50007400C5E90423C5E90623C5E9082319F083
:101B6000CBFD4FF47F40FFF721FF4FF47F40FFF79D
:101B70001DFF48F2DE00FFF719FF48F22010FFF7C3
:101B800015FF48F22820FFF711FF48F20230FFF757
:101B90000DFF48F21A40FFF709FF4FF40540FFF729
:101BA00005FF4FF40640FFF701FF4FF40740FFF732
:101BB000FDFE48F61E00FFF7F9FE48F60510FFF798
:101BC000F5FE48F62B20FFF7F1FE48F62B20FFF735
:101BD000EDFE48F60630FFF7E9FE48F61040FFF745
:101BE000E5FE48F67C50FFF7E1FE48F6FF60FFF7A0
:101BF000DDFE48F6FF70FFF7D9FE49F2FF00FFF760
:101C0000D5FE49F2FF10FFF7D1FE4FF4AA40FFF7CF
:101C1000CDFE0C244FF47F40FFF7C8FE013CF9D104
:101C20000126114B2E711B68002B4FF002030CDDB7
:101C30000E4ACDE904320E4823464FF4845104AADB
:101C400002F0F6FD304606B070BD0A4ACDE9043216
:101C5000074823464FF4865104AA02F0E9FD2046C6
:101C6000F1E700BFD00B0020CC350020221C020081
:101C7000300A0200491C02002DE9F04F8DB01F46CA
:101C8000029202F00403C2F3C2020193531C8207C2
:101C900005460E46DDF85890049340F05882041D26
:101CA000002840F0578201F00706341DC6F10806EF
:101CB0004FF0000A4FF00408524651467B1ECDF803
:101CC0000CA0CDF8008005B127600498002807DC3F
:101CD000CB488742C0F04881CA48874280F044819F
:101CE000029810F0020E00F064814FF0010C601BAE
:101CF000BEF1000F00F03E81B0F5007FC0F03A81E8
:101D0000C1494FF4F873C14AC1481AF0B2F8C1484A
:101D10001AF0AFF84FF4F871BC481AF0A3F86FF05E
:101D20001500FBE041B9252840F0478101214FF023
:101D30000408CDF8008040E12B2825D81F2801D8C1
:101D400000213AE1A0F1200CBCF10B0FF8D80FF202
:101D5000080E5EF82CF000BFBB1F0000411D000004
:101D6000411D0000BB1F0000411D0000411D00007F
:101D7000411D0000411D0000411D0000411D0000EB
:101D8000371F0000BB1F0000A0F12D0C5FFA8CFE76
:101D9000BEF14D0FD4D8BCF14D0FD1D80FF2040EC7
:101DA0005EF82CF0BB1F0000BB1F0000411D0000AF
:101DB000BB1F0000BB1F0000BB1F0000BB1F0000BB
:101DC000BB1F0000BB1F0000BB1F0000BB1F0000AB
:101DD000BB1F0000BB1F0000411D0000411D000093
:101DE000411D0000411D0000411D0000411D00007B
:101DF000411D0000FB1E0000411D0000411D0000B0
:101E0000411D0000FB1E0000FB1E0000FB1E000029
:101E1000411D0000411D0000411D0000411D00004A
:101E2000BB1F0000411D0000411D0000411D0000BE
:101E3000411D0000411D0000411D0000411D00002A
:101E4000411D0000411D0000411D0000411D00001A
:101E5000DD1E0000411D0000411D0000411D00006D
:101E6000411D0000411D0000411D0000411D0000FA
:101E7000411D0000FB1E0000411D0000DD1E000092
:101E8000DD1E0000FB1E0000FB1E0000FB1E00000C
:101E9000BB1F0000DD1E00002B1F0000411D0000C5
:101EA000BB1F0000411D0000311F0000DD1E0000AF
:101EB000311F0000411D0000411D0000311F0000C6
:101EC0002F1D0000DD1E0000411D0000411D00000F
:101ED000DD1E0000411D00002F1D000013F8011C35
:101EE0006C2927D113F8021C6C294FF0000138D05F
:101EF0004FF00408CDF800801DE009F1070929F032
:101F00000709073424F00704F9E802015DB1DDF8A0
:101F100014E0A644B64504D96FF01B000DB0BDE82F
:101F2000F08FC4E90001002108344FF0080800E7F1
:101F30000021DDE70021013C4444C8F1000C04EA23
:101F40000C0435B1DDF800C0ACEB050CA444B4457D
:101F5000E2D8732870D1049859F8047B01380490B2
:101F6000B1E64FF00808C5E702984FF0000C00F00A
:101F7000020EBCE60F2A0CD9234940F2F513234A7E
:101F8000234819F076FF244819F073FF40F2F51149
:101F9000C2E675B30DF1300EC0F387009644BCF174
:101FA000000F20D060F07F000EF8100C0AF1010A3B
:101FB0000132C5F108000434059013F8010F002820
:101FC0007FF4B0AE611BB1F5806F5FD30E4940F274
:101FD0003D230E4A0E4819F04CFF104819F049FFF6
:101FE00040F23D2198E60EF8100C03980130039062
:101FF000DEE7BCF1000F01D1019888B10136D7E7C7
:1020000000050200F477020083570200741C0200EE
:1020100041190200A21C0200C31C0200F21C0200B3
:102020003846CDE9063205911BF067FADDE9063244
:10203000023605990644BBE70098042808D109F147
:10204000040C15B1D9F800002060E1460434B4E76F
:10205000009808280CD109F1070020F0070000F1D2
:1020600008091DB1D0E900BCC4E900BC0834A4E7EC
:1020700040F23123394A3A493A4819F0FAFE0099B8
:10208000394819F0F6FE40F2312145E61DB9A6F1B6
:102090000804601842E7019B8908286029709DF8B0
:1020A0000C10A3B16870E97085F802A0BAF1000FB6
:1020B00006D04FF0000C08A8C5F1010E62450AD108
:1020C0000DF1200808EB0209C5F1010B39E0019B75
:1020D0006970EB70E8E710F8011B0B0608D504EBFC
:1020E0000E08B04501F07F013FF616AF04F8011B62
:1020F0000CF1010CE2E7BAF1000F03D098F90020CF
:10210000002A1CDB019B03BB98F8002055F82270C5
:1021100045F8223038461BF0F0F9421C04EB0B0165
:102120001144B1423FF6F8AE98F80010009204F85E
:10213000011B204639461BF01EFA009A144408F190
:102140000108C145D7D1601BE8E60022E6E76FF041
:102150000D00E3E607293FF6ABADDDE6741C020097
:102160008357020041190200DD1C02002DE9F04FE7
:102170008BB00F4614460646DDF850B00493002895
:1021800040F05981AE49AF4840F2D623AE4A19F02B
:1021900070FE40F2D621AC4819F064FEB7B1B578B4
:1021A00005958DBBAA46F378019313B11BF0020F7E
:1021B0002DD1BAF1000F2AD124B13A46314620463A
:1021C0001BF0D9F938460BB0BDE8F08F9F499D4808
:1021D000C2239D4A19F04DFEC2219B4819F042FED0
:1021E0004FF0000A3078B57896F8019005EB80053D
:1021F0003544D145D3D9013528461BF07EF901304D
:1022000005440AF1010AF4E70BF0010ACBE796F85E
:1022100000904FEA8903039306EB8909002C5BD1F8
:10222000BAF1000F32D04D444D451DD1A9464D465F
:10223000DDF804A0DFF818C286490BF00508CA448F
:102240000BF00202AA45BDD015F8010B56F820008C
:10225000604524D3884222D21BF0010F39D1B8F156
:10226000000FEFD1013FEDE719F8013B56F82300CD
:102270001BF043F9159B013033B1169B9C423EBFC6
:10228000159B23F8140001340744CDE72DB11BF052
:102290000404CCD05446A944C9E72C46C7E7002A19
:1022A000D0D04FF0000901921BF027F9159BDFF801
:1022B000A0C1019A6749013033B1169B9C423EBFD1
:1022C000159B23F8140001340744B9F1000FB9D06D
:1022D000C5E74FF00109E6E731462046039A1BF0B7
:1022E0004AF9039BE3180293BAF1000F0AD049465A
:1022F0002A4606A81BF03FF90023A944A370DDF885
:1023000008800DE0BDB11BF0040F14D02A464946E9
:1023100002981BF030F9029BA94403EB05085546CF
:10232000019B0BF0020E0BF001004A4603EB090C77
:102330000BF0040B25E00025A570E0E712F8013B47
:10234000DFF80CA156F82310514503D3DFF804A1A0
:10235000514505D3BEF1000F03D108F8013B10E051
:1023600038B10DF1280A691C554405F8103CCDB26E
:1023700007E0BBF1000F04D008F8013BA37801335C
:10238000A3709445DAD16378019A2B446370029B61
:102390004046A8EB030BA378ABEB030B059B84F83B
:1023A00003B01344FF1A039BFF1A019B3A4609EB43
:1023B0000301B8441BF0DFF8A8EB0400002D3FF444
:1023C00002AF049B1C1AA54202D36FF01B00FAE671
:1023D0004FF0000906AB13F80930159A56F8231090
:1023E000C2B132F81970C24604F1FF3B0AF8013B52
:1023F00097B13A4650461BF0BEF809F101094D4528
:10240000ABEB07040AEB0708E4DC049B1F44A7EBD3
:102410000B00D8E6159FE6E7012301399C42D4D092
:1024200011F8012F581C08F8032012B91F1EE4DA16
:10243000CBE70346F2E700297FF4B1AED0E600BF58
:10244000091D020041190200741C02000C1D02004B
:1024500000050200F477020030B50A4C0A449142AC
:1024600000D130BD11F8013B58400309E35C83EA19
:102470000013DDB2C3F30313E05C80EA0510C0B2C1
:10248000EDE700BF241D0200436870B503F00303AD
:10249000022B04460E46816010D0032B04D0012B82
:1024A0000FD10025284601E0056800200023636065
:1024B00010B1314618F01AFE284670BD002500689C
:1024C000F4E74523054A0649064819F0D2FC4521A0
:1024D000024819F0C7FC0025E7E700BF341D0200E1
:1024E0008357020041190200014B1860704700BF7A
:1024F0008801002030B5002585B0CDE901010446F2
:1025000001A90548039500F019FDDDE90230984264
:10251000B8BF255405B030BDB9B801002DE9F74F5B
:10252000B0F81C90044619F0080F009222D001293F
:102530000CBF49F0100949F02009A0F81C90143490
:10254000204615F09BFA68B9B9239B4A9B499C48E1
:1025500019F08FFC21469B4819F08BFCB921964855
:1025600019F080FC009B83F31188BFF36F8F03B0D9
:10257000BDE8F08F944FDFF8488209F0070902297F
:1025800006D1204619F0E1F90028D8D0012864D1FD
:10259000D4F818B0A38BBBF1000F19DA0026256818
:1025A00023F00703C4E9006643F00103A383A38B70
:1025B00003F007024A45019203D0A268002A40F0C6
:1025C000138115B9002E00F059814FF0000A0DE17A
:1025D00003F00702511F012920D8002123F007032F
:1025E000062A25689BB2C4E900110AD13DB12946EB
:1025F000E28B0968013292B20029FAD1E28343F0FA
:1026000002032046A38319F0A0F906460028CED085
:10261000A38B43F02003A3830026C8E7042A0DD12F
:1026200023F007039AB22046A28319F08EF90546DB
:1026300088B142F020020025A283EDE740F21B138F
:102640003A464046614919F014FC40F21B113846E5
:1026500019F008FC00252E46A9E7032834D1B9F16A
:10266000000F0BD040465A494FF4AB733A4619F06D
:1026700000FC4FF4AB71384619F0F4FB23685BB9EA
:102680004046544940F257133A4619F0F2FB40F2E3
:102690005711384619F0E6FB23691E685EB94046BB
:1026A0004D494FF4AD733A4619F0E3FB4FF4AD7169
:1026B000384619F0D7FBA38B23F0070343F006033A
:1026C0000025A383AB4672E7042831D1B9F1020F8C
:1026D0000BD04046414940F25D133A4619F0C9FB20
:1026E00040F25D11384619F0BDFBE38B5BB140460B
:1026F0003B494FF4AF733A4619F0BBFB4FF4AF714F
:10270000384619F0AFFB23695E685EB9404632492E
:1027100040F261133A4619F0ACFB40F261113846C1
:1027200019F0A0FBA38B23F0070343F00403C7E7D2
:10273000052831D1B9F1010F0BD0404629494FF49A
:10274000B2733A4619F095FB4FF4B271384619F05E
:1027500089FB23685BB940461E4940F265133A463F
:1027600019F087FB40F26511384619F07BFB2369AD
:102770009E685EB9404618494FF4B4733A4619F062
:1027800078FB4FF4B471384619F06CFBA38B23F03F
:10279000070343F0050393E7002540F26B133A4625
:1027A00040460A4919F065FB40F26B11384619F0B2
:1027B00059FB2E4686E700BFFA1D0200271E0200C5
:1027C000411902003E1E0200571D020083570200FD
:1027D000791D0200851D0200A81D0200BF1D020018
:1027E000D51D0200E41D02004FF0010A43F008036A
:1027F00004F114094846A38315F040F968B9B923D8
:102800004046374A374919F034FB4946364819F0F3
:1028100030FBB921324819F025FB009B83F3118866
:10282000BFF36F8FBAF1000F37D1002D47D116B12A
:1028300020462E49B0474FF02003EFF3118B83F36E
:102840001288BFF36F8F4846CDF800B015F008F935
:1028500068B98E234046224A254919F00AFB4946A9
:10286000244819F006FB8E211D4819F0FBFA484652
:1028700015F012F9A38B23F00803A383A38BDA06C8
:1028800025D5012123F01003A383B4F81C9009F08F
:10289000070900297FF473AE51E6A1680029C4D06E
:1028A000D1F800A04B6820469C46019A5B46E04761
:1028B000BAF1000FB9D05146DAF800A0F2E7294684
:1028C0005B462046019A2D6819F05BF8ADE713F0DE
:1028D00020011EBF23F020030221A383D5E700BF00
:1028E000FA1D0200271E02003E1E0200F928000009
:1028F000531E0200681E0200F8B504460D4600F1A2
:1029000014064FF02003EFF3118783F31288BFF30F
:102910006F8F304615F0A4F868B98E230B4A0C4926
:102920000C4819F0A6FA31460B4819F0A2FA8E218C
:10293000064819F097FA304615F0AEF83A462046A8
:10294000A5610121BDE8F840FFF7E8BDFA1D0200CE
:10295000531E020041190200681E02002DE9F047D3
:1029600004460F4619F023F8051E5EDB04F1140936
:102970004FF02003EFF3118A83F31288BFF36F8FB8
:10298000484615F06DF868B98E23384A38493948F9
:1029900019F06FFA4946384819F06BFA8E2133481E
:1029A00019F060FA484615F077F84FF6FF71E38B9F
:1029B000A28B8B4202F0070650D0022E24D135465E
:1029C0004FF001080133E383484615F057F868B922
:1029D000B923264A2949274819F04BFA494628487D
:1029E00019F047FAB921214819F03CFA8AF3118805
:1029F000BFF36F8FB8F1000F17D00023324639466E
:102A0000204618F0BEFF10E0930701D0062E0FD12C
:102A100000233B606368F3B9C4E900773546FEB92B
:102A2000524602212046FFF779FD2846BDE8F0878F
:102A3000052E18D0012E0BD012490E4840F2C913B2
:102A4000114A19F016FA40F2C9110F4819F00AFAA2
:102A50006FF0040504E01F606760DFE76FF00A05B0
:102A60004FF00008B0E76FF08505F9E7FA1D0200A6
:102A7000531E020041190200681E0200271E0200B8
:102A80003E1E0200E41D0200571D020070B5044600
:102A900000F114054FF02003EFF3118683F3128841
:102AA000BFF36F8F284614F0DBFF68B98E23274AE7
:102AB0002749284819F0DDF92946274819F0D9F99E
:102AC0008E21224819F0CEF9284614F0E5FFA38B99
:102AD00003F00703022B1CD0012B0CBF6FF0040482
:102AE0006FF08504284614F0C9FF68B9B923174A66
:102AF0001A49184819F0BDF92946194819F0B9F9C9
:102B0000B921124819F0AEF986F31188BFF36F8F1F
:102B100018E0E38B5BB913490E484FF4F873124A7F
:102B200019F0A7F94FF4F8710F4819F09BF9E38BEE
:102B3000013B9BB2E3833BB9204632460221FFF7BB
:102B4000EDFC0224204670BD0224CBE7FA1D0200F2
:102B5000531E020041190200681E0200271E0200D7
:102B60003E1E0200801E0200571D02002DE9F041AA
:102B70000F460546002853D0002951D000F1140615
:102B80004FF02003EFF3118883F31288BFF36F8FA8
:102B9000304614F065FF68B98E23234A2349244840
:102BA00019F067F93146234819F063F98E211E4860
:102BB00019F058F9304614F06FFF39462846AC8BAF
:102BC00018F0A9FE48B304F00704231F022B0BD909
:102BD0001949174840F22E23184A19F04AF940F2D1
:102BE0002E21164819F03EF9304614F047FF68B917
:102BF000B9230D4A12490E4819F03BF931461148E4
:102C000019F037F9B921084819F02CF988F311881F
:102C1000BFF36F8F2046BDE8F0816FF07704E3E7E4
:102C20006FF01504F6E700BFFA1D0200531E020004
:102C300041190200681E02008E1E0200571D02008C
:102C4000271E02003E1E0200F8B50F4600293ED0A6
:102C500006680122304618F00EFF01460446304651
:102C600018F0D1FEC3070DD4AC23194A19491A48EC
:102C700019F0FFF83946194819F0FBF8AC2114484F
:102C800019F0F0F82146304618F0D3FE25182946F1
:102C90000022304618F0B7FE2D1AAC420DD0B423F6
:102CA0000B4A0F490C4819F0E4F839460D4819F061
:102CB000E0F8B421064819F0D5F821463046002244
:102CC00018F0BDFE2146BDE8F84018F0FBBFF8BD86
:102CD000051F0200261F020041190200371F0200D3
:102CE0006F1F0200951F02002DE9F0470668144689
:102CF000B3684A42B3F5004F2CBF0825042502EA09
:102D0000010731EA02021ED0BD4228BF3D46B94646
:102D1000CF1B07F1FF3A1AEA070F0ED034494FF4E0
:102D2000A073344A344819F0A4F8344819F0A1F8D3
:102D30004FF4A0712F4819F095F874B94FF00009BD
:102D40004846BDE8F087A94204D82146BDE8F047CF
:102D500018F0FABF4FF00009DBE7B068B0EBD40F12
:102D6000ECD93919491B18F090FE0146304618F08D
:102D7000E7FE80460028E1D0B36809EBC005B3F553
:102D8000004F2CBF082304231D44354455447F4283
:102D90002F40A7EB09094946304618F06CFE4C4419
:102DA000073424F00704A41B804507464FEAE404D7
:102DB00008D202464146304618F0FCFE41463046F5
:102DC00018F03DFF3946304618F033FE384484424F
:102DD00008D239463046224618F0ECFE21463046ED
:102DE00018F02DFF01223946304618F028FEA7E7DB
:102DF000D11F0200051F020041190200EC1F020052
:102E0000B2F5802FF8B507460D46164612D2042AB1
:102E10000ED844494FF4F573434A444819F029F851
:102E2000434819F026F84FF4F5713F4819F01AF8A5
:102E3000042200E00822B61AEC1D354424F00704F1
:102E400025F007052D1B172D4FEAD5060ED8394959
:102E500040F2F313344A354819F00BF8344819F0AE
:102E600008F840F2F311304818F0FCFF00233C60F2
:102E70003146E3603046A66018F010FE012185005F
:102E80000746304618F001FE1B35ED082B18B342FB
:102E90000ED929494FF40173234A244818F0E9FF59
:102EA000234818F0E6FF4FF401711F4818F0DAFFCD
:102EB0000023194604F110029F422EDA2A462046CA
:102EC000002118F0D4FD002320461A46194618F0B8
:102ED000A5FD771B19462046012218F0B0FD3A46A1
:102EE000294618F0C4FD2B4600222946204618F03A
:102EF00095FD3146204618F0BAFD3B463146204646
:102F0000002218F08BFD31462046012218F097FD73
:102F10002946BDE8F84018F092BE42F8041B013380
:102F2000CAE700BF09200200051F02004119020084
:102F30002A200200432002006C2002002DE9F04FFD
:102F40008B4692461C46002591B002909AF80000EC
:102F500008B928465FE325280AF1010707D059463A
:102F6000029B98470028C0F25683013512E21822CE
:102F700000210AA81AF00AFB9AF80130252B78D014
:102F800000221046964694461646394617F8013BED
:102F90002B2B00F09D8000F29480202B00F09B8072
:102FA000232B00F09B802EB19DF8306046F0040684
:102FB0008DF83060BCF1000F05D09DF8306046F010
:102FC00008068DF83060BEF1000F05D09DF8306026
:102FD00046F010068DF8306028B19DF8300040F0C2
:102FE00020008DF830002AB19DF8302042F04002D8
:102FF0008DF830209DF8302002F04400442803D1A1
:103000006FF386128DF830209DF830202A2B42F085
:1030100080028DF830207BD19DF831204B1C42F08E
:1030200001028DF831201A782E2A0CBF01210021CF
:103030009DF8312061F341028DF8312074D15A7826
:103040002A2A6AD000210A260133184610F8012BDB
:10305000A2F13007092F40F28E809DF830200E91AA
:10306000C2F3400040EAD17161F341028DF8302093
:103070005AE00AF102078DF833309DF83130D90754
:1030800040F1498154F8049BB9F1000F07DA9DF82B
:103090003020C9F1000942F004028DF830205A07AF
:1030A00040F1428154F8048BB8F1000F80F2418165
:1030B0009DF831306FF341038DF831304FF0FF3818
:1030C00037E12D2B0CD0302B7FF46DAF01225CE764
:1030D0004FF0010C59E74FF0010E56E7012054E77D
:1030E000012652E733460CFB0202303A1E4616F820
:1030F000010BA0F13007092FF4D9994293D09DF824
:1031000030100D92D20F62F341018DF830108AE732
:103110000B4600224FF00A0CE8E79DF831200233FD
:1031200042F004028DF831201F4617F8012B6C2A5B
:1031300041D025D8682A2BD06A2A46D04C2A4CD0B8
:103140001F4617F8012B9DF83130782A8DF833206F
:1031500000F2D980572A4DD8412A03D0453A022A95
:1031600000F2D18004229DF8323062F302038DF820
:10317000323001239EE006FB01210346303964E72B
:10318000742A26D07A2ADBD106229DF831300DE050
:103190005A78682A9DF8312006D1012161F3C602D0
:1031A0008DF831209F1CCCE71346022262F3C60340
:1031B0008DF83130C5E75A786C2A9DF8312001D15D
:1031C0000421EBE713460322F0E705229DF8313096
:1031D000ECE707229DF83130E8E7BDF8303023F402
:1031E000F04323F0020343F4804343F00203ADF8BD
:1031F0003030A6E7A2F15801202900F2848001A016
:1032000050F821F0C93200000733000007330000F6
:1032100007330000073300000733000007330000C6
:10322000073300000733000065310000073300005A
:10323000C9320000893200006531000065310000AC
:1032400065310000073300008932000007330000B9
:10325000073300000733000007330000D1320000BD
:10326000C9320000ED3200000733000007330000D0
:10327000ED32000007330000C932000007330000C0
:1032800007330000C932000001209DF8321003F01E
:10329000780360F30201402B8DF8321002BF9DF8D5
:1032A000301041F001018DF83010632A31D1003B1C
:1032B00018BF01239DF83020C2F340010B4363F394
:1032C00041028DF83020D8E602209DF83210DEE76A
:1032D00003219DF8322003F07803A3F1400061F34D
:1032E000020243428DF832204341E3E703219DF877
:1032F000322013F0780F61F3020214BF0123002380
:103300008DF83220D6E79DF8303043F001038DF878
:1033100030300023CEE79DF93020002AACBF4FF0BB
:10332000FF39DDF83490BAE69B077FF5C7AEDDF8CC
:1033300038800023CDE90D339DF832309DF83110EF
:1033400003F00703012BC1F3C30138D1CB1E042BBB
:1033500022D8DFE803F003090921210054F8043BD7
:10336000DA17CDE90A3206E0073424F00704F4E85E
:103370000223CDE90A239DF8303013F0030656D01E
:103380003B4652465946029818F056FD0028C0F2B6
:1033900042810544BA46D9E554F8043B01294FEA75
:1033A000E372CDE90A3205D19DF828300A93002353
:1033B0000B93E0E70229DED1BDF92830D0E7022BDC
:1033C00023D1CB1E042B13D8DFE803F0030A0A1223
:1033D000120000232268201D0A920B930446CAE7BC
:1033E000E01D20F00700F0E80223CDE90A23F5E70D
:1033F00054F8043B01290A934FF000030B93D3D0F8
:103400000229B8D1BDF82830D0E7042B09D1E31D3B
:1034100023F0070303F10804D3E90023CDE90A23CD
:10342000A9E7032B04BF54F8043B0A93A3E79DF8D4
:1034300033007828AED8622822D825283FF48FADF3
:103440005828A7D1DDE90A010DF1260300930CAA43
:1034500004AB18F0ABFC8246B8F1000F0DF126006A
:103460000CDB9DF83020A0EB0A036FF38612984521
:103470008DF8302002D9A8EB03030D9380463DE080
:103480006338152886D801A252F820F00D350000C7
:10349000713500009533000095330000953300002E
:1034A000953300007135000095330000953300001E
:1034B0009533000095330000CB35000099350000AE
:1034C0009D3500009533000095330000E534000081
:1034D00095330000993500009533000095330000C6
:1034E00099350000B8F1000FDDF828A00ADB41464D
:1034F00050461AF009F800260AEB0008BAF1000F4E
:103500000CD147E7504619F0F8FFF4E700260A9B74
:103510000DF1100A8DF810300DF11108A8EB0A0317
:1035200006B101339DF83220D00668D50233520629
:103530000D9948BF0E9A0B4448BF9B18B9F1000F74
:1035400076DD9DF83020A9EB0309C2F380030393D5
:1035500053076DD4500661D546B159463046029B9B
:103560009847002857DB039B01351E46302356E061
:103570001E070FD413F0100618BF2026DDE90A231A
:10358000002BBFF65FAF524263EB43032D26CDE91C
:103590000A2357E72B26F1E7002653E70A9840B3A2
:1035A0000DF126030093002104AB0CAA18F0FEFBDA
:1035B000BDF83230824603F0EF0343F4F04343F0AA
:1035C00010030026ADF8323046E70A9B07293FF684
:1035D000E1AEDFE801F00C04060C08080C0C1D70CD
:1035E000D8E61D80D6E6EA17C3E90052D2E61D6090
:1035F000D0E6DFF8C8A006460AF105088EE71107F5
:1036000048BF013393E7184603935946029B9847F6
:103610000028039B04DA11B0BDE8F08F20234D444D
:103620004A46002AA5EB090109F1FF39EBDC0D46FA
:1036300036B159463046029B98470028EBDB0135EE
:103640009DF83230D90601D41A0706D559463020E4
:10365000029B98470028DEDB01359DF83230DB06FF
:1036600007D559469DF83300029B98470028D2DBC6
:1036700001350D9E2E44731B002B16DC434652462B
:103680005946029818F0D8FB0028C4DB0544A94429
:10369000A9EB0503002B7FF77DAE59462020029B46
:1036A00098470028B7DB0135F2E759463020029BE6
:1036B00098470028AFDB0135DDE700BF9720020007
:1036C00038B50D4604462022002119F05FFFEB6853
:1036D0006A68E361AB68A3612B68626223620023BE
:1036E000A3622B6922B1511E114208BF43F00103AE
:1036F00023610122002104F12C001CF061FD58B16E
:103700002E2306490648074A18F0B3FBBDE83840A7
:103710002E21044818F0A6BB38BD00BFC32002000C
:10372000411902009D2002002DE9F04F87B0CDE93C
:103730000223436A0446013B8B428B46C0F0BF80A4
:103740000027BA46DFF88481DFF8849104F114067B
:103750004FF02003EFF3118283F31288BFF36F8FD2
:1037600030460192009214F07BF968B98E234246EC
:103770004846584918F07DFB3146574818F079FB08
:103780008E21404618F06EFB304614F085F905A9ED
:10379000204618F07BFB05990546594534D321682E
:1037A000236A204613F8212003EB810A22F003024A
:1037B00003F821205A4618F08FFB00252060304680
:1037C00014F05CF968B9B92342464846434918F0F9
:1037D00050FB3146424818F04CFBB921404618F0E6
:1037E00041FB009B83F31188BFF36F8F002D68D0DE
:1037F000002FABD09DF81330002BA7D039462046C0
:10380000A36998470027A1E718B1204618F072FB7A
:10381000D5E7DDE90232134343D01CF080FC0028D9
:103820003FD1304614F02AF968B9B92342464846D8
:103830002A4918F01EFB3146294818F01AFBB92115
:10384000404618F00FFB019B83F31188BFF36F8F85
:1038500004F12C00DDE9022314F024FE05464FF0AC
:103860002002EFF3118382F31288BFF36F8F30468B
:10387000009314F0F5F868B98E234246484615497E
:1038800018F0F7FA3146144818F0F3FA8E21404642
:1038900018F0E8FAB5FA85F5304614F0FDF86D0930
:1038A0008DE72269204605990DF11303C2F340020A
:1038B00018F047FB051E074618BF01257FE74FF0AC
:1038C000000A504607B0BDE8F08F00BFFA1D0200A5
:1038D00041190200531E0200681E0200271E02004A
:1038E0003E1E02002DE9F041C369044608460E461B
:1038F000984704F1140507464FF02003EFF31188B1
:1039000083F31288BFF36F8F284614F0A9F868B9C3
:103910008E231A4A1A491B4818F0ABFA29461A484E
:1039200018F0A7FA8E21154818F09CFA284614F0D2
:10393000B3F833783A4643F00103337061682046A8
:1039400018F0CAFA6060204618F0EAFA284614F027
:1039500095F868B9B923094A0C490A4818F089FA58
:1039600029460B4818F085FAB921044818F07AFA6C
:1039700088F31188BFF36F8FBDE8F081FA1D020054
:10398000531E020041190200681E0200271E020099
:103990003E1E02002DE9F74F05463C4FDFF8F0A030
:1039A000DFF8F08005F114064FF02003EFF31189E2
:1039B00083F31288BFF36F8F304614F051F868B963
:1039C0008E233A465146404618F053FA3146324863
:1039D00018F04FFA8E21384618F044FA304614F0A9
:1039E0005BF8D5E90141A14288BF6C6A641AFCB159
:1039F000286A10F8213000EB810B13F0030417D074
:103A0000022C03D150F82140A40816D1DC07EA6942
:103A100010D543F0020300F8213058460191904739
:103A200001990246284618F057FA0024A86011E0D0
:103A3000A3460FE05846904704462246A968284608
:103A400018F04AFA2246E968A860284618F044FAB5
:103A50000124E860304614F011F868B9B9233A46F9
:103A600040460E4918F005FA31460D4818F001FAA3
:103A7000B921384618F0F6F989F31188BFF36F8F32
:103A8000002C8FD1584603B0BDE8F08FFA1D02001C
:103A9000531E020041190200681E0200271E020088
:103AA0003E1E02002DE9F041C369044608460D465A
:103AB000984704F1140607464FF02003EFF31188EE
:103AC00083F31288BFF36F8F304613F0C9FF68B9D4
:103AD0008E23244A2449254818F0CBF9314624483E
:103AE00018F0C7F98E211F4818F0BCF9304613F0C2
:103AF000D3FF2B786FF300032B7023699B0705D549
:103B0000E268236A03EB82039D4225D12B783A4673
:103B10006FF341032B70E168204618F0DDF9E06097
:103B2000304613F0ABFF68B9B9230E4A11490F486C
:103B300018F09FF93146104818F09BF9B92109484F
:103B400018F090F988F31188BFF36F8F04F12C00FF
:103B5000BDE8F04114F062BC2B6867F39F032B6053
:103B6000DEE700BFFA1D0200531E020041190200E9
:103B7000681E0200271E02003E1E020008B54FF01C
:103B80002002EFF3118382F31288BFF36F8F03F0EB
:103B9000A3FF034817F0A5FE03F080FAFCE700BF7F
:103BA000CC2002004FF0FF33C340DB0710B50446C2
:103BB0000BD40C490C4840F229230C4A18F059F94F
:103BC00040F22921094818F04DF9094800EB84001A
:103BD000D0F8003223F0E04343F04053C0F8003205
:103BE00010BD00BF2821020041190200F52002008B
:103BF0000025845070B54FF02003EFF3118683F356
:103C00001288BFF36F8F01240C4B0D4DC3F8004594
:103C100002230020C5F8D036FFF7C4FF2046FFF787
:103C2000C1FFC5F80447C5F80449C5F8004B86F341
:103C30001188BFF36F8F002070BD00BF00100050CF
:103C40000040005048B1054B1A68054BB2FBF3F237
:103C5000044B504343F0010318477047C40300204E
:103C600040420F00900B0200062807D10122044BAE
:103C7000C3F80025BFF34F8F20BFFDE7704700BF9B
:103C8000004000500F2AF8B506460D4614461F4660
:103C90000BD92049204840F2E713204A18F0E9F8F0
:103CA00040F2E7111D4818F0DDF828460EF0A2FD9D
:103CB000A400054604F5C074B7B158B918491648B0
:103CC00040F24E23174A18F0D4F840F24E2115481E
:103CD00018F0C8F804F1A04346F0004603F5283375
:103CE000C5F880601E60F8BD58B90D490A4840F219
:103CF00063230C4A18F0BDF840F26321094818F01C
:103D0000B1F8002204F1A04303F52833C5F8802060
:103D10001A60E8E781210200411902004F210200E8
:103D2000C42102008C210200F0B583B000AF381D21
:103D30000FF098FE244B984242D10EF047FF041E2C
:103D400013DA38790FF094FE6D4688B06A461F4B3F
:103D5000C2E90534032342F8103F00234FF4C25157
:103D60001B4800F065FDAD4626E040F60703194DFF
:103D70007C71AE68FB8074687B683CB10821284682
:103D8000154AA047041EDFDB336913B96FF05704EF
:103D9000DAE70122082128469847041ED4DB0123D4
:103DA00038790E4A03FA00F1C2F80415FA797979E4
:103DB000FFF768FF002CC7D120460C37BD46F0BD89
:103DC0006FF01204C0E700BF0000AD0BC821020075
:103DD000980A020078060200993E00000070015027
:103DE000F8B5069CC4F30745E7B2C4F307242046A0
:103DF0000EF0E4FC0F2D06460BD91D491D4840F27C
:103E0000E1131D4A18F035F840F2E1111A4818F094
:103E100029F8AD00EDB25EB9184916484FF4177392
:103E2000174A18F026F84FF41771154818F01AF8C9
:103E30000022144BC6F880205A510123124ABB407D
:103E4000C2F8083520460EF0DFFE38460FF010FEAF
:103E50000E4B98420BD075230D4906480D4A18F0B9
:103E600008F8BDE8F84075210A4817F0FBBFF8BD17
:103E700081210200411902004F210200F0210200BD
:103E80008C21020080A00250007001500000AD0B98
:103E90002B220200F42102002DE9F7431446836827
:103EA0001B69002B50D12B492B48CB232B4A17F0F1
:103EB000E0FFCB21294817F0D5FFC4F30727384688
:103EC0000EF0B8FC5FFA84F900233946220E06464C
:103ED0004846FFF7D7FE38460EF070FCC4F307459E
:103EE0000F2D80460BD91E491B4840F2E1131D4A95
:103EF00017F0BFFF40F2E1111A4817F0B3FF1A4B59
:103F0000AD00EDB22B4449F000451D60B8F1000F43
:103F10000BD1164910484FF41273154A17F0A9FF38
:103F20004FF41271124817F09DFF124B06F1320246
:103F3000C8F88050384600930194002352000EF0D8
:103F400055FD03B0BDE8F083002298470028B4D0A7
:103F5000A9E700BFC320020041190200F4210200BA
:103F6000812102004F21020080A00250F0210200B6
:103F70008C210200E13D000030B5002289B00F49DC
:103F80000F481CF0EAF9002200230024CDE90623A3
:103F90004FF0FF330B4DCDE903344FF44072284608
:103FA000CDE90144084B0949009413F081FC08490C
:103FB00028461CF0BAF8204609B030BDD53F0000B5
:103FC000A0220020D8220020FD410000E071002046
:103FD00048220200014814F021BA00BF280800203E
:103FE000014B53F820007047DC0B020070B5174BF3
:103FF000174CE41A902C0BD91649174840F273233A
:10400000164A17F036FF40F27321144817F02AFFC2
:10401000134BD3E8EF6F721CC3E8E12F0029F8D1EE
:104020001EB92511094CAE4200DB70BD237B53B194
:1040300023689B690BB12046984763680422204699
:10404000196800F0A1F901361034ECE7E00A02002B
:10405000F00A0200952202004119020050220200DB
:10406000D835002010B5044C237813B9034814F058
:10407000D5F90123237010BD145100202808002019
:10408000084BD3E8EF2F0132C3E8E12F0029F8D124
:1040900038B1054BD3E8EF2F013AC3E8E12F0029EF
:1040A000F8D17047D4350020D035002000200246DA
:1040B000034BD3E8EF0FC3E8E12F0029F9D1704794
:1040C000D4350020F8B5FFF7F1FF002607460A4C6B
:1040D0000A4D2D1B2D11AE4200DBF8BD204617F016
:1040E000ADFF28B123681B6913B1394620469847B4
:1040F00001361034EFE700BFE00A0200F00A0200C8
:1041000001490248FFF7DCBAE80B0200DC35002069
:1041100008B50023074A4FF400401370064A1360A5
:10412000064B074A1A6000F06BFBBDE80840FFF73A
:10413000E7BF00BF15510020D43500208C010020BE
:1041400043C001000146002200230148FFF7ECBAFA
:10415000DC3500200148FFF71DBC00BFDC35002026
:1041600001460148FFF79EBCDC350020014817F0EE
:1041700042BF00BFDC3500201B4B2DE9F0411B780E
:10418000054603B970B317F071FF064618B16DB15B
:104190003046FFF7E5FF2DB9144B1B68002B01DDFE
:1041A000FFF790FFBDE8F041FFF7E0BF104BD3E809
:1041B000EF2F013AC3E8E12F0029F8D1A8460D4CB2
:1041C0000D4F3F1B3F11B845E2DA204617F036FF8E
:1041D00020B12368314620461B68984708F1010842
:1041E0001034F0E7BDE8F08114510020D4350020F0
:1041F000D0350020E00A0200F00A0200164B174AF0
:1042000010B59B1A002B0BDC1549164840F23B53A6
:10421000154A17F02EFE40F23B51134817F022FECC
:10422000FFF7E4FE15F0DCFE104B186030B1104BC8
:104230001B68092B02DD0F4814F0F0F80D4C00202C
:10424000FFF79AFF0028FAD14FF0FF324FF0FF330B
:10425000204614F027F9F2E7F00A0200E00A020013
:10426000B92202004119020050220200203600202B
:10427000D03500202808002013B51B4BD3E8EF2FC2
:10428000511CC3E8E01F0028F8D1184B1B7883B1FC
:104290004FF02003EFF3118483F31288BFF36F8F85
:1042A0000020FFF769FF84F31188BFF36F8F02B01E
:1042B00010BD0F4B1B68002BF9D052B90022002310
:1042C0000C48CDE900234FF40042002316F06EFBAA
:1042D000EDE70A2AEBD107481CF04BF8064802B07C
:1042E000BDE8104014F09AB8D035002015510020D8
:1042F00020360020A022002028080020064B10B500
:104300001B68044698472146A0600448FFF7EAFA74
:10431000BDE81040FFF7B0BF8C010020DC35002065
:10432000F8B50F4F3D7875B9FFF760FE0D4C0E4E96
:10433000361B3611B54207DB0020FFF71DFF0028B2
:10434000FAD101233B70F8BD204617F077FE18B173
:10435000236820465B69984701351034EAE700BFBF
:1043600015510020E00A0200F00A0200044A054B41
:104370009B1AB1EBD30F34BF52F8310000207047C5
:1043800070090200E00A020070B503680E4C1B6859
:10439000041B241105460E46013463B90B49BB23A7
:1043A0000B4A0C4817F065FD0B4817F062FDBB2166
:1043B000074817F057FD01226B681C711E605A7187
:1043C000BDE87040FFF74EBEE00A02003123020054
:1043D000D922020041190200472302000EB403B59E
:1043E00003AB53F8042B014604480193FEF7A6FDE6
:1043F00002B05DF804EB03B0704700BF61460000F7
:104400002DE9F0471D46089B1746DA0604460E467E
:1044100005D499064CBF2A492A49FFF7DFFF4FF020
:104420000008DFF8A490A8452ADB0025DFF89C806F
:10443000DFF89C90DFF890A0BD422FD2494620467D
:10444000725DFFF7CBFF0135102D20D120462149A9
:10445000FFF7C4FF0025DFF87080DFF87C90AF42E3
:1044600028D9725D4946A2F120035F2B28BF2E2276
:104470002046FFF7B3FF0135102D14D1BDE8F087BA
:1044800049462046FFF7AAFF08F10108CBE76A0773
:10449000D2D151462046FFF7A1FFCDE74146204645
:1044A000FFF79CFFCFE76B07D9D141462046FFF7C6
:1044B00095FFD4E741462046FFF790FFDBE700BFBA
:1044C0009D4902002E1A02002B6D0200296D020088
:1044D000692302006F230200712302002DE9F04FCF
:1044E0001C4687B001F001030592074688469DF8F7
:1044F0004090BDF948A001F0020B049301F00806BA
:1045000017F0B8FD0246002844D038463949FFF775
:1045100065FF0546BBF1000F08D018F0440F3BD1F2
:10452000224638463449FFF759FF0544049B53B1EE
:10453000324B384653F82920314B3249002A08BF04
:104540001A46FFF74BFF3EB12F4B384653F8292050
:104550002E49FFF743FF0646BAF1000F16DB059B15
:10456000002B45D0012303FA09F9294B19F0100F4C
:10457000284C18BF1C4651469DF84400FFF7F6FE34
:10458000214602463846FFF729FF0644701907B056
:10459000BDE8F08F0546BDE71F4B18680028C4D062
:1045A0001E4B4FF47A781B684FF46161B4FBF3F44F
:1045B000B4FBF0F300FB134408FB04F4B3FBF1F28B
:1045C000B4FBF0FE4FF03C0C01FB123100FB1E442B
:1045D000B1FBFCF308FB04F4B4FBF0F00CFB13118B
:1045E000CDE901E0009138460D49FFF7F7FE9CE761
:1045F000084CC0E78223020086230200FC0B020065
:10460000742302004C160200100C0200AB230200BF
:104610007E23020079230200243600202836002061
:104620008F23020038B50C46E107054603D5084A3A
:104630000849FFF7D3FEE20608D4A3062846BDE8E2
:1046400038404CBF04490549FFF7C8BE38BD00BF1C
:10465000742302004C1602009D4902002E1A02002B
:1046600038B54B6805461A68CB680C469A4202D1A9
:10467000084617F00EFD6368D3E8EF2F511CC3E81E
:10468000E01F0028F8D1A3689D5463681A68E368A6
:104690009A4209D9054906488523064A17F0E9FBDD
:1046A0008521044817F0DEFB002038BDE02302001E
:1046B00041190200B12302002DE9FF470B8806468D
:1046C00013F4E07F0C469046C3F382195BD00A785E
:1046D0004B68C2F3C202002B52D02C495B1A43F341
:1046E000CF03CDE90123CDF80090002241463046AA
:1046F000A368FFF7F3FE8246254655F8103BC3F347
:104700004923C3B1224F23482B46B9F1000F08BFFC
:1047100038463246204917F01BF800280BDA1F49AB
:104720001F4840F2B7231F4A17F0A3FB40F2B721FE
:104730001C4817F097FB6788C7F3CB0797B1216830
:10474000C1F349210D44102F3C4628BF10242946AF
:10475000534622463046CDF80080FFF751FE3F1BFE
:104760002544F0D1B9F1000F04D04A464146304605
:10477000FFF758FF304604B0BDE8F04717F089BC9A
:104780004FF0FF33ADE7CA46B6E700BF700902003D
:10479000ADC00100614600003D2F00001024020062
:1047A00041190200B123020042F20F7373B58B422C
:1047B00028BF0B4605680446052168460D4A17F0D8
:1047C0009DF80646636828460B225B680A4917F085
:1047D00053FC63683246694628465B6817F04CFC18
:1047E00063681B2228465B68044917F045FC02B049
:1047F00070BD00BFC41B0200552402003924020012
:1048000001230021074A10B5074C1360A04204D8C9
:1048100001B11360054B186010BD012140085B0019
:10482000F4E700BF2836002040420F002436002065
:104830002DE9F04FC1F3CB45C1F3492681460C4623
:1048400090469A4689B01735002E3ED002234FF08D
:10485000040B0093002306AF31461A464046CDF8BC
:1048600008B001970596FDF781FCC0F309035819BC
:1048700020F0070080081E4663F352240493FFF7DC
:1048800061FC0546B0B1022300F1100200934046DE
:10489000CDE9017B049B0599FDF768FC002809DA46
:1048A0000D490E4848230E4A17F0E3FA48210C48F8
:1048B00017F0D8FA66F35224534622464946284652
:1048C00009B0BDE8F04F17F0FEBB25F007008008E7
:1048D000FFF738FC0546EDE78F240200411902007E
:1048E000612402002DE9F04F87B00746DDE9104B47
:1048F000DDE9126A884699460392002E4DD0334670
:104900005A4610210020CDF800A0CDF814A0FDF7E4
:10491000B3F9051E09DA224922486723224A17F013
:10492000A8FA6721204817F09DFA039B07F00707B4
:1049300003F007021D4BFF0047EA821703EA4523F5
:1049400004F117001F432844194B20F0070003EA25
:10495000C44380081F43FFF7F5FB0446A0B19EB196
:1049600033465A462946CDF800A01030FDF784F9A9
:10497000002809DA0A490B4881230B4A17F079FA13
:104980008121094817F06EFA4B463A4641462046C7
:1049900007B0BDE8F04F17F096BB3546C5E700BF3E
:1049A0008E240200411902006124020000FE07006B
:1049B0000000F87F0122014B1A7070472651002039
:1049C000014B002019607047343600200122024B51
:1049D00002481A7017F05DBB27510020440C0200FA
:1049E0000148FFF7E1BE00BF440C0200064B10B5C2
:1049F00018680C46FFF7F4FA2146BDE8104003465C
:104A00000F220248184700BF34360020440C020031
:104A1000054B1B781BB141F288301BF06FBCA42002
:104A2000002115F0A5BA00BF275100202DE9F0475D
:104A300080460F460424DFF88890DFF888A099F8B4
:104A40000050CDB94FF0FF334FF0FF32504613F016
:104A5000C1F93A464146284612F068FA06465046E1
:104A600013F0B2FA184DFEB101232B7099F8003003
:104A70006BB93846BDE8F0873A464146002012F04F
:104A800055FA0646EEE75CB92C704FF0FF34002073
:104A900012F0C8FA0028ECD02B78002BF3D1E8E70D
:104AA000013CFFF7B5FFF2E72B7813B1013C04D1CD
:104AB0002C702B78002BC2D1DBE7FFF7A9FFF8E7BA
:104AC0002751002054070020265100202DE9F743EC
:104AD0000F4606460821C06A17F09EFB80463C68D8
:104AE000DFF84890241A3C6004EA0905AC4203D878
:104AF000002003B0BDE8F08308236A462146304613
:104B000017F0FCFA0028F4D16946304617F08EFB06
:104B100040B1BDF80230BDF8042005EA0905134490
:104B20001D443C60A4EB0804E0E700BF0000FFFF69
:104B30002DE9F04F91B0044600AF00F11408404653
:104B40001BF009FBA06A8368DB689847E06288B9BC
:104B5000984BFB636FF0150502234FF48251964882
:104B600007F13802BB6317F049FB28464437BD46BE
:104B7000BDE8F08FA06A8368DB6898470368013B53
:104B80001F2B01D98D4BE4E7A06A216807F11C02B5
:104B90001AF072FA08B18A4BDBE7A5892DB13B6A9E
:104BA000B5FBF3F203FB12550DB1864BD1E7E38958
:104BB000012B01D8844BCCE7E36ABD6093F80490E5
:104BC0004FF0FF334FF0FF32404613F003F9082156
:104BD000E06A17F021FBAA460646E3891FFA85FB27
:104BE0005B454AD8E389534500F0F4805B450CD11E
:104BF000B96808234A462046891B17F0B7FA20B93E
:104C0000E08907F1080117F0FCFA204607F10801D6
:104C1000FFF75CFF0546002840F0DE80BB68DFF848
:104C2000ACA1636003EA0A03A360D4E901139942CB
:104C300010D30823204607F10C0217F05FFAD0B911
:104C400007F10C0313F8012B914540F01E81013050
:104C50000828F7D16368E0891B0C1B0407F10801E1
:104C6000BB6017F0CEFA4A462046A389B96817F010
:104C70007DFA002826DA0546AEE0A1892B04891BBF
:104C800013FA81F14A4608232046B96017F06EFAFC
:104C900080B1E08907F1080117F0B3FA0AF1010ABF
:104CA00008234A462046B9681FFA8AFA17F05EFAC6
:104CB000002897D0013590E7002B00F0FF806FF0BF
:104CC0001C0589E051D04FF6FF7963683344BB601F
:104CD000B968A3898AB29B1B9A4220D33C4B4FF4FC
:104CE0008651FB630223344807F13802BB6317F097
:104CF00085FA2046616817F05EFA0028BBD1636828
:104D0000324AA18913400B44A3EB4603636013406E
:104D10002046A36017F07FFB002841D0ABE70823B3
:104D2000204607F1140217F0E9F90028A3D1204624
:104D300007F1140117F07AFA30B1BB8A4B4503D161
:104D40003B8B002B00F08880BB683344BB60BFE71F
:104D50004A4620465B1A17F009FA00288BDB08D078
:104D6000E26AA36812681344A360D4E901318B425C
:104D7000EED86168A38901EB46029A42CCD1DFF8F4
:104D80004C90A36801EA09029342C5D0204617F06F
:104D900012FA00287FF46FAF636803EA0903A36087
:104DA000A089A388A0EB4606B34215D1204617F090
:104DB0001DFB60E7BC240200180A0200DE2402008A
:104DC000FB24020013250200272502000000FFFF3C
:104DD000992502006FF02C05404613F0F5F8002DE0
:104DE0007FF4C3AEE94688B06E460123B0464FF06B
:104DF000040AE28933492374A389C6E90512F361E1
:104E000048F810AF42464FF403512F4817F0F6F917
:104E10002E4A636872611A0C9BB2CD464FF403515F
:104E2000B5462948B261F3614246C6F810A017F0B2
:104E3000E5F9274AA36872611A0C9BB2CD46B261AC
:104E4000B54642464FF403511F48F361C6F810A01F
:104E500017F0D4F9CD4688E61E4B07F13802FB6304
:104E600002234FF486511848BB6317F0C7F96368F3
:104E7000E0891B0C1B0407F10801BB6017F0C1F9A6
:104E80002046B96817F097F946E7204607F10C016C
:104E900017F0CCF9D4F804B080B1BA683B8AF9892C
:104EA00002EA0A02A2601944E06A7B6017F0B4F9D2
:104EB00002445A457B68A2603FF4FEAEABEB0603AA
:104EC0006360B2E64A250200180A0200612502006A
:104ED00073250200842502002DE9F04F1E46037C55
:104EE0000446894690468DB07BB9614B6FF00C0546
:104EF0000B9302234FF482515E480AAA0A9317F0DB
:104F00007DF928460DB0BDE8F08FC26A0821104631
:104F100017F082F982463146104617F07DF9A389D1
:104F20000746A3EB8A03B342C0F09E801EB1B8F1DE
:104F3000000F00F0998063680393204604AA03A938
:104F4000DDF80CB017F0AAF905460028D9D1BDF854
:104F500010304B4505D06268039B9A42EDD1E6B90B
:104F6000CFE7204604A917F061F90028F3D0BDF877
:104F7000143086B1B34210D1BDF812004FEA1B4184
:104F80000904014433464246204617F0C5F800287C
:104F900003DC0546B5E7002BB3D0A7BB04F1140A28
:104FA0004FF0FF324FF0FF33504612F013FFDFF89F
:104FB000C8B0E3899D4254D0D4E90123F9188A424C
:104FC00024D3ADF81A30FF2306A88DF81E30ADF8B3
:104FD0001890ADF81C6017F008F93246414620469B
:104FE00017F0E0F9034638B9204606A917F0EDF9A5
:104FF000002814BF034633460193504612F0E4FFE5
:10500000019B1D467DE75744BFB2C7E70821E06A10
:1050100017F002F94FF6FF73ADF818300023ADF822
:105020001C301318ADF81A30A38902EA0B021A4497
:10503000121A626006A817F0D8F806A9204617F0E1
:10504000C4F9E089211D17F0DCF86368204603EA03
:105050000B03A36017F0DFF903460028CCD101351C
:10506000A7E76FF01B03C7E76FF0150549E700BF1F
:10507000A8240200180A02000000FFFF2DE9F047F3
:105080001E46037C88B004460F469046BDF840900B
:1050900073B92C4B2C48079302234FF4825106AA74
:1050A000069317F0ABF86FF00C0008B0BDE8F0877E
:1050B0000821C06A17F0B0F8A389A3EB4003B342FC
:1050C0003CD34FF0000A63680193204602AA01A96D
:1050D000019D17F0E3F80028E7D1BDF80830BB4286
:1050E00008D1204602A917F0A1F818B10AF1010A67
:1050F0001FFA8AFA6268019B9A4218D0CA45E4D91D
:10510000BDF80C30BBB1CA4515D3BDF80A102D0C43
:10511000B3424FEA054528BF33464246204629445C
:1051200016F0ECFF0028C0D1BDF80C00BDE7BDF8BB
:105130000830BB42E4D06FF00100B6E76FF0150015
:10514000B3E700BFA8240200180A02007FB570B9B7
:10515000124B1348059302234FF4825104AA04937F
:1051600017F019FA6FF0150007B05DF804FB8368BB
:1051700063B90C4B0A48059302234FF4825104AAE9
:10518000049317F008FA6FF00400EDE71B681BB1F9
:1051900007B05DF804EB18471846E5E7C72502009D
:1051A000380A0200D825020010B586B008B101B156
:1051B0006AB9134B1348059302234FF4825104AA92
:1051C000049317F0E8F96FF0150006B010BD84687D
:1051D0000CB1A46864B90C4B0A48059302234FF440
:1051E000825104AA049317F0D6F96FF00400ECE79B
:1051F000234641F8040B06B0BDE81040184700BF35
:10520000F6250200380A0200D825020030B5134600
:10521000044687B068B9134B1348059302234FF433
:10522000825104AA049317F0B6F96FF0150007B085
:1052300030BD006882680AB1556865B90B4B0A48F1
:10524000059302234FF4825104AA049317F0A3F9A3
:105250006FF00400EBE70A46AC46616807B0BDE8B2
:105260003040604722260200380A0200D82502009A
:105270000023012213B50446CDE90032074BD0E9E3
:10528000091211F03BFBA36E1B6823B1E06E02B064
:10529000BDE81040184702B010BD00BF9E49020093
:1052A00008B504220021024818F070F9002008BD5A
:1052B0000000072030B50C460E4985B00291D0F8A9
:1052C00090110546CDE9003100F1E0014FF0FF33C8
:1052D000204611F039FB50B9012384F86430D5F829
:1052E0008C3123B1204605B0BDE83040184705B0E9
:1052F00030BD00BF9DC6010070B50C461146064684
:1053000017F0B6F9054610B12060012070BD304697
:10531000034917F0ADF920600028F7D02846F5E7DB
:105320009E4902002DE9FF470746012304694168B1
:1053300004F55175D5E8EF2F002A03D1C5E8E03F09
:105340000028F7D140F0AE8040F24B428B6801203C
:10535000043B934283BF40F24C42B3FBF2F3B3FAF7
:1053600083F3002388BFC3F12003013B984004F579
:10537000D47600F0948010224FF008089A4002EB97
:10538000400208FA03F8093208F1060822F0030285
:1053900042444FF4806808FA03F808EB4208D1F859
:1053A00004C0C4F844824FF480680CF1040E08FA7B
:1053B00003F37344C4F838321344C4E98CC33B4B41
:1053C000C4F83C02C4E9A11330460968C4F840E2BD
:1053D00000F06EF930BBD7F81090D7F8048009F5CB
:1053E000287AD8E907375046012B08BF103F13F041
:1053F000C1FB0023D8F824002D494FF4806201EB53
:105400008021009350463B4613F0D0FB09F52470F1
:10541000284913F0CFFAD8F8140083685F684FB9B1
:105420006FF057000023D5E8EF2FC5E8E13F0029D2
:1054300032D0F8E74B46204AD8F81810B847002871
:10544000F0D1D8F8140083681B69002BE8D0012242
:10545000D8F8181098470028E4D1184B2046C4F813
:105460008C31174BC4F89031164B0293D4F8F031BD
:105470000193D4F8E8310093D4F848223346D4F8A5
:10548000401300F0EDF80028CCD10223D5E8EF2F2F
:10549000C5E8E13F0029F9D104B0BDE8F0876FF01D
:1054A0000B00BFE76FF07700F6E700BFF5C601001D
:1054B000E0740020ADC60100A1C6010071520000D9
:1054C000C7C6010035C701002DE9F3410F46154657
:1054D000066906F55173D3E8AF3F022B61D113681B
:1054E00023B96FF0150002B0BDE8F0811B78002BE6
:1054F000F7D0D6F84083B8F1000F35D106F5CA745D
:105500004FF0FF334FF0FF32204612F063FC30467D
:105510002A6801A9FFF7F0FE019B1BB9204617F08E
:10552000F3F8DEE705F108029A666A6983F8648099
:10553000DA66DB6370B1204617F0E6F80199304671
:105540000B6E2A68FFF7B6FE019C002CC9D0002024
:105550003C60C8E72022296803F1400017F0BBFF38
:10556000204617F0D1F8EFE730460F4917F080F8E2
:1055700004460028B5D005F1080383666B69202234
:10558000C3660023296880F86430C063403017F098
:10559000A2FF22460121304600F044F80028D6D070
:1055A0009FE76FF00F009EE79E4902002DE9F04F44
:1055B00006460F4691464FF00008D0F89C40DFF8B1
:1055C00060B0A4F5A07585B0A4F5C074294638462E
:1055D00017F0A3FFD0B9CDF808B0D4F89031A5F1F9
:1055E000400ACDE900933A464FF0FF33314650462A
:1055F00011F0AAF970B97023012203FB084383F864
:105600006420D4F88C310BB1504698477035B8F10E
:10561000000F02D005B0BDE8F08F4FF00108D5E7CC
:10562000CFC701001FB5144690B18AB1012912D12C
:105630000A4B00F1E0010293D0F89031403201931F
:105640004FF0FF332046009311F07EF904B010BDF7
:105650006FF01500FAE70020F8E700BFCFC70100A0
:105660002DE9F041089D0C461746DDE906121E465D
:10567000C0B1B9B10D4B00F1E008002D08BF1D46C7
:105680006CB900F5C07420461AF0BCFC06943B4689
:105690002A4631464046BDE8F04111F01DBB0023CB
:1056A0000693F4E76FF01500BDE8F081AD550000FA
:1056B000F0B50E46044689B000286FD0012302469B
:1056C000C3630023D0F89810364F403040F80C7C6C
:1056D00042F8301FCDE901334FF0FF330093C36D23
:1056E0001AF03DF8304A06AB92E8030083E8030065
:1056F000184611F049F80546D8B904F1340011F004
:1057000023F80546A8B93946284805AA1AF001F831
:10571000054670B9059B9A6872B10C33D4F89400B1
:10572000C4F8A03017F070F8C4F8D40030B96FF0A6
:105730000B05284609B0F0BD0346EFE7D4F8940006
:1057400017F062F8C4F8D8000028F0D0D4F88C30F4
:10575000D4F8A010C4F8A8300423C4F8AC30C4F8BE
:10576000C4300223A362124BB4F89420D4F8D4704E
:10577000C4F8B810C4F8D010D4F89010236204F123
:10578000A403A4F8B020C4F8A470C4F8C010A4F80E
:10579000C820C4F8BC00A661E362CAE76FF0150533
:1057A000C7E700BF44260200440B02004E26020059
:1057B000780C02002DE9F04705460E4617461B4CB3
:1057C000DFF86C80DFF86C9044450ED91A4940F23E
:1057D0008D534A46194816F04CFB194816F049FB00
:1057E00040F28D51484616F03DFB444503D36FF01F
:1057F0008500BDE8F087134B62685B6A9A4212D35A
:10580000A36983B190782979884205D13A46314617
:105810002846BDE8F04718475279012A03D13A4695
:105820003146284698472434CEE700BFA80A002016
:10583000CC0A0020562602008826020041190200E8
:10584000AB260200443600202DE9F84305460E46FB
:105850001746134CDFF84C80DFF84C9044450ED9C6
:10586000124940F2BD534A46114816F002FB114856
:1058700016F0FFFA40F2BD51484616F0F3FA4445DF
:1058800002D36FF0850009E063690BB92434E5E7C2
:105890003A463146284698470028F7D1BDE8F883B4
:1058A000A80A0020CC0A0020562602008826020002
:1058B00041190200AB2602002DE9F04705460E46CD
:1058C0001746174CDFF85C80DFF85C9044450ED932
:1058D00016494FF4AE634A46154816F0CAFA154801
:1058E00016F0C7FA4FF4AE61484616F0BBFA4445CD
:1058F00003D36FF08500BDE8F0870F4B62685B6AE9
:105900009A420BD323694BB191782A79914205D100
:105910003A4631462846BDE8F04718472434D5E7D3
:10592000A80A0020CC0A0020562602008826020081
:1059300041190200AB260200443600200822002153
:10594000014817F023BE00BFFF360020F8B505461A
:10595000134C144E144FB4420ED9144940F2BA33CA
:105960003A46134816F085FA124816F082FA40F2C9
:10597000BA31384616F076FAB44201D30020F8BDA9
:105980000023216A207F0439DAB2904201D82434FE
:10599000E1E7013311F83320AA42F5D10120EEE707
:1059A000A80A0020CC0A0020562602008826020001
:1059B00041190200AB2602007FB5074B4FF482511C
:1059C00005930223054804AA049316F02BFF4FF019
:1059D000FF3007B05DF804FBCA260200C00A0200CF
:1059E00090B583B0837800AF3B700379427943EA86
:1059F00002237B80C378384603F003033B710BF02E
:105A00007DF810F1780F3B7829D16C4688B06A4652
:105A100021492248C2E9051303234FF4C45142F837
:105A2000103F16F0FFFEA54638780BF00DF910F187
:105A3000780F29D16C4688B06A463B7818491748D8
:105A4000C2E9051303234FF4C45142F8103F16F086
:105A5000E9FEA5460120134B83F8B90011E00028A8
:105A6000E2D06C4688B06A460F49C2E905130323A9
:105A70000A484FF4C25142F8103F16F0D3FE0020FE
:105A8000A5460C37BD4690BD0028E3D06C4688B0D3
:105A90006A463B780549E8E7EF260200C00A0200A3
:105AA0003627020044360020122702005627020043
:105AB000F0B5C0B283B0430600AF0C46F8711BD1FD
:105AC000FB79234D13F07F0F1FD13CB36E4688B096
:105AD0006A4620492048C2E9051303234FF4C65102
