:020000040000FA
:10000000909A00200580000085D90100D97F00006A
:10001000D97F0000D97F0000D97F0000D97F000080
:10002000000000000000000000000000B97800009F
:10003000D97F00000000000061780000D97F000037
:1000400039790000397900003979000039790000E8
:1000500039790000397900003979000039790000D8
:1000600039790000397900003979000039790000C8
:1000700039790000397900003979000041550100D3
:1000800051550100615501003979000039790000AE
:100090003979000039790000397900003979000098
:1000A0003979000039790000397900003979000088
:1000B0003979000039790000397900003979000078
:1000C0003979000039790000397900003979000068
:1000D0003979000039790000397900003979000058
:1000E0003979000039790000397900003979000048
:1000F0003979000039790000397900003979000038
:100100003979000039790000397900003979000027
:100110003979000039790000397900003979000017
:100120003979000039790000397900003979000007
:1001300039790000397900003979000039790000F7
:1001400039790000397900003979000039790000E7
:100150003979000081F0004102E000BF83F00043E4
:1001600030B54FEA41044FEA430594EA050F08BF52
:1001700090EA020F1FBF54EA000C55EA020C7FEA16
:10018000645C7FEA655C00F0E2804FEA5454D4EB93
:100190005555B8BF6D420CDD2C4480EA020281EA5D
:1001A000030382EA000083EA010180EA020281EA95
:1001B0000303362D88BF30BD11F0004F4FEA0131E7
:1001C0004FF4801C4CEA113102D0404261EB4101F6
:1001D00013F0004F4FEA03334CEA133302D052427C
:1001E00063EB430394EA050F00F0A780A4F1010438
:1001F000D5F1200E0DDB02FA0EFC22FA05F2801872
:1002000041F1000103FA0EF2801843FA05F3594157
:100210000EE0A5F120050EF1200E012A03FA0EFCD6
:1002200028BF4CF0020C43FA05F3C01851EBE37100
:1002300001F0004507D54FF0000EDCF1000C7EEB1D
:1002400000006EEB0101B1F5801F1BD3B1F5001F5B
:100250000CD349085FEA30004FEA3C0C04F101047A
:100260004FEA445212F5800F80F09A80BCF1004FA3
:1002700008BF5FEA500C50F1000041EB045141EA25
:10028000050130BD5FEA4C0C404141EB0101013CEE
:1002900028BFB1F5801FE9D291F0000F04BF0146DD
:1002A0000020B1FA81F308BF2033A3F10B03B3F1AF
:1002B00020020CDA0C3208DD02F1140CC2F10C023F
:1002C00001FA0CF021FA02F10CE002F11402D8BF9D
:1002D000C2F1200C01FA02F120FA0CFCDCBF41EA69
:1002E0000C019040E41AA2BF01EB0451294330BD38
:1002F0006FEA04041F3C1CDA0C340EDC04F1140415
:10030000C4F1200220FA04F001FA02F340EA0300EB
:1003100021FA04F345EA030130BDC4F10C04C4F131
:10032000200220FA02F001FA04F340EA0300294611
:1003300030BD21FA04F0294630BD94F0000F83F45B
:10034000801306BF81F480110134013D4EE77FEA3E
:10035000645C18BF7FEA655C29D094EA050F08BF8A
:1003600090EA020F05D054EA000C04BF194610466B
:1003700030BD91EA030F1EBF0021002030BD5FEAAF
:10038000545C05D14000494128BF41F0004130BDD7
:1003900014F580043CBF01F5801130BD01F000452B
:1003A00045F0FE4141F470014FF0000030BD7FEA9E
:1003B000645C1ABF194610467FEA655C1CBF0B4699
:1003C000024650EA013406BF52EA033591EA030FB0
:1003D00041F4002130BD00BF90F0000F04BF0021A8
:1003E000704730B54FF4806404F132044FF00005DB
:1003F0004FF0000150E700BF90F0000F04BF002154
:10040000704730B54FF4806404F1320410F00045B9
:1004100048BF40424FF000013EE700BF42004FEAB4
:10042000E2014FEA31014FEA02701FBF12F07F4331
:1004300093F07F4F81F06051704732F07F4208BFE8
:10044000704793F07F4F04BF41F40021704730B5EF
:100450004FF4607401F0004521F000411CE700BF3B
:1004600050EA010208BF704730B54FF000050AE0BE
:1004700050EA010208BF704730B511F0004502D5BF
:10048000404261EB41014FF4806404F132045FEAC1
:10049000915C3FF4D8AE4FF003025FEADC0C18BF6A
:1004A00003325FEADC0C18BF033202EBDC02C2F15C
:1004B000200300FA03FC20FA02F001FA03FE40EAEE
:1004C0000E0021FA02F11444BDE600BF70B54FF0F2
:1004D000FF0C4CF4E06C1CEA11541DBF1CEA1355D0
:1004E00094EA0C0F95EA0C0F00F0DEF82C4481EA38
:1004F000030621EA4C5123EA4C5350EA013518BF58
:1005000052EA033541F4801143F4801338D0A0FB44
:1005100002CE4FF00005E1FB02E506F00042E0FBF1
:1005200003E54FF00006E1FB03569CF0000F18BFF7
:100530004EF0010EA4F1FF04B6F5007F64F540749F
:1005400004D25FEA4E0E6D4146EB060642EAC62132
:1005500041EA55514FEAC52040EA5E504FEACE2E9F
:10056000B4F1FD0C88BFBCF5E06F1ED8BEF1004FA2
:1005700008BF5FEA500E50F1000041EB045170BD1E
:1005800006F0004646EA010140EA020081EA030162
:10059000B4EB5C04C2BFD4EB0C0541EA045170BD5E
:1005A00041F480114FF0000E013C00F3AB8014F1D8
:1005B000360FDEBF002001F0004170BDC4F1000421
:1005C000203C35DA0C341BDC04F11404C4F12005A2
:1005D00000FA05F320FA04F001FA05F240EA0200FD
:1005E00001F0004221F0004110EBD37021FA04F633
:1005F00042EB06015EEA430E08BF20EAD37070BDED
:10060000C4F10C04C4F1200500FA04F320FA05F04B
:1006100001FA04F240EA020001F0004110EBD3704D
:1006200041F100015EEA430E08BF20EAD37070BDBD
:10063000C4F1200500FA05F24EEA020E20FA04F396
:1006400001FA05F243EA020321FA04F001F0004145
:1006500021FA04F220EA020000EBD3705EEA430EB6
:1006600008BF20EAD37070BD94F0000F0FD101F0E5
:100670000046400041EB010111F4801F08BF013C1E
:10068000F7D041EA060195F0000F18BF704703F05C
:100690000046520043EB030313F4801F08BF013DE3
:1006A000F7D043EA0603704794EA0C0F0CEA13559F
:1006B00018BF95EA0C0F0CD050EA410618BF52EA59
:1006C0004306D1D181EA030101F000414FF000005F
:1006D00070BD50EA410606BF1046194652EA43066D
:1006E00019D094EA0C0F02D150EA013613D195EAE1
:1006F0000C0F05D152EA03361CBF104619460AD129
:1007000081EA030101F0004141F0FE4141F4700132
:100710004FF0000070BD41F0FE4141F4780170BD22
:1007200070B54FF0FF0C4CF4E06C1CEA11541DBF87
:100730001CEA135594EA0C0F95EA0C0F00F0A7F889
:10074000A4EB050481EA030E52EA03354FEA0131B6
:1007500000F088804FEA03334FF0805545EA1313C9
:1007600043EA12634FEA022245EA111545EA106591
:100770004FEA00260EF000419D4208BF964244F128
:10078000FD0404F5407402D25B084FEA3202B61A47
:1007900065EB03055B084FEA32024FF480104FF41B
:1007A000002CB6EB020E75EB030E22BFB61A75468F
:1007B00040EA0C005B084FEA3202B6EB020E75EB22
:1007C000030E22BFB61A754640EA5C005B084FEA8A
:1007D0003202B6EB020E75EB030E22BFB61A754657
:1007E00040EA9C005B084FEA3202B6EB020E75EB62
:1007F000030E22BFB61A754640EADC0055EA060E23
:1008000018D04FEA051545EA16754FEA06164FEA65
:10081000C30343EA52734FEAC2025FEA1C1CC0D111
:1008200011F4801F0BD141EA00014FF000004FF09E
:10083000004CB6E711F4801F04BF01430020B4F15F
:10084000FD0C88BFBCF5E06F3FF6AFAEB5EB030C17
:1008500004BFB6EB020C5FEA500C50F1000041EB14
:10086000045170BD0EF0004E4EEA113114EB5C04E1
:10087000C2BFD4EB0C0541EA045170BD41F48011B4
:100880004FF0000E013C90E645EA060E8DE60CEABC
:10089000135594EA0C0F08BF95EA0C0F3FF43BAFD9
:1008A00094EA0C0F0AD150EA01347FF434AF95EA90
:1008B0000C0F7FF425AF104619462CE795EA0C0F74
:1008C00006D152EA03353FF4FDAE1046194622E741
:1008D00050EA410618BF52EA43067FF4C5AE50EA1B
:1008E00041047FF40DAF52EA43057FF4EBAE12E70B
:1008F0004A0011D212F5001211D20DD56FF478739F
:10090000B3EB62520ED44FEAC12343F0004343EAF3
:10091000505323FA02F070474FF00000704750EA3E
:10092000013002D14FF0FF3070474FF000007047A8
:1009300053B94AB9002908BF00281CBF4FF0FF3146
:100940004FF0FF3000F00CB8ADF1080C6DE904CEAB
:1009500000F008F8DDF804E0DDE9022304B0704798
:10096000704700BF2DE9F04F07468C460846099EA8
:1009700015463C461946002B40F0C5808242B2FA2B
:1009800082F746D94FB1C7F1200E00FA07F3BD40F8
:1009900024FA0EFEBC404EEA030C4FEA15481FFA3B
:1009A00085FE220CBCFBF8F908FB19C309FB0EFA03
:1009B00042EA03439A4528D9EB1809F1FF3004D2E3
:1009C0009A4502D9A9F102002B44A3EB0A03A4B271
:1009D000B3FBF8F208FB123302FB0EFE44EA0344B9
:1009E000A64514D92C1902F1FF3303D2A64501D92B
:1009F000931E2C44A4EB0E0443EA00401EB1FC40BD
:100A0000002334607360BDE8F08F4846DDE713468D
:100A1000F0E702B9FFDE87BB831A01214FEA154ECA
:100A2000AAB2200CB3FBFEFC0EFB1C330CFB02F83D
:100A300040EA0343984562D9EB180CF1FF3004D229
:100A4000984502D9ACF102002B44A3EB0803A4B2F1
:100A5000B3FBFEFC0EFB1C330CFB02F244EA034426
:100A6000A2424ED92C190CF1FF3304D2A24202D972
:100A7000ACF102032C44A41ABEE7C7F1200CBD4020
:100A800000FA07F320FA0CF84FEA154E24FA0CFC92
:100A9000BC404CEA0302ABB2B8FBFEFC110C0EFBEF
:100AA0001C800CFB03F941EA0040814523D928183A
:100AB0000CF1FF3104D2814502D9ACF10201284486
:100AC000A0EB090092B2B0FBFEFC0EFB1C000CFB7D
:100AD00003F842EA004398450FD9EB180CF1FF32B6
:100AE00004D2984502D9ACF102022B44A3EB0803CF
:100AF00042EA014192E76146E2E76246F6E7604674
:100B0000A3E76346B7E7834205D90EB1C6E9007093
:100B10000021084677E7B3FA83F181B9834201D314
:100B2000BA420AD8BC1A60EB030301209C46002E8F
:100B300067D0C6E9004C002165E70846F7E7C1F138
:100B4000200C8B4002FA01F522FA0CF420FA0CFB7F
:100B500027FA0CF28F401C4300FA01F34FEA1449C4
:100B600013431FFA84FE1A0CBBFBF9F809FB18BBF0
:100B700008FB0EFA42EA0B4292453ED9A21808F150
:100B8000FF3004D2924502D9A8F102002244A2EB20
:100B90000A029BB2B2FBF9F809FB182208FB0EFE11
:100BA00043EA024296452AD9A21808F1FF3304D23B
:100BB000964502D9A8F10203224443EA0040A2EB81
:100BC0000E02A0FB05939A42CE46984602D306D168
:100BD0004F4504D20138B9EB050E63EB040886B12A
:100BE000B7EB0E0362EB080707FA0CFCCB40CF40D3
:100BF0004CEA0303C6E900379DE74046C7E7434692
:100C0000DBE73146FFE6000008B5044801F070F963
:100C1000BDE80840024801F06BB900BFAAAA2080D5
:100C2000FF00218008B5044801F062F9BDE80840E2
:100C3000024801F05DB900BF000020800000218063
:100C4000014610B50446012000F0FEFC002241F2EE
:100C50008C01044B03EB4410853403EB44144254E1
:100C6000A26010BDD00B00202DE9F8430125032917
:100C700005FA00F580460E461746284CADB213D053
:100C800004291FD0B4F8883001299BB21FD12B430F
:100C9000A4F88830B4F888004FF0030980B21AF045
:100CA00093FFFFB9BDE8F883B4F88A309BB223EA1A
:100CB0000503A4F88A30B4F88A00B14680B21AF06D
:100CC00089FFEEE7B4F88A309BB22B43F1E723EAC1
:100CD0000503A4F88830B4F8880080B21AF074FFD5
:100CE0005FB1B14601F000F901F002F941F28C0365
:100CF0000B4800EB481808F80390022ED2D1B4F844
:100D00008A309BB223EA0505A4F88A50B4F88A0019
:100D1000BDE8F84380B21AF05DBF00BFD01B0020D1
:100D2000D00B0020F8B541F28C03374D0C4605EB93
:100D30004110C35C00AF83B96D4688B06A46334941
:100D4000C2E90514032142F8101F4FF4C251304884
:100D500004F034F8AD46BD46F8BD022B16D101F1C2
:100D6000850305EB4315AB681BB90846FFF768FF21
:100D7000F1E7012341F29C028258184600F078FC0A
:100D8000012211462046FFF76FFFE4E7032B13D142
:100D900001F1850300F5855005EB43150268D5E99F
:100DA000013098424FF0010308BF093A184600F09D
:100DB0005FFC01220421E5E7042BCCD141F29C0326
:100DC00050F803C000F585531E6841F29003C258E5
:100DD00001F1850305EB4315AB686644013B921BAB
:100DE000AB6003B13AB101232146184600F040FC44
:100DF00001220221C6E701236246184600F038FCB2
:100E000001220321BEE700BFD00B0020781B0200A7
:100E1000541002002DE9F041284D00F1850305EB47
:100E200043139E68044600AFA6BB5A6805EB441501
:100E30009A6041F298036030EB5C0004DFF8808038
:100E400000F47F00184340EA080001F051F841F235
:100E5000940304F14000EB5C000400F47F001843AD
:100E600040EA080001F044F8324603212046FFF72B
:100E7000FBFE41F29C03EA5801232146093A184639
:100E800000F0F6FB012220461146FFF7EDFEBD46BD
:100E9000BDE8F0816D4688B06B460A4ADE61C3E961
:100EA00005201A46042342F8103F00234FF4035153
:100EB000054803F083FFAD46E9E700BFD00B0020F3
:100EC000008000A0C71B02005410020010B50D4C9A
:100ED00000212246012000F021FC01212246084683
:100EE00000F01CFC22460221012000F017FC2246E3
:100EF0000321012000F012FCBDE81040012000F0A9
:100F00007BBB00BF250D00007FB5064B4FF482511F
:100F100005930223044804AA04931AF061FE07B063
:100F20005DF804FB081C020084100200F8B500AF55
:100F30008AB06C461D460D4B084616466361FFF7A6
:100F40005BFA00220A4BFFF7C1FAFFF7D1FC2246F9
:100F50000523C4E9060625624FF42351054842F8EB
:100F6000103F1AF03DFEBD46F8BD00BF301C020028
:100F70000000F43F84100200B0B500AF8AB06A46AA
:100F8000CB880D88536206234C8888880649C2E9BD
:100F90000740C2E9051505484FF4435142F8103F98
:100FA0001AF01EFEBD46B0BD711C02008410020086
:100FB00070B503788AB004460E4607AD032B20D8DF
:100FC000DFE803F002191B1D114928461CF087FDBC
:100FD00063781E210493A37830460393E3780D4A87
:100FE000029323790595019363790093A3791AF00D
:100FF00093FF0AB070BD0849E7E70849E5E70849EB
:10100000E3E70A212846074A1AF086FFE0E700BF17
:10101000B31C0200D51C0200BA1C0200C11C020055
:10102000CB1C0200EB540200F0B506460C46002132
:1010300093B000AF1546381D1A2239601CF0B4FD7C
:1010400030461DF0CFF83946FFF7B2FF6E4688B044
:101050006A46114B4FF4D651C2E905370223137784
:101060000E4B0F4842F8103F1AF0BAFD0D4BB54633
:101070001B6813B12946204698472822002107F112
:1010800020001CF091FD084B07F1200118680AF0C0
:10109000BFFF4C37BD46F0BDF81C02000300000145
:1010A000841002006C2D002078350020B0B588B087
:1010B00000AF0C461DF096F83946FFF779FF6D46F4
:1010C0008AB06A46134BD461C2E90537022382F81D
:1010D0002030114B114C12484FF40B5142F8103F85
:1010E0001AF07EFD2068AD4618B10AF01DFC002301
:1010F00023600C4C206830B10AF016FC002301205C
:1011000023601EF091FC0022074B203783F80A2849
:10111000BD46B0BD0F1D020004000001682D002077
:1011200084100200783500206C2D0020F0B58FB0BF
:10113000054600AF89B16C4688B06A46284B2948FD
:10114000C2E9053103234FF4C25142F8103F1AF0AF
:1011500047FDA5463C37BD46F0BD07F118061DF01A
:1011600041F83146FFF724FF6C4688B06A461E4BB3
:101170004FF4D651C2E9053602261C4B16771948A2
:1011800042F8103F1AF02CFD2846A5461CF0C6FF79
:10119000174D286001201EF044FC164928681DF0F8
:1011A0005BF890B188B06A46134B4FF4C251C2E964
:1011B000053003230B4842F8103F1AF011FDA546F5
:1011C0000E4928681DF010F8C4E70D4B4FF4865106
:1011D000044807F11002C7E904631AF001FDEFE7C4
:1011E0002C1D020084100200471D020003000001B4
:1011F00078350020E4040020541D0200EC04002097
:10120000811D020080B50B7800AF042B96BF0F4AFA
:101210000F4852F823004B788AB0042B96BF0B4A34
:101220000B4B52F823306A46D36140F2023309492E
:101230001384094BC2E905104FF41351074842F8D3
:10124000103F1AF0CDFCBD4680BD00BFC8110200A2
:10125000A81D0200B01D020004000002841002005C
:10126000074A08B50346106840B18AB2194605F02E
:101270005FFF18B1BDE80840FFF746BE08BD00BFDC
:101280007835002030B5B1F5006F05460C4687B0C3
:1012900009D9084B4FF4825105930223064804AA4A
:1012A00004931AF09DFC2146284607B0BDE8304063
:1012B000FFF7D6BFD61D020084100200B0B5264B42
:1012C00088B002AF7B6102230446244D4FF486515F
:1012D000234807F110023B611AF082FC40F60C0231
:1012E000002128461CF060FC1E480AF0FFFD04B1F6
:1012F0002C60002009F00AF808B11AF074FC1BF009
:10130000EFFD194805F008FF88B16C46174B88B00F
:1013100002AAC2E9053003234FF4C251104842F833
:10132000103F1AF05DFCA5461837BD46B0BD3C46DF
:101330000F4D0FCD0FC42B680222236001233846C6
:1013400000930C490C4B09F039FD0028ECD06C4699
:1013500088B00A4B02AADCE7301E02006C2D002088
:1013600084100200600100207C010020471E020062
:1013700060110200DC110200EC1102007B1E020071
:10138000F0B51A4B1A4C87B01A4A63601A4B00AF7B
:10139000C7E900234FF020614FF07F430025C7E9E4
:1013A00002134FF002130126C7E904352A462B46E3
:1013B0003946201D267213F0C1FC104B984212D002
:1013C0006C4688B06A460E4BC2E90530032342F8EA
:1013D000103F4FF4C2512B460A4803F0EFFCA546DC
:1013E0001C37BD46F0BD2670FAE700BF00A00050D4
:1013F0007C35002008090A0B0007FF000000AD0B38
:10140000F61E02008C100200014B1878704700BFD6
:101410007C350020B0B584B000AFC7E90001C7E952
:101420000223394600220E4813F02EFE0D4B0446CF
:10143000984213D06D4688B06A460B4BC2E905301E
:10144000032342F8103F00234FF4C251074803F032
:10145000B5FCAD4620461037BD46B0BD0024F9E7C7
:10146000803500200000AD0B181F02008C10020018
:101470000246002935D0087830211A4BB2F5A67FF4
:1014800001FB0033D96A01F10101D9621DD009D8ED
:10149000B2F5A27F11D0B2F5A47F12D0B2F5A07F31
:1014A00007D07047B2F5A87F13D0B2F5AA7F14D049
:1014B00070475B69ABB1002118479B698BB1012173
:1014C000FAE7DB696BB10221F6E71B6A4BB1032136
:1014D000F2E75B6A2BB10421EEE79B6A0BB10521B1
:1014E000EAE77047883500202DE9F04F85B00020ED
:1014F00000AF10F039F8002852D135481AF0FFFC3F
:1015000000220F20114606F03FF90022102011465C
:1015100006F03AF900221120114606F035F92D4C5B
:101520002D4B002523604FF4C063A3802B4BDFF8C5
:10153000B090236340F20163DFF8A880A386012204
:10154000072300264FF0030A227204F11002E26022
:1015500020464A4604F108016672E37284F80AA044
:10156000257413F081FE40450ED0EB4688B06A46E4
:101570001D4BC2E9053542F810AF4FF4C251334656
:101580001A4803F01BFCDD46204613F027FF2046D7
:1015900013F048FF3034CDB11437BD46BDE8F08FAD
:1015A00000237B60FB6001233946BB6001F09CFC9B
:1015B000011E03DA0E481AF0A2FCA1E7BB689B07E4
:1015C000FCD1F96800299BD00A48F4E70125B6E769
:1015D000451F02008835002000F000500000015037
:1015E000711400000000AD0BA01F0200C410020027
:1015F000661F0200801F0200012808B508D8064BAC
:1016000000EB400003EB001013F0C2FE002008BD09
:101610004FF0FF30FBE700BF88350020012810B5F0
:101620000CD8084C00EB400004EB0014204613F0EB
:10163000D5FE204613F0F6FE002010BD4FF0FF301F
:10164000FBE700BF88350020034B00EB400003EBB5
:10165000001013F03DBF00BF88350020034B00EBA6
:101660004000052103EB001013F0FCBE883500207C
:1016700001282DE9F7430546894614461F4640D800
:10168000FFF7ECFF05EB45051F4B2A0103EB0515A2
:101690009B588046D3F81065230FF6B2C6F120019F
:1016A000A6F1200203FA01F123FA02F2F3404FEA15
:1016B000041424FA06F444EA010444EA02040BD0B8
:1016C0001249134840F20F33124A1AF0E0FE40F27A
:1016D0000F3110481AF0D4FE012308EB04023FB189
:1016E000494628461EF0B1FA002003B0BDE8F08359
:1016F0000093094B4946284653F829301EF0BBFA9F
:10170000F2E74FF0FF30F0E788350020EB1F0200D2
:1017100001200200B71F0200F411020001289FBF40
:101720000C2303FB0011044800EB81019ABF4A61BE
:1017300000204FF0FF30704788350020F0B58BB0A7
:1017400006780446731E082B0D4600AF17D82022DA
:101750000021381D1CF028FA2A462146381D3E601B
:101760007D621CF016FA0022002339460D4816F05F
:10177000D9FC0D4817F050F92C37BD46F0BD6C462A
:1017800088B06A4643780949D3610423C2E9051643
:1017900042F8103F00234FF40151054803F00EFBBF
:1017A000A546E9E7C4070020F8070020262002002C
:1017B0008C0F0200F0B5FDB0214800AFFFF77EFDB1
:1017C000204D214C4FF0FF334FF0FF32284607F1F8
:1017D000F80116F04FFD97F8F830012B1FD1F322D6
:1017E0000021381D1CF0E0F9B7F8FA30B7F8FC20FA
:1017F000A7F80530237807F1FE01F81D3B711CF0B6
:10180000C8F9B7F8FC10381D0331FFF73BFD23780A
:10181000FF2B0EBF00230133DBB22370D2E76E46ED
:1018200088B06A460949C2E90513032342F8103F0C
:1018300000234FF4C451064803F0C0FAB546C1E78F
:10184000FDBB010090070020325100205020020013
:101850008C0F0200044A1078FF280EBF0023431C9F
:10186000DBB21370704700BF3251002010B51C4826
:101870001AF045FB1B4B1C4A1C491D481AF03FFB44
:101880000021012012F0D0FA11F094FF044628B193
:10189000BDE81040014617481AF031BBFFF724FE9F
:1018A000FFF76EFD0121204611F0B0FF00214FF43B
:1018B000203018F05BFE00F0BDFB014638B14FF45C
:1018C000C030002118F052FE204602F01DFC11F03D
:1018D0009DFF00214FF4803018F048FEF9E700BF6B
:1018E00087200200A5200200AE200200BA200200DC
:1018F000C2200200F120020038B5124D95F8703078
:10190000D3B100F02DFAB8B10024B5F872302341FC
:10191000DB0704D5E0B21AF023FA00F0E9FA01344B
:10192000102CF2D10024084D55F8040B28B100F01A
:10193000DFFA0134102CF7D138BD012CF9DC00F0AE
:10194000CFFAF4E7D00B0020F80B00202DE9F04788
:1019500090B000AF00F09CFADFF8B882AE4E0022E3
:101960000023404607F1180116F084FC044618B124
:101970004037BD46BDE8F087BB695A1E082A00F211
:101980003881DFE812F01E007000360109003601D0
:10199000840043005C0014016D4688B06A46B7F8C5
:1019A0001D409E4B4FF4C651C2E9053403239C48A9
:1019B00042F8103F1AF026F99A4BAD46A3F8724050
:1019C000CDE76D4688B06A464FF47A74D7F81D307B
:1019D0009549B4FBF3F4C2E905130423D4614FF431
:1019E000035142F8103F8E481AF00CF9AD468D4D68
:1019F00000202C60FFF712FE00232A6819461846C3
:101A0000FFF736FE0020FFF7F7FDA8E700F0A8F982
:101A100028B11AF000F9014684481AF07AF9844B8B
:101A200007F110027B6102234FF486517C483B6131
:101A30001AF0E8F801227B4B83F870208FE77D4B8A
:101A40004FF486517B610223754807F110023B6118
:101A50001AF0D8F800237348DC2180F87030743015
:101A60001AF057F97BE76D4688B06A46B7F81D4013
:101A7000714B4FF4C651C2E905340323684842F85C
:101A8000103F1AF0BFF8AD46A6F8864067E70E2271
:101A9000002138461CF088F80E2207F11D01384657
:101AA0001CF077F8E94688B06C464FF0030A2546EB
:101AB0003B88624A4FF4C651C4E9052345F810AF8C
:101AC0002A4657481AF09EF85D4A7B89CD46C4E9FC
:101AD0000523A5462A464FF4C6515148C4F810A024
:101AE0001AF090F8574A7B88CD46C4E90523A546ED
:101AF0002A464FF4C6514A48C4F810A01AF082F89A
:101B0000514ABB88CD46C4E90523A5462A464FF471
:101B1000C6514348C4F810A01AF074F84B4AFB8829
:101B2000CD46C4E90523A5462A464FF4C6513C4894
:101B3000C4F810A01AF066F8454A3B89CD46C4E9BE
:101B40000523A5462A464FF4C6513548C4F810A0CF
:101B50001AF058F83F4ABB89CD46C4E90523A5468B
:101B60002A464FF4C6512E48C4F810A01AF04AF87D
:101B700041F2900039882B4A7C8902EB41131C50BA
:101B800041F298007C8885311C5041F29400BC8859
:101B900002EB41121C50FC8803F58550046041F2B1
:101BA0009C003C89CD461C50BB895360D7E6E94672
:101BB00088B06A46B7F81D50274B4FF4C651C2E9AA
:101BC00005350323164842F8103F1AF01BF8CD469E
:101BD00045FA04F3DA0708D5B6F886309BB22341FC
:101BE000DB0702D5E0B2FFF715F90134042CEFD181
:101BF000B5E66C4688B06A4618490948C2E905133B
:101C000003234FF4C25142F8103F19F0FBFFA546E1
:101C1000A5E600BFC4070020D01B0020152102004C
:101C20003C100200D00B00203C210200440C00209C
:101C30008021020095210200AB210200D321020085
:101C4000F6210200012202000D22020019220200E8
:101C500027220200352202004722020065220200EC
:101C6000F0B52B4D87B02B79002B45D0294815F0C6
:101C700001FD0446436887681B6806691B010ED492
:101C800025494FF43573254A25481AF000FC2548AC
:101C90001AF0FDFB4FF4357120481AF0F1FB336860
:101CA0004FF4202223F0006333601B213B68204661
:101CB000984700211C4A0846FFF730FD00232A6898
:101CC00019461846FFF7D4FC0020FFF795FC174C87
:101CD000174D184E4FF0FF324FF0FF33204616F0ED
:101CE000DFFE78B102234FF48251304604AA0595F5
:101CF000049319F087FFEDE700214FF4004018F03E
:101D000035FCB0E7FFF722FE00F042F8E2E700BF43
:101D1000D00B002080220200B8220200872202009D
:101D200001200200F62202000BBC0100F80700208F
:101D3000082302003C1002007FB5074B05930223E5
:101D4000049300234FF48251044804AA03F036F8A8
:101D500007B05DF804FB00BF3E2302004410020000
:101D6000074BB3F872200023184642FA03F1C90763
:101D700003F1010348BF0130102BF6D1704700BFBB
:101D8000D00B0020014819F0B1BF00BF440C002067
:101D90002DE9F04FC1B0FFF7E3FF044638B3FFF77A
:101DA000F1FF431C054622D0F020630090FBF3F0C6
:101DB000F3224443002103A81BF0F6FE40F604037F
:101DC00040F20248DFF884904FEA440B03FB05938E
:101DD000B3F8747808FB05F34FF00008BFB2019325
:101DE0004745BA4606DC2946194819F072FF41B04A
:101DF000BDE8F08F0021F32203A81BF0D5FEB9F84F
:101E00007220A7EB0806ADF80D20FFF723FD019B1C
:101E1000A64203F13A0141448DF80C0009EB41015F
:101E20000DDD5A460DF10F001BF0B3FE5E4608EBC8
:101E3000040AF11C03A8FFF725FAD046D0E7760084
:101E400032460DF10F001BF0A4FEF2E7D00B00208C
:101E5000440C002038B501460A4819F0F8FE431C2E
:101E6000044603D1BDE83840FFF766BF064D95F83C
:101E700084305BB2834204D0044816F0CDFD85F86F
:101E8000844038BD440C0020D01B0020F8070020FF
:101E900000231946034A0133102B42F8041BFAD1E0
:101EA000704700BFF80B0020024A1368013313602B
:101EB000704700BFEC35002010B4084C030E63716E
:101EC000030CA371030AE3710423207204F10902D5
:101ED000601D194610BCFFF79DBA00BFD00B002053
:101EE000004870470000FFD0004870470000FFE046
:101EF0002DE9F04782B0DFF81CA100AFDAF800301E
:101F000005460133CAF80030FFF7D6FF002103462B
:101F1000796098B16C4688B06A463F4BC2E9053596
:101F2000032342F8103F3D480B464FF4C25102F0E4
:101F300045FFA5460837BD46BDE8F087384AD2E9D7
:101F40000646B6F1FF3F08BFB4F1FF3FD2E904896E
:101F5000C2E90846C2E90689C2E90450EAD0D2F8CB
:101F6000095004F040412DBAB1F1004F7D6031D0ED
:101F7000B1F1404F12D000293AD1C4F3054404F224
:101F8000AA4302EB83035D60B2F8723043FA04F4B3
:101F9000E307CFD5280CFFF75DFFCBE7214A94423A
:101FA000C8D1202DC6D0E8468AB06A46DAF80010BB
:101FB0001D4851620621C2E90504C2E9076542F8DD
:101FC000101F4FF44251154802F0F8FEC546FFF7C6
:101FD0006BFFAFE72946204619F0B5FE03460028FF
:101FE000A8D1E8468AB06A46DAF800100F48E0E760
:101FF000E8468AB06A460E49C2E90765C2E9051497
:10200000052142F8101F4FF42351044802F0D6FE78
:10201000C5468FE7E83500207A2302004C10020005
:10202000D00B00200000FFE09D230200C923020026
:1020300003240200F0B587B0FFF7E6F908B9FFF70F
:102040009FF90025554C564E294641F2F022204674
:1020500035601BF0A9FD4FF47A734FF0FF32236017
:102060004FF0FF33DC2104F17400C4E90423C4E918
:102070000623C4E90823A4F8725019F04AFE49481F
:10208000FFF736FFFEF7CEFD4748FFF731FF4FF071
:10209000D440FFF72DFF002140F6CD4018F066FA3E
:1020A0004248FFF725FF4248FFF722FF4148FFF76C
:1020B0001FFF4148FFF71CFF4048FFF719FF40484A
:1020C000FFF716FF3F48FFF713FF3F48FFF710FFEA
:1020D0003E48FFF70DFF3E48FFF70AFF3D48FFF778
:1020E00007FF3D48FFF704FF3C48FFF701FF3C486E
:1020F000FFF7FEFE3B48FFF7FBFE284619F064FDA4
:10210000284619F067FD3848FFF7F2FE3748FFF719
:10211000EFFE4FF48005364F45EA070005F58035A0
:10212000FFF7E6FEB5F5A00FF6D14FF4C00545EA7E
:10213000070005F58035FFF7DBFEB5F5E00FF6D1BA
:102140000125FEF761FD2B48FFF7D2FE1548FFF78A
:10215000CFFE1448FFF7CCFEFEF7B8FE33682571BA
:10216000002B4FF002030CDD234ACDE90432234853
:1021700000234FF4845104AA02F020FE284607B041
:10218000F0BD1F4ACDE904321C4800234FF48651AC
:1021900004AA02F013FE0020F1E700BFD00B0020DC
:1021A000EC3500200000FFC0FFFF268028040080DF
:1021B0001A05018040000280800003805E010480D7
:1021C000AB010580103E06800A000780FFFF0880F3
:1021D00000000AA0FFFF0CA0E2002280AA002380DA
:1021E00080002480004F258000002EA0000030A039
:1021F000008000A00000FFD0242402004C10020048
:102200004B2402002DE9F04F8DB01F46029202F0E0
:102210000403C2F3C2020193531C820705460E4613
:10222000DDF85890049340F05882041D002840F0D7
:10223000578201F00706341DC6F108064FF0000A68
:102240004FF00408524651467B1ECDF80CA0CDF845
:10225000008005B127600498002807DCCB4887423E
:10226000C0F04881CA48874280F04481029810F04B
:10227000020E00F064814FF0010C601BBEF1000FF4
:1022800000F03E81B0F5007FC0F03A81C1494FF4C3
:10229000F873C14AC1481AF0FAF8C1481AF0F7F8C1
:1022A0004FF4F871BC481AF0EBF86FF01500FBE042
:1022B00041B9252840F0478101214FF00408CDF8AD
:1022C000008040E12B2825D81F2801D800213AE1C1
:1022D000A0F1200CBCF10B0FF8D80FF2080E5EF83D
:1022E0002CF000BF47250000CD220000CD220000C9
:1022F00047250000CD220000CD220000CD220000A5
:10230000CD220000CD220000CD220000C324000019
:1023100047250000A0F12D0C5FFA8CFEBEF14D0F99
:10232000D4D8BCF14D0FD1D80FF2040E5EF82CF0CA
:102330004725000047250000CD220000472500006A
:1023400047250000472500004725000047250000DD
:1023500047250000472500004725000047250000CD
:1023600047250000CD220000CD220000CD22000034
:10237000CD220000CD220000CD220000CD220000A1
:1023800087240000CD220000CD220000CD220000D5
:10239000872400008724000087240000CD2200004D
:1023A000CD220000CD220000CD22000047250000F4
:1023B000CD220000CD220000CD220000CD22000061
:1023C000CD220000CD220000CD220000CD22000051
:1023D000CD220000CD220000CD22000069240000A3
:1023E000CD220000CD220000CD220000CD22000031
:1023F000CD220000CD220000CD220000CD22000021
:1024000087240000CD220000692400006924000018
:10241000872400008724000087240000472500004F
:1024200069240000B7240000CD22000047250000E9
:10243000CD220000BD24000069240000BD2400005E
:10244000CD220000CD220000BD240000BB220000F0
:1024500069240000CD220000CD2200006924000084
:10246000CD220000BB22000013F8011C6C2927D1EB
:1024700013F8021C6C294FF0000138D04FF004080B
:10248000CDF800801DE009F1070929F0070907349C
:1024900024F00704F9E802015DB1DDF814E0A64478
:1024A000B64504D96FF01B000DB0BDE8F08FC4E94C
:1024B0000001002108344FF0080800E70021DDE7A3
:1024C0000021013C4444C8F1000C04EA0C0435B17D
:1024D000DDF800C0ACEB050CA444B445E2D8732889
:1024E00070D1049859F8047B01380490B1E64FF09C
:1024F0000808C5E702984FF0000C00F0020EBCE699
:102500000F2A0CD9234940F2F513234A234819F026
:10251000BEFF244819F0BBFF40F2F511C2E675B3C7
:102520000DF1300EC0F387009644BCF1000F20D0AF
:1025300060F07F000EF8100C0AF1010A0132C5F1BB
:1025400008000434059013F8010F00287FF4B0AEA2
:10255000611BB1F5806F5FD30E4940F23D230E4AF7
:102560000E4819F094FF104819F091FF40F23D21F8
:1025700098E60EF8100C039801300390DEE7BCF1EA
:10258000000F01D1019888B10136D7E71C0B02007A
:102590006C7F0200FD5E0200762402000120020032
:1025A000A4240200C5240200F42402003846CDE928
:1025B000063205911BF0AFFADDE9063202360599C5
:1025C0000644BBE70098042808D109F1040C15B1B2
:1025D000D9F800002060E1460434B4E700980828E8
:1025E0000CD109F1070020F0070000F108091DB126
:1025F000D0E900BCC4E900BC0834A4E740F23123B0
:10260000394A3A493A4819F042FF0099394819F0D5
:102610003EFF40F2312145E61DB9A6F108046018DD
:1026200042E7019B8908286029709DF80C10A3B12E
:102630006870E97085F802A0BAF1000F06D04FF07B
:10264000000C08A8C5F1010E62450AD10DF1200861
:1026500008EB0209C5F1010B39E0019B6970EB70D1
:10266000E8E710F8011B0B0608D504EB0E08B0458F
:1026700001F07F013FF616AF04F8011B0CF1010CCD
:10268000E2E7BAF1000F03D098F90020002A1CDB22
:10269000019B03BB98F8002055F8227045F82230C2
:1026A00038461BF038FA421C04EB0B011144B142CE
:1026B0003FF6F8AE98F80010009204F8011B20468F
:1026C00039461BF066FA009A144408F10108C14526
:1026D000D7D1601BE8E60022E6E76FF00D00E3E6E5
:1026E00007293FF6ABADDDE676240200FD5E020071
:1026F00001200200DF2402002DE9F04F8BB00F46CD
:1027000014460646DDF850B00493002840F0598185
:10271000AE49AF4840F2D623AE4A19F0B8FE40F2B7
:10272000D621AC4819F0ACFEB7B1B57805958DBB94
:10273000AA46F378019313B11BF0020F2DD1BAF121
:10274000000F2AD124B13A46314620461BF021FA27
:1027500038460BB0BDE8F08F9F499D48C2239D4A83
:1027600019F095FEC2219B4819F08AFE4FF0000A2D
:102770003078B57896F8019005EB80053544D14561
:10278000D3D9013528461BF0C6F9013005440AF1BA
:10279000010AF4E70BF0010ACBE796F800904FEA44
:1027A0008903039306EB8909002C5BD1BAF1000F72
:1027B00032D04D444D451DD1A9464D46DDF804A00B
:1027C000DFF818C286490BF00508CA440BF0020274
:1027D000AA45BDD015F8010B56F82000604524D35A
:1027E000884222D21BF0010F39D1B8F1000FEFD18E
:1027F000013FEDE719F8013B56F823001BF08BF978
:10280000159B013033B1169B9C423EBF159B23F8AC
:10281000140001340744CDE72DB11BF00404CCD0E3
:102820005446A944C9E72C46C7E7002AD0D04FF048
:10283000000901921BF06FF9159BDFF8A0C1019A06
:102840006749013033B1169B9C423EBF159B23F86C
:10285000140001340744B9F1000FB9D0C5E74FF0B7
:102860000109E6E731462046039A1BF092F9039BE3
:10287000E3180293BAF1000F0AD049462A4606A887
:102880001BF087F90023A944A370DDF808800DE050
:10289000BDB11BF0040F14D02A46494602981BF024
:1028A00078F9029BA94403EB05085546019B0BF000
:1028B000020E0BF001004A4603EB090C0BF0040B6F
:1028C00025E00025A570E0E712F8013BDFF80CA138
:1028D00056F82310514503D3DFF804A1514505D321
:1028E000BEF1000F03D108F8013B10E038B10DF143
:1028F000280A691C554405F8103CCDB207E0BBF12D
:10290000000F04D008F8013BA3780133A37094456D
:10291000DAD16378019A2B446370029B4046A8EB9E
:10292000030BA378ABEB030B059B84F803B01344B4
:10293000FF1A039BFF1A019B3A4609EB0301B844B7
:102940001BF027F9A8EB0400002D3FF402AF049B15
:102950001C1AA54202D36FF01B00FAE64FF00009E3
:1029600006AB13F80930159A56F82310C2B132F8A5
:102970001970C24604F1FF3B0AF8013B97B13A4691
:1029800050461BF006F909F101094D45ABEB070470
:102990000AEB0708E4DC049B1F44A7EB0B00D8E616
:1029A000159FE6E7012301399C42D4D011F8012F8D
:1029B000581C08F8032012B91F1EE4DACBE70346BF
:1029C000F2E700297FF4B1AED0E600BF0B2502008C
:1029D00001200200762402000E2502001C0B0200DA
:1029E0006C7F020030B50A4C0A44914200D130BDE0
:1029F00011F8013B58400309E35C83EA0013DDB2A0
:102A0000C3F30313E05C80EA0510C0B2EDE700BF3A
:102A100026250200436870B503F00303022B044629
:102A20000E46816010D0032B04D0012B0FD100255E
:102A3000284601E0056800200023636010B131469C
:102A400018F052FE284670BD00250068F4E74523C3
:102A5000054A0649064819F01AFD4521024819F0B1
:102A60000FFD0025E7E700BF36250200FD5E0200EE
:102A700001200200014B1860704700BF8801002050
:102A800030B5002585B0CDE90101044601A905480E
:102A9000039500F019FDDDE902309842B8BF2554D6
:102AA00005B030BDD5BE01002DE9F74FB0F81C9040
:102AB000044619F0080F009222D001290CBF49F0FA
:102AC000100949F02009A0F81C901434204615F094
:102AD000D3FA68B9B9239B4A9B499C4819F0D7FCA3
:102AE00021469B4819F0D3FCB921964819F0C8FC3F
:102AF000009B83F31188BFF36F8F03B0BDE8F08FA5
:102B0000944FDFF8488209F00709022906D12046D0
:102B100019F029FA0028D8D0012864D1D4F818B0C7
:102B2000A38BBBF1000F19DA0026256823F00703F9
:102B3000C4E9006643F00103A383A38B03F00702FB
:102B40004A45019203D0A268002A40F0138115B9CA
:102B5000002E00F059814FF0000A0DE103F007024A
:102B6000511F012920D8002123F00703062A2568D8
:102B70009BB2C4E900110AD13DB12946E28B096834
:102B8000013292B20029FAD1E28343F002032046D7
:102B9000A38319F0E8F906460028CED0A38B43F0B2
:102BA0002003A3830026C8E7042A0DD123F00703DE
:102BB0009AB22046A28319F0D6F9054688B142F0B0
:102BC00020020025A283EDE740F21B133A4640465F
:102BD000614919F05CFC40F21B11384619F050FCB9
:102BE00000252E46A9E7032834D1B9F1000F0BD0F8
:102BF00040465A494FF4AB733A4619F048FC4FF43B
:102C0000AB71384619F03CFC23685BB94046544927
:102C100040F257133A4619F03AFC40F25711384641
:102C200019F02EFC23691E685EB940464D494FF4E9
:102C3000AD733A4619F02BFC4FF4AD71384619F0DC
:102C40001FFCA38B23F0070343F006030025A38397
:102C5000AB4672E7042831D1B9F1020F0BD04046E0
:102C6000414940F25D133A4619F011FC40F25D1102
:102C7000384619F005FCE38B5BB140463B494FF405
:102C8000AF733A4619F003FC4FF4AF71384619F0B0
:102C9000F7FB23695E685EB94046324940F2611332
:102CA0003A4619F0F4FB40F26111384619F0E8FB9E
:102CB000A38B23F0070343F00403C7E7052831D1B2
:102CC000B9F1010F0BD0404629494FF4B2733A468F
:102CD00019F0DDFB4FF4B271384619F0D1FB2368CF
:102CE0005BB940461E4940F265133A4619F0CFFBE6
:102CF00040F26511384619F0C3FB23699E685EB93E
:102D0000404618494FF4B4733A4619F0C0FB4FF4EB
:102D1000B471384619F0B4FBA38B23F0070343F0DA
:102D2000050393E7002540F26B133A4640460A49F3
:102D300019F0ADFB40F26B11384619F0A1FB2E469D
:102D400086E700BFFC2502002926020001200200C0
:102D50004026020059250200FD5E02007B2502008C
:102D600087250200AA250200C1250200D7250200FE
:102D7000E62502004FF0010A43F0080304F11409AC
:102D80004846A38315F078F968B9B9234046374A15
:102D9000374919F07CFB4946364819F078FBB921D0
:102DA000324819F06DFB009B83F31188BFF36F8FDE
:102DB000BAF1000F37D1002D47D116B120462E4968
:102DC000B0474FF02003EFF3118B83F31288BFF36A
:102DD0006F8F4846CDF800B015F040F968B98E23E2
:102DE0004046224A254919F052FB4946244819F029
:102DF0004EFB8E211D4819F043FB484615F04AF959
:102E0000A38B23F00803A383A38BDA0625D5012126
:102E100023F01003A383B4F81C9009F007090029DC
:102E20007FF473AE51E6A1680029C4D0D1F800A0A8
:102E30004B6820469C46019A5B46E047BAF1000F7A
:102E4000B9D05146DAF800A0F2E729465B462046A1
:102E5000019A2D6819F0A3F8ADE713F020011EBF09
:102E600023F020030221A383D5E700BFFC25020045
:102E70002926020040260200852E00005526020069
:102E80006A260200F8B504460D4600F114064FF01C
:102E90002003EFF3118783F31288BFF36F8F30465F
:102EA00015F0DCF868B98E230B4A0C490C4819F070
:102EB000EEFA31460B4819F0EAFA8E21064819F06D
:102EC000DFFA304615F0E6F83A462046A5610121C2
:102ED000BDE8F840FFF7E8BDFC25020055260200DA
:102EE000012002006A2602002DE9F04704460F4641
:102EF00019F06BF8051E5EDB04F114094FF0200396
:102F0000EFF3118A83F31288BFF36F8F484615F0F1
:102F1000A5F868B98E23384A3849394819F0B7FA04
:102F20004946384819F0B3FA8E21334819F0A8FA07
:102F3000484615F0AFF84FF6FF71E38BA28B8B423A
:102F400002F0070650D0022E24D135464FF001087A
:102F50000133E383484615F08FF868B9B923264A50
:102F60002949274819F093FA4946284819F08FFA59
:102F7000B921214819F084FA8AF31188BFF36F8FC1
:102F8000B8F1000F17D0002332463946204619F019
:102F900006F810E0930701D0062E0FD100233B6006
:102FA0006368F3B9C4E900773546FEB95246022199
:102FB0002046FFF779FD2846BDE8F087052E18D09A
:102FC000012E0BD012490E4840F2C913114A19F0D4
:102FD0005EFA40F2C9110F4819F052FA6FF0040579
:102FE00004E01F606760DFE76FF00A054FF000083C
:102FF000B0E76FF08505F9E7FC25020055260200D1
:10300000012002006A260200292602004026020052
:10301000E62502005925020070B5044600F11405AA
:103020004FF02003EFF3118683F31288BFF36F8F05
:10303000284615F013F868B98E23274A27492848EF
:1030400019F025FA2946274819F021FA8E2122483D
:1030500019F016FA284615F01DF8A38B03F00703A4
:10306000022B1CD0012B0CBF6FF004046FF0850401
:10307000284615F001F868B9B923174A1A491848C3
:1030800019F005FA2946194819F001FAB921124830
:1030900019F0F6F986F31188BFF36F8F18E0E38B10
:1030A0005BB913490E484FF4F873124A19F0EFF95F
:1030B0004FF4F8710F4819F0E3F9E38B013B9BB231
:1030C000E3833BB9204632460221FFF7EDFC0224A0
:1030D000204670BD0224CBE7FC25020055260200E5
:1030E000012002006A260200292602004026020072
:1030F00082260200592502002DE9F0410F460546BF
:10310000002853D0002951D000F114064FF02003BD
:10311000EFF3118883F31288BFF36F8F304614F0FA
:103120009DFF68B98E23234A2349244819F0AFF93B
:103130003146234819F0ABF98E211E4819F0A0F949
:10314000304614F0A7FF39462846AC8B18F0F1FE44
:1031500048B304F00704231F022B0BD91949174861
:1031600040F22E23184A19F092F940F22E21164807
:1031700019F086F9304614F07FFF68B9B9230D4A7B
:1031800012490E4819F083F93146114819F07FF9B8
:10319000B921084819F074F988F31188BFF36F8FCB
:1031A0002046BDE8F0816FF07704E3E76FF0150487
:1031B000F6E700BFFC2502005526020001200200B0
:1031C0006A260200902602005925020029260200E4
:1031D00040260200F8B50F4600293ED006680122BD
:1031E000304618F056FF01460446304618F019FFE5
:1031F000C3070DD4AC23194A19491A4819F047F9E5
:103200003946194819F043F9AC21144819F038F936
:103210002146304618F01BFF25182946002230466B
:1032200018F0FFFE2D1AAC420DD0B4230B4A0F4903
:103230000C4819F02CF939460D4819F028F9B42139
:10324000064819F01DF921463046002218F005FF06
:103250002146BDE8F84019F043B8F8BD0727020041
:1032600028270200012002003927020071270200EE
:10327000972702002DE9F04706681446B3684A42D2
:10328000B3F5004F2CBF0825042502EA010731EAF7
:1032900002021ED0BD4228BF3D46B946CF1B07F1F2
:1032A000FF3A1AEA070F0ED034494FF4A073344A9C
:1032B000344819F0ECF8344819F0E9F84FF4A071EB
:1032C0002F4819F0DDF874B94FF000094846BDE801
:1032D000F087A94204D82146BDE8F04719F042B86A
:1032E0004FF00009DBE7B068B0EBD40FECD9391927
:1032F000491B18F0D8FE0146304618F02FFF8046D3
:103300000028E1D0B36809EBC005B3F5004F2CBF2E
:10331000082304231D44354455447F422F40A7EB26
:1033200009094946304618F0B4FE4C44073424F0ED
:103330000704A41B804507464FEAE40408D202466E
:103340004146304618F044FF4146304618F085FFAC
:103350003946304618F07BFE3844844208D239465C
:103360003046224618F034FF2146304618F075FFEB
:1033700001223946304618F070FEA7E7D327020035
:103380000727020001200200EE270200B2F5802F7D
:10339000F8B507460D46164612D2042A0ED84449FF
:1033A0004FF4F573434A444819F071F8434819F053
:1033B0006EF84FF4F5713F4819F062F8042200E00E
:1033C0000822B61AEC1D354424F0070425F0070541
:1033D0002D1B172D4FEAD5060ED8394940F2F313AD
:1033E000344A354819F053F8344819F050F840F28F
:1033F000F311304819F044F800233C603146E36093
:103400003046A66018F058FE012185000746304678
:1034100018F049FE1B35ED082B18B3420ED9294987
:103420004FF40173234A244819F031F8234819F066
:103430002EF84FF401711F4819F022F800231946A5
:1034400004F110029F422EDA2A462046002118F08D
:103450001CFE002320461A46194618F0EDFD771B86
:1034600019462046012218F0F8FD3A46294618F080
:103470000CFE2B4600222946204618F0DDFD314681
:10348000204618F002FE3B4631462046002218F046
:10349000D3FD31462046012218F0DFFD2946BDE864
:1034A000F84018F0DABE42F8041B0133CAE700BF47
:1034B0000B28020007270200012002002C2802002E
:1034C000452802006E2802002DE9F04F8B469246F7
:1034D0001C46002591B002909AF8000008B92846D1
:1034E0005FE325280AF1010707D05946029B984758
:1034F0000028C0F25683013512E2182200210AA8E2
:103500001AF052FB9AF80130252B78D00022104691
:10351000964694461646394617F8013B2B2B00F089
:103520009D8000F29480202B00F09B80232B00F0E4
:103530009B802EB19DF8306046F004068DF8306017
:10354000BCF1000F05D09DF8306046F008068DF8FC
:103550003060BEF1000F05D09DF8306046F01006D7
:103560008DF8306028B19DF8300040F020008DF8D3
:1035700030002AB19DF8302042F040028DF8302012
:103580009DF8302002F04400442803D16FF38612E6
:103590008DF830209DF830202A2B42F080028DF8E3
:1035A00030207BD19DF831204B1C42F001028DF878
:1035B00031201A782E2A0CBF012100219DF83120DC
:1035C00061F341028DF8312074D15A782A2A6AD0E9
:1035D00000210A260133184610F8012BA2F130070A
:1035E000092F40F28E809DF830200E91C2F34000EA
:1035F00040EAD17161F341028DF830205AE00AF1BE
:1036000002078DF833309DF83130D90740F14981F8
:1036100054F8049BB9F1000F07DA9DF83020C9F186
:10362000000942F004028DF830205A0740F142812F
:1036300054F8048BB8F1000F80F241819DF83130CD
:103640006FF341038DF831304FF0FF3837E12D2B08
:103650000CD0302B7FF46DAF01225CE74FF0010CF2
:1036600059E74FF0010E56E7012054E7012652E7D3
:1036700033460CFB0202303A1E4616F8010BA0F14D
:103680003007092FF4D9994293D09DF830100D924C
:10369000D20F62F341018DF830108AE70B46002209
:1036A0004FF00A0CE8E79DF83120023342F00402A3
:1036B0008DF831201F4617F8012B6C2A41D025D8F0
:1036C000682A2BD06A2A46D04C2A4CD01F4617F8BD
:1036D000012B9DF83130782A8DF8332000F2D98003
:1036E000572A4DD8412A03D0453A022A00F2D18008
:1036F00004229DF8323062F302038DF83230012348
:103700009EE006FB01210346303964E7742A26D087
:103710007A2ADBD106229DF831300DE05A78682AEA
:103720009DF8312006D1012161F3C6028DF83120C8
:103730009F1CCCE71346022262F3C6038DF831309A
:10374000C5E75A786C2A9DF8312001D10421EBE7B6
:1037500013460322F0E705229DF83130ECE70722FB
:103760009DF83130E8E7BDF8303023F4F04323F022
:10377000020343F4804343F00203ADF83030A6E780
:10378000A2F15801202900F2848001A050F821F014
:10379000553800009338000093380000933800003B
:1037A00093380000933800009338000093380000ED
:1037B00093380000F13600009338000055380000BF
:1037C00015380000F1360000F1360000F136000037
:1037D000933800001538000093380000933800003B
:1037E00093380000933800005D3800005538000021
:1037F00079380000933800009338000079380000D1
:1038000093380000553800009338000093380000CA
:103810005538000001209DF8321003F0780360F362
:103820000201402B8DF8321002BF9DF8301041F09C
:1038300001018DF83010632A31D1003B18BF0123FC
:103840009DF83020C2F340010B4363F341028DF831
:103850003020D8E602209DF83210DEE703219DF8E3
:10386000322003F07803A3F1400061F302024342E7
:103870008DF832204341E3E703219DF8322013F015
:10388000780F61F3020214BF012300238DF8322068
:10389000D6E79DF8303043F001038DF83030002337
:1038A000CEE79DF93020002AACBF4FF0FF39DDF89C
:1038B0003490BAE69B077FF5C7AEDDF83880002369
:1038C000CDE90D339DF832309DF8311003F0070338
:1038D000012BC1F3C30138D1CB1E042B22D8DFE862
:1038E00003F003090921210054F8043BDA17CDE95C
:1038F0000A3206E0073424F00704F4E80223CDE995
:103900000A239DF8303013F0030656D03B4652464A
:103910005946029818F09EFD0028C0F242810544E5
:10392000BA46D9E554F8043B01294FEAE372CDE9E0
:103930000A3205D19DF828300A9300230B93E0E763
:103940000229DED1BDF92830D0E7022B23D1CB1ECE
:10395000042B13D8DFE803F0030A0A121200002335
:103960002268201D0A920B930446CAE7E01D20F04E
:103970000700F0E80223CDE90A23F5E754F8043BF9
:1039800001290A934FF000030B93D3D00229B8D139
:10399000BDF82830D0E7042B09D1E31D23F007033D
:1039A00003F10804D3E90023CDE90A23A9E7032B97
:1039B00004BF54F8043B0A93A3E79DF8330078282A
:1039C000AED8622822D825283FF48FAD5828A7D139
:1039D000DDE90A010DF1260300930CAA04AB18F0EF
:1039E000F3FC8246B8F1000F0DF126000CDB9DF8C8
:1039F0003020A0EB0A036FF3861298458DF8302033
:103A000002D9A8EB03030D9380463DE063381528E7
:103A100086D801A252F820F0993A0000FD3A000041
:103A2000213900002139000021390000213900002E
:103A3000FD3A000021390000213900002139000041
:103A400021390000573B0000253B0000293B0000C6
:103A50002139000021390000713A000021390000AD
:103A6000253B00002139000021390000253B0000E2
:103A7000B8F1000FDDF828A00ADB414650461AF0E5
:103A800051F800260AEB0008BAF1000F0CD147E705
:103A900050461AF040F8F4E700260A9B0DF1100A90
:103AA0008DF810300DF11108A8EB0A0306B10133AF
:103AB0009DF83220D00668D5023352060D9948BFD2
:103AC0000E9A0B4448BF9B18B9F1000F76DD9DF8A4
:103AD0003020A9EB0309C2F38003039353076DD48D
:103AE000500661D546B159463046029B984700289A
:103AF00057DB039B01351E46302356E01E070FD4CB
:103B000013F0100618BF2026DDE90A23002BBFF6AC
:103B10005FAF524263EB43032D26CDE90A2357E7FB
:103B20002B26F1E7002653E70A9840B30DF1260350
:103B30000093002104AB0CAA18F046FCBDF832300B
:103B4000824603F0EF0343F4F04343F010030026F2
:103B5000ADF8323046E70A9B07293FF6E1AEDFE8D1
:103B600001F00C04060C08080C0C1D70D8E61D8032
:103B7000D6E6EA17C3E90052D2E61D60D0E6DFF8C8
:103B8000C8A006460AF105088EE7110748BF0133B1
:103B900093E7184603935946029B98470028039BD6
:103BA00004DA11B0BDE8F08F20234D444A46002AC4
:103BB000A5EB090109F1FF39EBDC0D4636B1594699
:103BC0003046029B98470028EBDB01359DF83230E8
:103BD000D90601D41A0706D559463020029B9847CA
:103BE0000028DEDB01359DF83230DB0607D559466B
:103BF0009DF83300029B98470028D2DB01350D9ECB
:103C00002E44731B002B16DC43465246594602983D
:103C100018F020FC0028C4DB0544A944A9EB0503E7
:103C2000002B7FF77DAE59462020029B9847002845
:103C3000B7DB0135F2E759463020029B9847002850
:103C4000AFDB0135DDE700BF9928020038B50D462E
:103C500004462022002119F0A7FFEB686A68E3619F
:103C6000AB68A3612B68626223620023A3622B69A5
:103C700022B1511E114208BF43F00103236101220A
:103C8000002104F12C001CF0A9FD58B12E23064997
:103C90000648074A18F0FBFBBDE838402E210448CF
:103CA00018F0EEBB38BD00BFC5280200012002009D
:103CB0009F2802002DE9F04F87B0CDE90223436A27
:103CC0000446013B8B428B46C0F0BF800027BA46BA
:103CD000DFF88481DFF8849104F114064FF02003AB
:103CE000EFF3118283F31288BFF36F8F3046019296
:103CF000009214F0B3F968B98E23424648465849F9
:103D000018F0C5FB3146574818F0C1FB8E214046DC
:103D100018F0B6FB304614F0BDF905A9204618F09E
:103D2000C3FB05990546594534D32168236A2046CB
:103D300013F8212003EB810A22F0030203F821206B
:103D40005A4618F0D7FB00252060304614F094F94D
:103D500068B9B92342464846434918F098FB3146B2
:103D6000424818F094FBB921404618F089FB009BAB
:103D700083F31188BFF36F8F002D68D0002FABD075
:103D80009DF81330002BA7D039462046A3699847E9
:103D90000027A1E718B1204618F0BAFBD5E7DDE906
:103DA0000232134343D01CF0C8FC00283FD13046F8
:103DB00014F062F968B9B923424648462A4918F016
:103DC00066FB3146294818F062FBB921404618F0DD
:103DD00057FB019B83F31188BFF36F8F04F12C0015
:103DE000DDE9022314F05CFE05464FF02002EFF3FC
:103DF000118382F31288BFF36F8F3046009314F063
:103E00002DF968B98E2342464846154918F03FFB04
:103E10003146144818F03BFB8E21404618F030FB29
:103E2000B5FA85F5304614F035F96D098DE722694C
:103E3000204605990DF11303C2F3400218F08FFBE1
:103E4000051E074618BF01257FE74FF0000A5046C0
:103E500007B0BDE8F08F00BFFC2502000120020082
:103E6000552602006A26020029260200402602008A
:103E70002DE9F041C369044608460E46984704F10F
:103E8000140507464FF02003EFF3118883F31288DF
:103E9000BFF36F8F284614F0E1F868B98E231A4AF1
:103EA0001A491B4818F0F3FA29461A4818F0EFFA95
:103EB0008E21154818F0E4FA284614F0EBF8337810
:103EC0003A4643F0010333706168204618F012FB54
:103ED0006060204618F032FB284614F0CDF868B92F
:103EE000B923094A0C490A4818F0D1FA29460B4867
:103EF00018F0CDFAB921044818F0C2FA88F31188F5
:103F0000BFF36F8FBDE8F081FC250200552602004B
:103F1000012002006A260200292602004026020033
:103F20002DE9F74F05463C4FDFF8F0A0DFF8F080B1
:103F300005F114064FF02003EFF3118983F3128883
:103F4000BFF36F8F304614F089F868B98E233A4674
:103F50005146404618F09BFA3146324818F097FA1D
:103F60008E21384618F08CFA304614F093F8D5E9D3
:103F70000141A14288BF6C6A641AFCB1286A10F83A
:103F8000213000EB810B13F0030417D0022C03D176
:103F900050F82140A40816D1DC07EA6910D543F097
:103FA000020300F8213058460191904701990246DA
:103FB000284618F09FFA0024A86011E0A3460FE0FD
:103FC0005846904704462246A968284618F092FAB7
:103FD0002246E968A860284618F08CFA0124E860B7
:103FE000304614F049F868B9B9233A4640460E49BC
:103FF00018F04DFA31460D4818F049FAB921384603
:1040000018F03EFA89F31188BFF36F8F002C8FD11F
:10401000584603B0BDE8F08FFC250200552602008B
:10402000012002006A260200292602004026020022
:104030002DE9F041C369044608460D46984704F14E
:10404000140607464FF02003EFF3118883F312881C
:10405000BFF36F8F304614F001F868B98E23244AFD
:104060002449254818F013FA3146244818F00FFA6D
:104070008E211F4818F004FA304614F00BF82B7804
:104080006FF300032B7023699B0705D5E268236A51
:1040900003EB82039D4225D12B783A466FF341030F
:1040A0002B70E168204618F025FAE060304613F0E6
:1040B000E3FF68B9B9230E4A11490F4818F0E7F930
:1040C0003146104818F0E3F9B921094818F0D8F939
:1040D00088F31188BFF36F8F04F12C00BDE8F04125
:1040E00014F09ABC2B6867F39F032B60DEE700BFD8
:1040F000FC25020055260200012002006A2602006B
:10410000292602004026020008B54FF02002EFF3F6
:10411000118382F31288BFF36F8F03F0A3FF03486C
:1041200017F0EDFE03F080FAFCE700BFCE28020096
:104130004FF0FF33C340DB0710B504460BD40C49E6
:104140000C4840F229230C4A18F0A1F940F2292129
:10415000094818F095F9094800EB8400D0F80032BE
:1041600023F0E04343F04053C0F8003210BD00BFDD
:104170002A29020001200200F728020000258450AD
:1041800070B54FF02003EFF3118683F31288BFF36D
:104190006F8F01240C4B0D4DC3F800450223002006
:1041A000C5F8D036FFF7C4FF2046FFF7C1FFC5F8BA
:1041B0000447C5F80449C5F8004B86F31188BFF3DE
:1041C0006F8F002070BD00BF0010005000400050F5
:1041D00048B1054B1A68054BB2FBF3F2044B504350
:1041E00043F0010318477047C403002040420F000A
:1041F000C0110200062807D10122044BC3F8002594
:10420000BFF34F8F20BFFDE7704700BF0040005055
:104210000F2AF8B506460D4614461F460BD920490D
:10422000204840F2E713204A18F031F940F2E71134
:104230001D4818F025F928460EF0A2FDA4000546F9
:1042400004F5C074B7B158B91849164840F24E2366
:10425000174A18F01CF940F24E21154818F010F9D1
:1042600004F1A04346F0004603F52833C5F880600A
:104270001E60F8BD58B90D490A4840F263230C4A44
:1042800018F005F940F26321094818F0F9F8002206
:1042900004F1A04303F52833C5F880201A60E8E74D
:1042A000832902000120020051290200C6290200D0
:1042B0008E290200F0B583B000AF381D0FF098FED4
:1042C000244B984242D10EF047FF041E13DA38798E
:1042D0000FF094FE6D4688B06A461F4BC2E9053464
:1042E000032342F8103F00234FF4C2511B4800F053
:1042F00065FDAD4626E040F60703194D7C71AE68BA
:10430000FB8074687B683CB108212846154AA047A9
:10431000041EDFDB336913B96FF05704DAE70122BB
:10432000082128469847041ED4DB012338790E4A19
:1043300003FA00F1C2F80415FA797979FFF768FFFA
:10434000002CC7D120460C37BD46F0BD6FF01204DB
:10435000C0E700BF0000AD0BCA290200BC1002007C
:10436000940C02002544000000700150F8B5069C32
:10437000C4F30745E7B2C4F3072420460EF0E4FC7B
:104380000F2D06460BD91D491D4840F2E1131D4A69
:1043900018F07DF840F2E1111A4818F071F8AD00FC
:1043A000EDB25EB9184916484FF41773174A18F062
:1043B0006EF84FF41771154818F062F80022144B8C
:1043C000C6F880205A510123124ABB40C2F8083572
:1043D00020460EF0DFFE38460FF010FE0E4B9842DE
:1043E0000BD075230D4906480D4A18F050F8BDE86A
:1043F000F84075210A4818F043B8F8BD8329020037
:104400000120020051290200F22902008E29020037
:1044100080A00250007001500000AD0B2D2A020058
:10442000F62902002DE9F743144683681B69002B27
:1044300050D12B492B48CB232B4A18F028F8CB21FD
:10444000294818F01DF8C4F3072738460EF0B8FCC9
:104450005FFA84F900233946220E06464846FFF7E4
:10446000D7FE38460EF070FCC4F307450F2D80468A
:104470000BD91E491B4840F2E1131D4A18F007F8FA
:1044800040F2E1111A4817F0FBFF1A4BAD00EDB2F4
:104490002B4449F000451D60B8F1000F0BD11649BF
:1044A00010484FF41273154A17F0F1FF4FF41271D0
:1044B000124817F0E5FF124B06F13202C8F880509F
:1044C000384600930194002352000EF055FD03B0CE
:1044D000BDE8F083002298470028B4D0A9E700BFC8
:1044E000C528020001200200F629020083290200EB
:1044F0005129020080A00250F22902008E290200F8
:104500006D43000030B5002289B00F490F481CF000
:1045100032FA002200230024CDE906234FF0FF33B6
:104520000B4DCDE903344FF440722846CDE90144E8
:10453000084B0949009413F0B9FC084928461CF0BF
:1045400002F9204609B030BD61450000C0220020BC
:10455000F822002089470000007200204A2A020049
:10456000014814F059BA00BF28080020014B53F845
:10457000200070470C12020070B5174B174CE41A5C
:10458000902C0BD91649174840F27323164A17F09E
:104590007EFF40F27321144817F072FF134BD3E8EB
:1045A000EF6F721CC3E8E12F0029F8D11EB9251165
:1045B000094CAE4200DB70BD237B53B123689B697D
:1045C0000BB120469847636804222046196800F022
:1045D000A1F901361034ECE70411020014110200B5
:1045E000972A020001200200522A0200F83500201A
:1045F00010B5044C237813B9034814F00DFA0123C5
:10460000237010BD3351002028080020084BD3E848
:10461000EF2F0132C3E8E12F0029F8D138B1054B63
:10462000D3E8EF2F013AC3E8E12F0029F8D1704712
:10463000F4350020F035002000200246034BD3E87B
:10464000EF0FC3E8E12F0029F9D17047F4350020BE
:10465000F8B5FFF7F1FF002607460A4C0A4D2D1B5F
:104660002D11AE4200DBF8BD204617F0F5FF28B152
:1046700023681B6913B13946204698470136103428
:10468000EFE700BF041102001411020001490248C3
:10469000FFF7DCBA18120200FC35002008B5002331
:1046A000074A4FF400401370064A1360064B074A4E
:1046B0001A6000F06BFBBDE80840FFF7E7BF00BFE2
:1046C00034510020F43500208C0100205FC6010029
:1046D0000146002200230148FFF7ECBAFC35002018
:1046E0000148FFF71DBC00BFFC3500200146014812
:1046F000FFF79EBCFC350020014817F08ABF00BFC1
:10470000FC3500201B4B2DE9F0411B78054603B911
:1047100070B317F0B9FF064618B16DB13046FFF718
:10472000E5FF2DB9144B1B68002B01DDFFF790FF4F
:10473000BDE8F041FFF7E0BF104BD3E8EF2F013A9F
:10474000C3E8E12F0029F8D1A8460D4C0D4F3F1BBF
:104750003F11B845E2DA204617F07EFF20B123680A
:10476000314620461B68984708F101081034F0E7ED
:10477000BDE8F08133510020F4350020F0350020F1
:104780000411020014110200164B174A10B59B1AAF
:10479000002B0BDC1549164840F23B53154A17F025
:1047A00076FE40F23B51134817F06AFEFFF7E4FE35
:1047B00015F014FF104B186030B1104B1B68092B1B
:1047C00002DD0F4814F028F90D4C0020FFF79AFF86
:1047D0000028FAD14FF0FF324FF0FF33204614F09B
:1047E0005FF9F2E71411020004110200BB2A020073
:1047F00001200200522A020040360020F03500203D
:104800002808002013B51B4BD3E8EF2F511CC3E839
:10481000E01F0028F8D1184B1B7883B14FF020031C
:10482000EFF3118483F31288BFF36F8F0020FFF73B
:1048300069FF84F31188BFF36F8F02B010BD0F4B77
:104840001B68002BF9D052B9002200230C48CDE997
:1048500000234FF40042002316F0A6FBEDE70A2ADE
:10486000EBD107481CF093F8064802B0BDE81040B1
:1048700014F0D2B8F035002034510020403600202A
:10488000C022002028080020064B10B51B680446F3
:1048900098472146A0600448FFF7EAFABDE81040B7
:1048A000FFF7B0BF8C010020FC350020F8B50F4F9A
:1048B0003D7875B9FFF760FE0D4C0E4E361B361174
:1048C000B54207DB0020FFF71DFF0028FAD10123C6
:1048D0003B70F8BD204617F0BFFE18B12368204694
:1048E0005B69984701351034EAE700BF3451002076
:1048F0000411020014110200044A054B9B1AB1EB8B
:10490000D30F34BF52F83100002070478C0F0200E3
:104910000411020070B503680E4C1B68041B2411BF
:1049200005460E46013463B90B49BB230B4A0C48BC
:1049300017F0ADFD0B4817F0AAFDBB21074817F093
:104940009FFD01226B681C711E605A71BDE87040AA
:10495000FFF74EBE04110200332B0200DB2A0200D7
:1049600001200200492B02000EB403B503AB53F83B
:10497000042B014604480193FEF7A6FD02B05DF842
:1049800004EB03B0704700BFED4B00002DE9F0478A
:104990001D46089B1746DA0604460E4605D49906BE
:1049A0004CBF2A492A49FFF7DFFF4FF00008DFF824
:1049B000A490A8452ADB0025DFF89C80DFF89C90B6
:1049C000DFF890A0BD422FD249462046725DFFF726
:1049D000CBFF0135102D20D120462149FFF7C4FF20
:1049E0000025DFF87080DFF87C90AF4228D9725D37
:1049F0004946A2F120035F2B28BF2E222046FFF755
:104A0000B3FF0135102D14D1BDE8F087494620468B
:104A1000FFF7AAFF08F10108CBE76A07D2D1514698
:104A20002046FFF7A1FFCDE741462046FFF79CFF58
:104A3000CFE76B07D9D141462046FFF795FFD4E772
:104A400041462046FFF790FFDBE700BF9F51020081
:104A5000EE200200A5740200A37402006B2B02007A
:104A6000712B0200732B02002DE9F04F1C4687B01A
:104A700001F001030592074688469DF84090BDF974
:104A800048A001F0020B049301F0080617F000FEA5
:104A90000246002844D038463949FFF765FF0546ED
:104AA000BBF1000F08D018F0440F3BD12246384626
:104AB0003449FFF759FF0544049B53B1324B384644
:104AC00053F82920314B3249002A08BF1A46FFF714
:104AD0004BFF3EB12F4B384653F829202E49FFF7A4
:104AE00043FF0646BAF1000F16DB059B002B45D0AD
:104AF000012303FA09F9294B19F0100F284C18BFAC
:104B00001C4651469DF84400FFF7F6FE214602463A
:104B10003846FFF729FF0644701907B0BDE8F08F4B
:104B20000546BDE71F4B18680028C4D01E4B4FF444
:104B30007A781B684FF46161B4FBF3F4B4FBF0F3D3
:104B400000FB134408FB04F4B3FBF1F2B4FBF0FEEA
:104B50004FF03C0C01FB123100FB1E44B1FBFCF397
:104B600008FB04F4B4FBF0F00CFB1311CDE901E0F9
:104B7000009138460D49FFF7F7FE9CE7084CC0E767
:104B8000842B0200882B02002C120200762B0200DC
:104B90000C1D020040120200AD2B0200802B02000F
:104BA0007B2B02004436002048360020912B020067
:104BB00038B50C46E107054603D5084A0849FFF712
:104BC000D3FEE20608D4A3062846BDE838404CBF11
:104BD00004490549FFF7C8BE38BD00BF762B020067
:104BE0000C1D02009F510200EE20020038B54B68F8
:104BF00005461A68CB680C469A4202D1084617F05F
:104C000056FD6368D3E8EF2F511CC3E8E01F00286E
:104C1000F8D1A3689D5463681A68E3689A4209D979
:104C2000054906488523064A17F031FC85210448CA
:104C300017F026FC002038BDE22B02000120020004
:104C4000B32B02002DE9FF470B88064613F4E07FE3
:104C50000C469046C3F382195BD00A784B68C2F3C6
:104C6000C202002B52D02C495B1A43F3CF03CDE98B
:104C70000123CDF80090002241463046A368FFF79B
:104C8000F3FE8246254655F8103BC3F34923C3B1D2
:104C9000224F23482B46B9F1000F08BF3846324651
:104CA000204917F063F800280BDA1F491F4840F22B
:104CB000B7231F4A17F0EBFB40F2B7211C4817F04F
:104CC000DFFB6788C7F3CB0797B12168C1F34921A0
:104CD0000D44102F3C4628BF102429465346224637
:104CE0003046CDF80080FFF751FE3F1B2544F0D140
:104CF000B9F1000F04D04A4641463046FFF758FF4D
:104D0000304604B0BDE8F04717F0D1BC4FF0FF3398
:104D1000ADE7CA46B6E700BF8C0F0200C9C6010066
:104D2000ED4B0000C9340000122C020001200200EB
:104D3000B32B020042F20F7373B58B4228BF0B46B0
:104D400005680446052168460D4A17F0E5F8064651
:104D5000636828460B225B680A4917F09BFC63686E
:104D60003246694628465B6817F094FC63681B224C
:104D700028465B68044917F08DFC02B070BD00BF87
:104D8000C6230200572C02003B2C02000123002105
:104D9000074A10B5074C1360A04204D801B1136054
:104DA000054B186010BD012140085B00F4E700BF0F
:104DB0004836002040420F00443600202DE9F04FD5
:104DC000C1F3CB45C1F3492681460C4690469A462D
:104DD00089B01735002E3ED002234FF0040B00930C
:104DE000002306AF31461A464046CDF808B0019779
:104DF0000596FDF781FCC0F30903581920F0070060
:104E000080081E4663F352240493FFF761FC0546B5
:104E1000B0B1022300F1100200934046CDE9017BBE
:104E2000049B0599FDF768FC002809DA0D490E4836
:104E300048230E4A17F02BFB48210C4817F020FBA3
:104E400066F35224534622464946284609B0BDE837
:104E5000F04F17F046BC25F007008008FFF738FC3C
:104E60000546EDE7912C020001200200632C0200B0
:104E70002DE9F04F87B00746DDE9104BDDE9126AF6
:104E8000884699460392002E4DD033465A4610214B
:104E90000020CDF800A0CDF814A0FDF7B3F9051E51
:104EA00009DA224922486723224A17F0F0FA6721DB
:104EB000204817F0E5FA039B07F0070703F0070205
:104EC0001D4BFF0047EA821703EA452304F1170050
:104ED0001F432844194B20F0070003EAC44380080D
:104EE0001F43FFF7F5FB0446A0B19EB133465A4677
:104EF0002946CDF800A01030FDF784F9002809DA22
:104F00000A490B4881230B4A17F0C1FA812109484D
:104F100017F0B6FA4B463A464146204607B0BDE880
:104F2000F04F17F0DEBB3546C5E700BF902C0200FE
:104F300001200200632C020000FE07000000F87F41
:104F40000122014B1A70704745510020014B00208F
:104F500019607047543600200122024B02481A7033
:104F600017F0A5BB46510020741202000148FFF75C
:104F7000E1BE00BF74120200064B10B518680C4663
:104F8000FFF7F4FA2146BDE8104003460F2202481D
:104F9000184700BF5436002074120200054B1B78DE
:104FA0001BB141F288301BF0B7BCA420002115F0E2
:104FB000DDBA00BF465100202DE9F04780460F467C
:104FC0000424DFF88890DFF888A099F80050CDB964
:104FD0004FF0FF334FF0FF32504613F0F9F93A46E5
:104FE0004146284612F0A0FA0646504613F0EAFA67
:104FF000184DFEB101232B7099F800306BB938467B
:10500000BDE8F0873A464146002012F08DFA064688
:10501000EEE75CB92C704FF0FF34002012F000FB7B
:105020000028ECD02B78002BF3D1E8E7013CFFF708
:10503000B5FFF2E72B7813B1013C04D12C702B782B
:10504000002BC2D1DBE7FFF7A9FFF8E746510020AC
:1050500054070020455100202DE9F7430F4606462E
:105060000821C06A17F0E6FB80463C68DFF84890EC
:10507000241A3C6004EA0905AC4203D8002003B0BE
:10508000BDE8F08308236A462146304617F044FB0A
:105090000028F4D16946304617F0D6FB40B1BDF880
:1050A0000230BDF8042005EA090513441D443C60A4
:1050B000A4EB0804E0E700BF0000FFFF2DE9F04F7C
:1050C00091B0044600AF00F1140840461BF051FBBC
:1050D000A06A8368DB689847E06288B9984BFB63F5
:1050E0006FF0150502234FF48251964807F13802FC
:1050F000BB6317F091FB28464437BD46BDE8F08FEF
:10510000A06A8368DB6898470368013B1F2B01D9BD
:105110008D4BE4E7A06A216807F11C021AF0BAFA85
:1051200008B18A4BDBE7A5892DB13B6AB5FBF3F2E9
:1051300003FB12550DB1864BD1E7E389012B01D852
:10514000844BCCE7E36ABD6093F804904FF0FF33E3
:105150004FF0FF32404613F03BF90821E06A17F0A8
:1051600069FBAA460646E3891FFA85FB5B454AD8D8
:10517000E389534500F0F4805B450CD1B9680823FE
:105180004A462046891B17F0FFFA20B9E08907F14B
:10519000080117F044FB204607F10801FFF75CFF08
:1051A0000546002840F0DE80BB68DFF8ACA16360F4
:1051B00003EA0A03A360D4E90113994210D3082338
:1051C000204607F10C0217F0A7FAD0B907F10C033B
:1051D00013F8012B914540F01E8101300828F7D1CA
:1051E0006368E0891B0C1B0407F10801BB6017F022
:1051F00016FB4A462046A389B96817F0C5FA00286D
:1052000026DA0546AEE0A1892B04891B13FA81F149
:105210004A4608232046B96017F0B6FA80B1E08903
:1052200007F1080117F0FBFA0AF1010A08234A46C0
:105230002046B9681FFA8AFA17F0A6FA002897D014
:10524000013590E7002B00F0FF806FF01C0589E02E
:1052500051D04FF6FF7963683344BB60B968A389C6
:105260008AB29B1B9A4220D33C4B4FF48651FB637E
:105270000223344807F13802BB6317F0CDFA204609
:10528000616817F0A6FA0028BBD16368324AA18989
:1052900013400B44A3EB4603636013402046A36016
:1052A00017F0C7FB002841D0ABE70823204607F1E1
:1052B000140217F031FA0028A3D1204607F1140197
:1052C00017F0C2FA30B1BB8A4B4503D13B8B002BA0
:1052D00000F08880BB683344BB60BFE74A46204685
:1052E0005B1A17F051FA00288BDB08D0E26AA3683A
:1052F00012681344A360D4E901318B42EED861688F
:10530000A38901EB46029A42CCD1DFF84C90A36806
:1053100001EA09029342C5D0204617F05AFA002844
:105320007FF46FAF636803EA0903A360A089A388D1
:10533000A0EB4606B34215D1204617F065FB60E7A7
:10534000BE2C020034100200E02C0200FD2C0200F2
:10535000152D0200292D02000000FFFF9B2D0200E9
:105360006FF02C05404613F02DF9002D7FF4C3AEED
:10537000E94688B06E460123B0464FF0040AE28940
:1053800033492374A389C6E90512F36148F810AFC5
:1053900042464FF403512F4817F03EFA2E4A6368F5
:1053A00072611A0C9BB2CD464FF40351B5462948A1
:1053B000B261F3614246C6F810A017F02DFA274AF1
:1053C000A36872611A0C9BB2CD46B261B5464246E3
:1053D0004FF403511F48F361C6F810A017F01CFAF0
:1053E000CD4688E61E4B07F13802FB6302234FF4DB
:1053F00086511848BB6317F00FFA6368E0891B0CED
:105400001B0407F10801BB6017F009FA2046B968D0
:1054100017F0DFF946E7204607F10C0117F014FA00
:10542000D4F804B080B1BA683B8AF98902EA0A026A
:10543000A2601944E06A7B6017F0FCF902445A4507
:105440007B68A2603FF4FEAEABEB06036360B2E69E
:105450004C2D020034100200632D0200752D020055
:10546000862D02002DE9F04F1E46037C0446894636
:1054700090468DB07BB9614B6FF00C050B93022306
:105480004FF482515E480AAA0A9317F0C5F92846DC
:105490000DB0BDE8F08FC26A0821104617F0CAF9B6
:1054A00082463146104617F0C5F9A3890746A3EB9B
:1054B0008A03B342C0F09E801EB1B8F1000F00F025
:1054C000998063680393204604AA03A9DDF80CB011
:1054D00017F0F2F905460028D9D1BDF810304B4538
:1054E00005D06268039B9A42EDD1E6B9CFE720462A
:1054F00004A917F0A9F90028F3D0BDF8143086B13B
:10550000B34210D1BDF812004FEA1B410904014417
:1055100033464246204617F00DF9002803DC0546C5
:10552000B5E7002BB3D0A7BB04F1140A4FF0FF324C
:105530004FF0FF33504612F04BFFDFF8C8B0E3895D
:105540009D4254D0D4E90123F9188A4224D3ADF8FE
:105550001A30FF2306A88DF81E30ADF81890ADF86C
:105560001C6017F050F932464146204617F028FAE1
:10557000034638B9204606A917F035FA002814BFAB
:10558000034633460193504613F01CF8019B1D4619
:105590007DE75744BFB2C7E70821E06A17F04AF930
:1055A0004FF6FF73ADF818300023ADF81C30131818
:1055B000ADF81A30A38902EA0B021A44121A62608B
:1055C00006A817F020F906A9204617F00CFAE08982
:1055D000211D17F024F96368204603EA0B03A3603A
:1055E00017F027FA03460028CCD10135A7E76FF062
:1055F0001B03C7E76FF0150549E700BFAA2C02009F
:10560000341002000000FFFF2DE9F0471E46037C26
:1056100088B004460F469046BDF8409073B92C4BB5
:105620002C48079302234FF4825106AA069317F0E1
:10563000F3F86FF00C0008B0BDE8F0870821C06AED
:1056400017F0F8F8A389A3EB4003B3423CD34FF023
:10565000000A63680193204602AA01A9019D17F080
:105660002BF90028E7D1BDF80830BB4208D120460D
:1056700002A917F0E9F818B10AF1010A1FFA8AFA2B
:105680006268019B9A4218D0CA45E4D9BDF80C3033
:10569000BBB1CA4515D3BDF80A102D0CB3424FEA71
:1056A000054528BF334642462046294417F034F8C2
:1056B0000028C0D1BDF80C00BDE7BDF80830BB42E2
:1056C000E4D06FF00100B6E76FF01500B3E700BF5C
:1056D000AA2C0200341002007FB570B9124B134897
:1056E000059302234FF4825104AA049317F061FA40
:1056F0006FF0150007B05DF804FB836863B90C4BCD
:105700000A48059302234FF4825104AA049317F028
:1057100050FA6FF00400EDE71B681BB107B05DF8AD
:1057200004EB18471846E5E7C92D02005C1002009B
:10573000DA2D020010B586B008B101B16AB9134B79
:105740001348059302234FF4825104AA049317F0DF
:1057500030FA6FF0150006B010BD84680CB1A46873
:1057600064B90C4B0A48059302234FF4825104AAF2
:10577000049317F01EFA6FF00400ECE7234641F89B
:10578000040B06B0BDE81040184700BFF82D02001A
:105790005C100200DA2D020030B51346044687B0D3
:1057A00068B9134B1348059302234FF4825104AA9E
:1057B000049317F0FEF96FF0150007B030BD0068D4
:1057C00082680AB1556865B90B4B0A4805930223F4
:1057D0004FF4825104AA049317F0EBF96FF0040020
:1057E000EBE70A46AC46616807B0BDE83040604769
:1057F000242E02005C100200DA2D02000023012298
:1058000013B50446CDE90032074BD0E9091211F077
:1058100073FBA36E1B6823B1E06E02B0BDE81040BD
:10582000184702B010BD00BFA051020008B5042205
:105830000021024818F0B8F9002008BD0000072038
:1058400030B50C460E4985B00291D0F8901105464E
:10585000CDE9003100F1E0014FF0FF33204611F0B7
:1058600071FB50B9012384F86430D5F88C3123B131
:10587000204605B0BDE83040184705B030BD00BF38
:10588000B9CC010070B50C461146064617F0FEF97A
:10589000054610B12060012070BD3046034917F065
:1058A000F5F920600028F7D02846F5E7A05102005E
:1058B0002DE9FF47074601230469416804F5517546
:1058C000D5E8EF2F002A03D1C5E8E03F0028F7D143
:1058D00040F0AE8040F24B428B680120043B934283
:1058E00083BF40F24C42B3FBF2F3B3FA83F30023DD
:1058F00088BFC3F12003013B984004F5D47600F043
:10590000948010224FF008089A4002EB400208FAF7
:1059100003F8093208F1060822F0030242444FF46A
:10592000806808FA03F808EB4208D1F804C0C4F80C
:1059300044824FF480680CF1040E08FA03F37344B8
:10594000C4F838321344C4E98CC33B4BC4F83C025E
:10595000C4E9A11330460968C4F840E200F06EF9CA
:1059600030BBD7F81090D7F8048009F5287AD8E929
:1059700007375046012B08BF103F13F0F9FB0023F7
:10598000D8F824002D494FF4806201EB8021009368
:1059900050463B4613F008FC09F52470284913F0E3
:1059A00007FBD8F8140083685F684FB96FF05700A1
:1059B0000023D5E8EF2FC5E8E13F002932D0F8E712
:1059C0004B46204AD8F81810B8470028F0D1D8F82C
:1059D000140083681B69002BE8D00122D8F8181046
:1059E00098470028E4D1184B2046C4F88C31174B57
:1059F000C4F89031164B0293D4F8F0310193D4F8E7
:105A0000E8310093D4F848223346D4F8401300F02C
:105A1000EDF80028CCD10223D5E8EF2FC5E8E13F0F
:105A20000029F9D104B0BDE8F0876FF00B00BFE7A3
:105A30006FF07700F6E700BF11CD01000075002080
:105A4000C9CC0100BDCC0100FD570000E3CC010032
:105A500051CD01002DE9F3410F461546066906F5C3
:105A60005173D3E8AF3F022B61D1136823B96FF0B4
:105A7000150002B0BDE8F0811B78002BF7D0D6F8F6
:105A80004083B8F1000F35D106F5CA744FF0FF33EB
:105A90004FF0FF32204612F09BFC30462A6801A9E5
:105AA000FFF7F0FE019B1BB9204617F03BF9DEE73C
:105AB00005F108029A666A6983F86480DA66DB6336
:105AC00070B1204617F02EF9019930460B6E2A6806
:105AD000FFF7B6FE019C002CC9D000203C60C8E74F
