:020000040000FA
:10000000309A0020316A0000B97A0100056A0000C8
:10001000056A0000056A0000056A0000056A000024
:1000200000000000000000000000000095630000D8
:10003000056A0000000000003D630000056A000042
:1000400015640000156400001564000015640000CC
:1000500015640000156400001564000015640000BC
:1000600015640000156400001564000015640000AC
:10007000156400001564000015640000F51E010001
:10008000051F0100151F0100156400001564000024
:10009000156400001564000015640000156400007C
:1000A000156400001564000015640000156400006C
:1000B000156400001564000015640000156400005C
:1000C000156400001564000015640000156400004C
:1000D000156400001564000015640000156400003C
:1000E000156400001564000015640000156400002C
:1000F000156400001564000015640000156400001C
:10010000156400001564000015640000156400000B
:1001100015640000156400001564000015640000FB
:1001200015640000156400001564000015640000EB
:1001300015640000156400001564000015640000DB
:1001400015640000156400001564000015640000CB
:100150001564000081F0004102E000BF83F000431D
:1001600030B54FEA41044FEA430594EA050F08BF52
:1001700090EA020F1FBF54EA000C55EA020C7FEA16
:10018000645C7FEA655C00F0E2804FEA5454D4EB93
:100190005555B8BF6D420CDD2C4480EA020281EA5D
:1001A000030382EA000083EA010180EA020281EA95
:1001B0000303362D88BF30BD11F0004F4FEA0131E7
:1001C0004FF4801C4CEA113102D0404261EB4101F6
:1001D00013F0004F4FEA03334CEA133302D052427C
:1001E00063EB430394EA050F00F0A780A4F1010438
:1001F000D5F1200E0DDB02FA0EFC22FA05F2801872
:1002000041F1000103FA0EF2801843FA05F3594157
:100210000EE0A5F120050EF1200E012A03FA0EFCD6
:1002200028BF4CF0020C43FA05F3C01851EBE37100
:1002300001F0004507D54FF0000EDCF1000C7EEB1D
:1002400000006EEB0101B1F5801F1BD3B1F5001F5B
:100250000CD349085FEA30004FEA3C0C04F101047A
:100260004FEA445212F5800F80F09A80BCF1004FA3
:1002700008BF5FEA500C50F1000041EB045141EA25
:10028000050130BD5FEA4C0C404141EB0101013CEE
:1002900028BFB1F5801FE9D291F0000F04BF0146DD
:1002A0000020B1FA81F308BF2033A3F10B03B3F1AF
:1002B00020020CDA0C3208DD02F1140CC2F10C023F
:1002C00001FA0CF021FA02F10CE002F11402D8BF9D
:1002D000C2F1200C01FA02F120FA0CFCDCBF41EA69
:1002E0000C019040E41AA2BF01EB0451294330BD38
:1002F0006FEA04041F3C1CDA0C340EDC04F1140415
:10030000C4F1200220FA04F001FA02F340EA0300EB
:1003100021FA04F345EA030130BDC4F10C04C4F131
:10032000200220FA02F001FA04F340EA0300294611
:1003300030BD21FA04F0294630BD94F0000F83F45B
:10034000801306BF81F480110134013D4EE77FEA3E
:10035000645C18BF7FEA655C29D094EA050F08BF8A
:1003600090EA020F05D054EA000C04BF194610466B
:1003700030BD91EA030F1EBF0021002030BD5FEAAF
:10038000545C05D14000494128BF41F0004130BDD7
:1003900014F580043CBF01F5801130BD01F000452B
:1003A00045F0FE4141F470014FF0000030BD7FEA9E
:1003B000645C1ABF194610467FEA655C1CBF0B4699
:1003C000024650EA013406BF52EA033591EA030FB0
:1003D00041F4002130BD00BF90F0000F04BF0021A8
:1003E000704730B54FF4806404F132044FF00005DB
:1003F0004FF0000150E700BF90F0000F04BF002154
:10040000704730B54FF4806404F1320410F00045B9
:1004100048BF40424FF000013EE700BF42004FEAB4
:10042000E2014FEA31014FEA02701FBF12F07F4331
:1004300093F07F4F81F06051704732F07F4208BFE8
:10044000704793F07F4F04BF41F40021704730B5EF
:100450004FF4607401F0004521F000411CE700BF3B
:1004600050EA010208BF704730B54FF000050AE0BE
:1004700050EA010208BF704730B511F0004502D5BF
:10048000404261EB41014FF4806404F132045FEAC1
:10049000915C3FF4D8AE4FF003025FEADC0C18BF6A
:1004A00003325FEADC0C18BF033202EBDC02C2F15C
:1004B000200300FA03FC20FA02F001FA03FE40EAEE
:1004C0000E0021FA02F11444BDE600BF70B54FF0F2
:1004D000FF0C4CF4E06C1CEA11541DBF1CEA1355D0
:1004E00094EA0C0F95EA0C0F00F0DEF82C4481EA38
:1004F000030621EA4C5123EA4C5350EA013518BF58
:1005000052EA033541F4801143F4801338D0A0FB44
:1005100002CE4FF00005E1FB02E506F00042E0FBF1
:1005200003E54FF00006E1FB03569CF0000F18BFF7
:100530004EF0010EA4F1FF04B6F5007F64F540749F
:1005400004D25FEA4E0E6D4146EB060642EAC62132
:1005500041EA55514FEAC52040EA5E504FEACE2E9F
:10056000B4F1FD0C88BFBCF5E06F1ED8BEF1004FA2
:1005700008BF5FEA500E50F1000041EB045170BD1E
:1005800006F0004646EA010140EA020081EA030162
:10059000B4EB5C04C2BFD4EB0C0541EA045170BD5E
:1005A00041F480114FF0000E013C00F3AB8014F1D8
:1005B000360FDEBF002001F0004170BDC4F1000421
:1005C000203C35DA0C341BDC04F11404C4F12005A2
:1005D00000FA05F320FA04F001FA05F240EA0200FD
:1005E00001F0004221F0004110EBD37021FA04F633
:1005F00042EB06015EEA430E08BF20EAD37070BDED
:10060000C4F10C04C4F1200500FA04F320FA05F04B
:1006100001FA04F240EA020001F0004110EBD3704D
:1006200041F100015EEA430E08BF20EAD37070BDBD
:10063000C4F1200500FA05F24EEA020E20FA04F396
:1006400001FA05F243EA020321FA04F001F0004145
:1006500021FA04F220EA020000EBD3705EEA430EB6
:1006600008BF20EAD37070BD94F0000F0FD101F0E5
:100670000046400041EB010111F4801F08BF013C1E
:10068000F7D041EA060195F0000F18BF704703F05C
:100690000046520043EB030313F4801F08BF013DE3
:1006A000F7D043EA0603704794EA0C0F0CEA13559F
:1006B00018BF95EA0C0F0CD050EA410618BF52EA59
:1006C0004306D1D181EA030101F000414FF000005F
:1006D00070BD50EA410606BF1046194652EA43066D
:1006E00019D094EA0C0F02D150EA013613D195EAE1
:1006F0000C0F05D152EA03361CBF104619460AD129
:1007000081EA030101F0004141F0FE4141F4700132
:100710004FF0000070BD41F0FE4141F4780170BD22
:1007200070B54FF0FF0C4CF4E06C1CEA11541DBF87
:100730001CEA135594EA0C0F95EA0C0F00F0A7F889
:10074000A4EB050481EA030E52EA03354FEA0131B6
:1007500000F088804FEA03334FF0805545EA1313C9
:1007600043EA12634FEA022245EA111545EA106591
:100770004FEA00260EF000419D4208BF964244F128
:10078000FD0404F5407402D25B084FEA3202B61A47
:1007900065EB03055B084FEA32024FF480104FF41B
:1007A000002CB6EB020E75EB030E22BFB61A75468F
:1007B00040EA0C005B084FEA3202B6EB020E75EB22
:1007C000030E22BFB61A754640EA5C005B084FEA8A
:1007D0003202B6EB020E75EB030E22BFB61A754657
:1007E00040EA9C005B084FEA3202B6EB020E75EB62
:1007F000030E22BFB61A754640EADC0055EA060E23
:1008000018D04FEA051545EA16754FEA06164FEA65
:10081000C30343EA52734FEAC2025FEA1C1CC0D111
:1008200011F4801F0BD141EA00014FF000004FF09E
:10083000004CB6E711F4801F04BF01430020B4F15F
:10084000FD0C88BFBCF5E06F3FF6AFAEB5EB030C17
:1008500004BFB6EB020C5FEA500C50F1000041EB14
:10086000045170BD0EF0004E4EEA113114EB5C04E1
:10087000C2BFD4EB0C0541EA045170BD41F48011B4
:100880004FF0000E013C90E645EA060E8DE60CEABC
:10089000135594EA0C0F08BF95EA0C0F3FF43BAFD9
:1008A00094EA0C0F0AD150EA01347FF434AF95EA90
:1008B0000C0F7FF425AF104619462CE795EA0C0F74
:1008C00006D152EA03353FF4FDAE1046194622E741
:1008D00050EA410618BF52EA43067FF4C5AE50EA1B
:1008E00041047FF40DAF52EA43057FF4EBAE12E70B
:1008F0004A0011D212F5001211D20DD56FF478739F
:10090000B3EB62520ED44FEAC12343F0004343EAF3
:10091000505323FA02F070474FF00000704750EA3E
:10092000013002D14FF0FF3070474FF000007047A8
:1009300053B94AB9002908BF00281CBF4FF0FF3146
:100940004FF0FF3000F00CB8ADF1080C6DE904CEAB
:1009500000F008F8DDF804E0DDE9022304B0704798
:10096000704700BF2DE9F04F07468C460846099EA8
:1009700015463C461946002B40F0C5808242B2FA2B
:1009800082F746D94FB1C7F1200E00FA07F3BD40F8
:1009900024FA0EFEBC404EEA030C4FEA15481FFA3B
:1009A00085FE220CBCFBF8F908FB19C309FB0EFA03
:1009B00042EA03439A4528D9EB1809F1FF3004D2E3
:1009C0009A4502D9A9F102002B44A3EB0A03A4B271
:1009D000B3FBF8F208FB123302FB0EFE44EA0344B9
:1009E000A64514D92C1902F1FF3303D2A64501D92B
:1009F000931E2C44A4EB0E0443EA00401EB1FC40BD
:100A0000002334607360BDE8F08F4846DDE713468D
:100A1000F0E702B9FFDE87BB831A01214FEA154ECA
:100A2000AAB2200CB3FBFEFC0EFB1C330CFB02F83D
:100A300040EA0343984562D9EB180CF1FF3004D229
:100A4000984502D9ACF102002B44A3EB0803A4B2F1
:100A5000B3FBFEFC0EFB1C330CFB02F244EA034426
:100A6000A2424ED92C190CF1FF3304D2A24202D972
:100A7000ACF102032C44A41ABEE7C7F1200CBD4020
:100A800000FA07F320FA0CF84FEA154E24FA0CFC92
:100A9000BC404CEA0302ABB2B8FBFEFC110C0EFBEF
:100AA0001C800CFB03F941EA0040814523D928183A
:100AB0000CF1FF3104D2814502D9ACF10201284486
:100AC000A0EB090092B2B0FBFEFC0EFB1C000CFB7D
:100AD00003F842EA004398450FD9EB180CF1FF32B6
:100AE00004D2984502D9ACF102022B44A3EB0803CF
:100AF00042EA014192E76146E2E76246F6E7604674
:100B0000A3E76346B7E7834205D90EB1C6E9007093
:100B10000021084677E7B3FA83F181B9834201D314
:100B2000BA420AD8BC1A60EB030301209C46002E8F
:100B300067D0C6E9004C002165E70846F7E7C1F138
:100B4000200C8B4002FA01F522FA0CF420FA0CFB7F
:100B500027FA0CF28F401C4300FA01F34FEA1449C4
:100B600013431FFA84FE1A0CBBFBF9F809FB18BBF0
:100B700008FB0EFA42EA0B4292453ED9A21808F150
:100B8000FF3004D2924502D9A8F102002244A2EB20
:100B90000A029BB2B2FBF9F809FB182208FB0EFE11
:100BA00043EA024296452AD9A21808F1FF3304D23B
:100BB000964502D9A8F10203224443EA0040A2EB81
:100BC0000E02A0FB05939A42CE46984602D306D168
:100BD0004F4504D20138B9EB050E63EB040886B12A
:100BE000B7EB0E0362EB080707FA0CFCCB40CF40D3
:100BF0004CEA0303C6E900379DE74046C7E7434692
:100C0000DBE73146FFE600007FB5064B4FF482512B
:100C100005930223044804AA049314F065FD07B069
:100C20005DF804FB40CD0100E8C10100F8B500AF5C
:100C30008AB06C461D460D4B084616466361FFF7A9
:100C4000DBFB00220A4BFFF741FCFFF751FE224677
:100C50000523C4E9060625624FF42351054842F8EE
:100C6000103F14F041FDBD46F8BD00BF68CD010046
:100C70000000F43FE8C10100B0B500AF8AB06A4699
:100C8000CB880D88536206234C8888880649C2E9C0
:100C90000740C2E9051505484FF4435142F8103F9B
:100CA00014F022FDBD46B0BDA9CD0100E8C1010090
:100CB00070B503788AB004460E4607AD032B20D8E2
:100CC000DFE803F002191B1D1149284616F0A1FFA9
:100CD00063781E210493A37830460393E3780D4A8A
:100CE000029323790595019363790093A37914F016
:100CF000AFFE0AB070BD0849E7E70849E5E70849D3
:100D0000E3E70A212846074A14F0A2FEE0E700BF05
:100D1000EBCD01000DCE0100F2CD0100F9CD0100B7
:100D200003CE01009DF30100F0B506460C460021FC
:100D300093B000AF1546381D1A22396016F0CEFF69
:100D4000304617F01CFB3946FFF7B2FF6E4688B0FD
:100D50006A46114B4FF4D651C2E905370223137787
:100D60000E4B0F4842F8103F14F0BEFC0D4BB54639
:100D70001B6813B12946204698472822002107F115
:100D8000200016F0ABFF084B07F12001186809F0AE
:100D900079FC4C37BD46F0BD30CE010003000001A8
:100DA000E8C10100042D002010350020B0B588B046
:100DB00000AF0C4617F0E3FA3946FFF779FF6D46AE
:100DC0008AB06A46134BD461C2E90537022382F820
:100DD0002030114B114C12484FF40B5142F8103F88
:100DE00014F082FC2068AD4618B117F066FA0023B3
:100DF00023600C4C206830B117F05FFA002301200B
:100E0000236019F032F90022074B203783F80A28B3
:100E1000BD46B0BD47CE010004000001002D0020FA
:100E2000E8C1010010350020042D0020F0B58FB07E
:100E3000054600AF89B16C4688B06A46284B294800
:100E4000C2E9053103234FF4C25142F8103F14F0B8
:100E50004BFCA5463C37BD46F0BD07F1180617F020
:100E60008EFA3146FFF724FF6C4688B06A461E4B67
:100E70004FF4D651C2E9053602261C4B16771948A5
:100E800042F8103F14F030FC2846A54617F0FEF952
:100E9000174D2860012019F0E5F81649286817F069
:100EA000A8FA90B188B06A46134B4FF4C251C2E918
:100EB000053003230B4842F8103F14F015FCA546FB
:100EC0000E49286817F05DFAC4E70D4B4FF48651C0
:100ED000044807F11002C7E9046314F005FCEFE7CA
:100EE00064CE0100E8C101007FCE010003000001D3
:100EF00010350020280500208CCE01003005002090
:100F0000B9CE010080B50B7800AF042B96BF0F4A15
:100F10000F4852F823004B788AB0042B96BF0B4A37
:100F20000B4B52F823306A46D36140F20233094931
:100F30001384094BC2E905104FF41351074842F8D6
:100F4000103F14F0D1FBBD4680BD00BF38C3010087
:100F5000E0CE0100E8CE010004000002E8C101007B
:100F6000074A08B50346106840B18AB2194604F032
:100F700069FE18B1BDE80840FFF746BE08BD00BFD6
:100F80001035002030B5B1F5006F05460C4687B02E
:100F900009D9084B4FF4825105930223064804AA4D
:100FA000049314F0A1FB2146284607B0BDE8304069
:100FB000FFF7D6BF0ECF0100E8C10100B0B5264B48
:100FC00088B002AF7B6102230446244D4FF4865162
:100FD000234807F110023B6114F086FB40F60C0237
:100FE0000021284616F07AFE1E4809F0B9FA04B12D
:100FF0002C60002007F006FE08B114F078FB16F014
:1010000009F8194804F012FE88B16C46174B88B0F5
:1010100002AAC2E9053003234FF4C251104842F836
:10102000103F14F061FBA5461837BD46B0BD3C46E5
:101030000F4D0FCD0FC42B680222236001233846C9
:1010400000930C490C4B08F035FB0028ECD06C46A3
:1010500088B00A4B02AADCE768CF0100042D00200B
:10106000E8C1010058010020740100207FCF010079
:10107000D0C201004CC301005CC30100B3CF01002A
:10108000F0B51A4B1A4C87B01A4A63601A4B00AF7E
:10109000C7E900234FF020614FF07F430025C7E9E7
:1010A00002134FF002130126C7E904352A462B46E6
:1010B0003946201D267210F09BFC104B984212D02E
:1010C0006C4688B06A460E4BC2E90530032342F8ED
:1010D000103F4FF4C2512B460A4815F072FBA5464B
:1010E0001C37BD46F0BD2670FAE700BF00A00050D7
:1010F0001435002008090A0B0007FF000000AD0BA3
:101100002ED00100F0C10100014B1878704700BFDC
:1011100014350020B0B584B000AFC7E90001C7E9BD
:101120000223394600220E4810F0F2FD0D4B044612
:10113000984213D06D4688B06A460B4BC2E9053021
:10114000032342F8103F00234FF4C251074815F023
:1011500038FBAD4620461037BD46B0BD0024F9E748
:10116000183500200000AD0B50D00100F0C1010087
:101170000246002935D0087830211A4BB2F5A67FF7
:1011800001FB0033D96A01F10101D9621DD009D8F0
:10119000B2F5A27F11D0B2F5A47F12D0B2F5A07F34
:1011A00007D07047B2F5A87F13D0B2F5AA7F14D04C
:1011B00070475B69ABB1002118479B698BB1012176
:1011C000FAE7DB696BB10221F6E71B6A4BB1032139
:1011D000F2E75B6A2BB10421EEE79B6A0BB10521B4
:1011E000EAE77047203500202DE9F04F85B0002058
:1011F00000AF0DF0ADFC002852D1354814F01BFCB7
:1012000000220F20114605F049F800221020114657
:1012100005F044F800221120114605F03FF82D4C4E
:101220002D4B002523604FF4C063A3802B4BDFF8C8
:10123000B090236340F20163DFF8A880A386012207
:10124000072300264FF0030A227204F11002E26025
:1012500020464A4604F108016672E37284F80AA047
:10126000257410F0DFFD40450ED0EB4688B06A468D
:101270001D4BC2E9053542F810AF4FF4C251334659
:101280001A4815F09EFADD46204610F027FE20464B
:1012900019F088F83034CDB11437BD46BDE8F08F71
:1012A00000237B60FB6001233946BB6014F059FCCE
:1012B000011E03DA0E4814F0BEFBA1E7BB689B07D2
:1012C000FCD1F96800299BD00A48F4E70125B6E76C
:1012D0007DD001002035002000F0005000000150BA
:1012E000711100000000AD0BD8D0010028C2010030
:1012F0009ED00100B8D00100012808B508D8064BDF
:1013000000EB400003EB001010F0DAFD002008BDF8
:101310004FF0FF30FBE700BF20350020012810B55B
:101320000CD8084C00EB400004EB0014204610F0F1
:10133000D5FD204619F036F8002010BD4FF0FF30E3
:10134000FBE700BF20350020034B00EB40000521E8
:1013500003EB001019F02AB8203500200128F7B55A
:1013600005460F4614461E462CD8FFF7EDFF0346F0
:1013700005EB4505154A290102EB051052584FEAC5
:10138000147CD2F810252401D2B2C2F12005A2F1BA
:1013900020010CFA05F524FA02F22A432CFA01F195
:1013A0000A431A4401232EB1394619F00AF80020E5
:1013B00003B0F0BD0093064B394653F8273019F0BF
:1013C00016F8F4E74FF0FF30F2E700BF20350020B9
:1013D00064C3010001289FBF0C2303FB00110448D4
:1013E00000EB81019ABF4A6100204FF0FF30704747
:1013F00020350020F0B58BB004780546092C0E4648
:1014000000AF18D8CCB120220021381D16F066FCA0
:1014100032462946381D3C607E6216F054FC00229C
:10142000002339460E4812F023FF0E4813F0C0F88F
:101430002C37BD46F0BD0D2CE5D06B786D4688B0DD
:101440006A46D36104230849C2E9051442F8103FF3
:1014500000234FF40151054815F0B3F9AD46E7E715
:10146000F407002024080020F7D00100E0C00100AC
:10147000F0B5FDB0214800AFFFF7A0FD204D214C95
:101480004FF0FF334FF0FF32284607F1F80112F01A
:1014900047FF97F8F830012B1FD1F3220021381DA8
:1014A00016F01CFCB7F8FA30B7F8FC20A7F80530A6
:1014B000237807F1FE01F81D3B7116F004FCB7F824
:1014C000FC10381D0331FFF75DFD2378FF2B0EBFA5
:1014D00000230133DBB22370D2E76E4688B06A4640
:1014E0000949C2E90513032342F8103F00234FF4D2
:1014F000C451064815F065F9B546C1E70557010026
:10150000C4070020C850002021D10100E0C0010024
:10151000044A1078FF280EBF0023431CDBB213706F
:10152000704700BFC850002010B51E4814F083FA61
:101530001D4B1E4A1E491F4814F07DFA0021012050
:101540000FF0B0FC0FF0E0FA044628B1BDE81040FF
:101550000146194814F06FBAFFF746FEFFF790FDF9
:10156000012120460FF0FAFA00214FF4203013F049
:1015700031FC00F05DFB20B14FF4C030002113F0CE
:1015800029FC00F01DFD00214FF4004013F022FC67
:10159000002108460FF0E2FA00214FF4004013F05A
:1015A00019FCF9E758D1010076D101007FD1010083
:1015B0008BD1010093D10100C2D1010038B52D4D6E
:1015C00095F870302BB100F0AFF918B92A4B1B78A1
:1015D000F3B938BD0024B5F872302341DB0704D5D8
:1015E000E0B214F03FF900F07FFA01340F2CF2D191
:1015F0000024224D55F8040B28B100F075FA01348F
:10160000102CF7D1E2E7012CF9DC14F02FF9F4E704
:101610001B4C23780A2B09D10023237000F010FD06
:1016200000F020FA237801332370D2E7052B1ED86F
:1016300001A252F823F000BF1D1600005116000051
:10164000571600005D1600006316000069160000C2
:1016500000F00CFDE4E700F01FFDE1E700F032FDD3
:10166000DEE700F045FDDBE700F058FDD8E700209D
:10167000D6E700BFB00B0020CA500020D80B0020D6
:10168000CF5000202DE9F04391B000AF00F008FAF0
:10169000614C624D04F1740600220023284607F1D4
:1016A000180112F03DFE18B14437BD46BDE8F08385
:1016B000BB695A1E0C2A00F29F80DFE802F0349DBD
:1016C0009D079D9D5A729D9D9D9D8500B7F81D802B
:1016D0005FEAD8320FFA88F31ED0514B1A70514B83
:1016E0007B6102234FF486514F4807F110023B61A2
:1016F00014F00CF8E94688B06A464C4B4FF4C651DA
:10170000C2E905380323484842F8103F13F0FEFFB2
:10171000CD46A4F87280BFE7002BEBDB0022404BE4
:101720001A70434BDCE7E94688B06A464FF47A7892
:10173000D7F81D303F49B8FBF3F8C2E9051304237D
:10174000C2F81C804FF4035142F8103F364813F0A2
:10175000DDFF0020CD46C4F80080FFF7DFFD002349
:10176000226819461846FFF7F9FD0020FFF7C4FD6F
:1017700092E700F0C1F828B113F0D1FF01462E48DE
:1017800014F04BF82D4B4FF486517B610223264811
:1017900007F110023B6113F0B9FF012384F87030A8
:1017A0007AE7274B4FF486517B6102231E4807F1ED
:1017B00010023B6113F0AAFF0023DC21304684F8BD
:1017C000703014F02AF867E77B7F012B0DD1144AA3
:1017D0001370144B7B6102234FF48651124807F1BA
:1017E00010023B6113F092FF56E7002B7FF454AFD9
:1017F0000B4A13700E4BEDE7E84688B06A46114974
:101800000948C2E9051303234FF4C25142F8103FBF
:1018100013F07CFFC5463FE7B00B0020F407002023
:10182000CA500020E6D10100A8C101000FD201007A
:10183000FAD1010036D20100240C00207AD2010036
:101840008FD20100A5D2010070B5194C86B0237962
:1018500013B30021174A0846FFF7BCFD0023226896
:1018600019461846FFF77AFD0020FFF745FD124C98
:10187000124D134E4FF0FF324FF0FF33204612F05F
:10188000BDFE78B102234FF48251304604AA05957B
:10189000049313F03BFFEDE700214FF4004013F0F9
:1018A00099FAD4E7FFF7EEFE00F056F8E2E700BF42
:1018B000B00B00201357010024080020C0D2010003
:1018C000A8C1010010B5094C86B023884BB9084A5D
:1018D0000592022204924FF48251064804AA14F0A1
:1018E00070FF23880133238006B010BDA85000206C
:1018F000F6D20100B0C10100094BB3F872200023F9
:10190000184642FA03F1C90703F1010348BF013049
:101910000F2BF6D1034B1B7803B10130704700BF8A
:10192000B00B0020CA500020074BB3F872200023F0
:10193000184642FA03F1C90703F1010348BF013019
:101940000F2BF6D1704700BFB00B0020014813F0F9
:1019500051BF00BF240C00202DE9F04FC1B000AFF3
:10196000FFF7CAFF064600283DD0FFF7EFFF431CF4
:10197000054638D0F024700094FBF0F4F3220021E7
:1019800007F10C0016F0AAF940F6040340F20248F1
:10199000DFF8BC90744303FB0593B3F8746808FB4D
:1019A00005F34FF00008B6B27B604FEA440B4645A2
:1019B000B2461DDC274C2946274813F00EFF23882A
:1019C0008BB16D4688B06A462449C2E905130323EA
:1019D00042F8103F00234FF4C651214814F0F1FEA5
:1019E0000023AD46238007F58277BD46BDE8F08F22
:1019F0000021F32207F10C0016F070F9B9F87220FB
:101A0000A7F80D20FFF784FD7B68A6EB080203F121
:101A10003A014144A242387309EB41010FDD5A46B5
:101A200007F10F0004EB080A16F04DF9D84608F14B
:101A3000030107F10C00FFF7A5FAD046B7E74FEA1C
:101A40004208424607F10F0016F03DF9EFE700BFEC
:101A5000B00B0020A8500020240C002023D301004C
:101A6000B0C1010038B501460A4813F074FE431CAA
:101A7000044603D1BDE83840FFF724BF064D95F872
:101A800084305BB2834204D0044812F091FD85F8A3
:101A9000844038BD240C0020B01B00202408002006
:101AA00000231946034A0133102B42F8041BFAD1D4
:101AB000704700BFD80B0020024A1368013313603F
:101AC000704700BF8435002010B4064C030A6371D0
:101AD0000223A07104F10902601D194610BCFFF732
:101AE00019BB00BFB00B00202DE9F042494E1FFA90
:101AF00080F9336804460133484600AF3360FFF78E
:101B0000E3FF454BD3E90401D3E9062CC3E9060101
:101B10004248C3E9082C017899B34FF0FF344FF0E5
:101B2000FF35C3E9044501390170B9F5AA4F04BF77
:101B300009210170BCF1FF3F08BFB2F1FF3F51D056
:101B4000B3F8091002F4404049BAB0F5004F8CB226
:101B500095B24AD018D8A8B3B0F5804F42D06E469F
:101B600088B06A462E4BD461C2E90535042342F899
:101B7000103F00234FF403512A4814F022FEB546CB
:101B800030E0C3E90441D0E7B0F5404FE7D1B5F507
:101B90007F4F27D1022C25D033686E468AB06A4623
:101BA000C2E9074305232049C2E9051542F8103F61
:101BB00000234FF422511B4814F003FEB546FFF7F3
:101BC0007BFF0FE0C2F3042202F6441003EB400057
:101BD000B3F87230818043FA02F2D30702D520466F
:101BE000FFF740FFBD46BDE8F0822146284613F0CE
:101BF0002EFE03460028F5D131686E468AB06A464B
:101C0000C2E9074105210948C2E9050542F8101F4C
:101C1000CFE700BF80350020B00B0020C950002066
:101C2000AAD30100B8C1010044D3010070D3010060
:101C300070B586B0FFF768FA08B9FFF721FA4E4D84
:101C400041F2B0220021284616F048F84FF47A738A
:101C50002B6000234FF0FF32A5F872304FF0FF33B6
:101C6000DC2105F17400C5E90423C5E90623C5E9B3
:101C7000082313F0D2FD4FF47F40FFF735FF4FF4F8
:101C80007F40FFF731FF48F2DE00FFF72DFF48F2FB
:101C90002010FFF729FF48F22820FFF725FF48F220
:101CA0000230FFF721FF48F21A40FFF71DFF4FF403
:101CB0000540FFF719FF4FF40640FFF715FF4FF4FB
:101CC0000740FFF711FF48F61E00FFF70DFF48F62B
:101CD0000510FFF709FF48F62B20FFF705FF48F630
:101CE0002B20FFF701FF48F60630FFF7FDFE48F610
:101CF0001040FFF7F9FE48F67C50FFF7F5FE48F676
:101D0000FF60FFF7F1FE48F6FF70FFF7EDFE49F2C6
:101D1000FF00FFF7E9FE49F2FF10FFF7E5FE4FF481
:101D2000AA40FFF7E1FE0C244FF47F40FFF7DCFEF2
:101D3000013CF9D10126114B2E711B68002B4FF08D
:101D400002030CDD0E4ACDE904320E4823464FF45F
:101D5000845104AA14F035FD304606B070BD0A4A1D
:101D6000CDE90432074823464FF4865104AA14F003
:101D700028FD2046F1E700BFB00B0020843500208D
:101D8000CBD30100B8C10100F2D3010023222223EA
:101D900090B51C4C87B04FF0C861C4E900230723FD
:101DA0001948C4E9021300AF10F08AF90023214654
:101DB0001A46154810F0CEF8144B98420FD06C46D6
:101DC00088B06A46124BC2E90530032342F8103F3F
:101DD00000234FF4C2510F4814F0F3FCA5460A4803
:101DE00010F040F90C4B7B6102233B61002307F1AB
:101DF00010024FF48651074814F0E3FC1C37BD462F
:101E000090BD00BF883500207CC301000000AD0BF1
:101E10001DD4010030C2010036D40100014B03443F
:101E20001974704788350020B0B586B00024124B75
:101E300000AF03441B7CC7E90224C7E9041422460F
:101E40000E48391D7B713C7110F066F90C4B9842BD
:101E50000FD06D4688B06A460A4BC2E905300323AD
:101E600042F8103F4FF4C2512346074814F0A9FC32
:101E7000AD461837BD46B0BD883500207CC3010093
:101E80000000AD0B50D4010030C2010090B5022417
:101E900087B000AF3C71124CBA600444207C97F8C4
:101EA00028207871C7E903210E480022391D7B6183
:101EB00010F032F90C4B98420FD06C4688B06A464D
:101EC0000A4BC2E90530032342F8103F00234FF4C8
:101ED000C251074814F075FCA5461C37BD4690BD9D
:101EE000883500207CC301000000AD0B63D40100E5
:101EF00030C2010007B5064B8DF804008DF80510BF
:101F00000222587801A9FFF78FFF03B05DF804FBA8
:101F1000CB5000201FB58DF80F00064800920B46ED
:101F2000012240780DF10F01FFF7B0FF05B05DF819
:101F300004FB00BFCB5000201FB501228DF80F001D
:101F40000648009240780DF10E030DF10F01FFF7E6
:101F50009DFF9DF80E0005B05DF804FBCB500020FE
:101F6000054B9A78824206D09870000100F0F0018B
:101F70007F20FFF7BFBF7047CB50002038B50F4D13
:101F80000446AB7813B10020FFF7EAFF7F20FFF78C
:101F9000D3FF0620FFF7D0FFEB780146A34206D01F
:101FA00034B900F0BF010620FFF7A4FFEC7038BD84
:101FB000012C04BF40F04001C9B2F4E7CB5000202F
:101FC00070B56823002401261A4D86B02B706C7002
:101FD000AC70EE70FFF7DAFE29786878FFF71EFF25
:101FE0002046FFF7BDFF80210620FFF783FF002179
:101FF00040F2676012F0EEFE0220FFF7B1FF3046BC
:102000000321FFF777FF03211420FFF773FF20461A
:10201000FFF7B4FF2046FFF7A3FF074B059302230A
:1020200004934FF486512346044804AA14F0C9FBD4
:1020300006B070BDCB50002083D40100A0C10100C8
:1020400007B5094B9B7813B10020FFF789FF0222E7
:102050002D2001A9FFF75EFFBDF8040040BA80B251
:1020600003B05DF804FB00BFCB50002007B5094B5F
:102070009B7813B10020FFF773FF02222F2001A9E4
:10208000FFF748FFBDF8040040BA80B203B05DF826
:1020900004FB00BFCB50002007B5094B9B7813B160
:1020A0000020FFF75DFF0222312001A9FFF732FF78
:1020B000BDF8040040BA80B203B05DF804FB00BF75
:1020C000CB50002007B5094B9B7813B10020FFF7D8
:1020D00047FF0222332001A9FFF71CFFBDF80400CF
:1020E00040BA80B203B05DF804FB00BFCB500020C3
:1020F00007B5094B9B7813B10020FFF731FF02228F
:10210000352001A9FFF706FFBDF8040040BA80B2F0
:1021100003B05DF804FB00BFCB50002007B5094BAE
:102120009B7813B10020FFF71BFF0222372001A983
:10213000FFF7F0FEBDF8040040BA80B203B05DF8CE
:1021400004FB00BFCB5000202DE9F04F8DB01F469F
:10215000169B0292009302F00403C2F3C2020193A1
:10216000531C820705460E46049340F02182041D4D
:10217000002840F0208201F00706341DC6F1080651
:102180004FF0000A4FF004085246D14641467B1EEC
:10219000CDF80CA005B127600498002807DCCB48D7
:1021A0008742C0F04181CA48874280F03D81029851
:1021B00010F0020E00F051814FF0010C601BBEF1D7
:1021C000000F00F03781B0F5007FC0F033816FF071
:1021D0001500FEE0B9F1000F08D1252840F041813B
:1021E0004FF001094FF0040841463AE12B2825D869
:1021F0001F2802D84FF0000933E1A0F1200CBCF1F8
:102200000B0FF7D80FF2040E5EF82CF063240000D9
:10221000F5210000F521000063240000F5210000F5
:10222000F5210000F5210000F5210000F521000056
:10223000F5210000F323000063240000A0F12D0C21
:102240005FFA8CFEBEF14D0FD4D8BCF14D0FD1D842
:102250000FF2040E5EF82CF06324000063240000EB
:10226000F5210000632400006324000063240000C3
:102270006324000063240000632400006324000042
:10228000632400006324000063240000F5210000A3
:10229000F5210000F5210000F5210000F5210000E6
:1022A000F5210000F5210000AF230000F52100001A
:1022B000F5210000F5210000AF230000AF2300004E
:1022C000AF230000F5210000F5210000F5210000FA
:1022D000F521000063240000F5210000F521000035
:1022E000F5210000F5210000F5210000F521000096
:1022F000F5210000F5210000F5210000F521000086
:10230000F521000091230000F5210000F5210000D7
:10231000F5210000F5210000F5210000F521000065
:10232000F5210000F5210000AF230000F521000099
:102330009123000091230000AF230000AF23000091
:10234000AF2300006324000091230000E32300007A
:10235000F521000063240000F5210000E9230000BE
:1023600091230000E9230000F5210000F521000081
:10237000E9230000E521000091230000F521000081
:10238000F521000091230000F5210000E521000067
:1023900013F801CCBCF16C0F29D113F8021C4FF0DB
:1023A00000096C293DD04FF00408414621E0009817
:1023B000073400F1070B2BF00700F0E8028924F046
:1023C0000704009055B105982044B04204D96FF03D
:1023D0001B000DB0BDE8F08FC4E900894FF0000983
:1023E00008344FF00808FFE64FF00009DBE74FF034
:1023F0000009013C4444C8F1000C04EA0C0425B176
:10240000A1EB050CA444B445E1D8732852D1DDF802
:1024100000B004985BF8047B01380490CDF800B05C
:10242000B8E64FF00808C0E702984FF0000C00F043
:10243000020EC3E60F2A3FF6CAAE45B30DF1300EC9
:10244000C0F387009644BCF1000F1AD060F07F0003
:102450000EF8100C0AF1010A0132C5F1080004342B
:10246000059013F8010F00287FF4B4AE611BB1F59D
:10247000806FBFF4ACAE002D3ED1A6F10804601809
:10248000A7E70EF8100C039801300390E4E7BCF1C5
:10249000000F01D1019808B10136DDE73846CDE9DA
:1024A0000612059315F0D1FBDDE906120236059BF5
:1024B0000644D1E704290DD1009800F1040C0DB1B8
:1024C000006820600434CDF800C0CAE750BC0100A9
:1024D0000CFE010008297FF47AAE0098073020F046
:1024E000070000F1080CCDF800C01DB1D0E900BC18
:1024F000C4E900BC0834B4E7019B8908286029704E
:102500009DF80C10A3B16870E97085F802A0BAF1CB
:10251000000F06D04FF0000C08A8C5F1010E62456F
:102520000AD10DF1200808EB0209C5F1010B39E0D1
:10253000019B6970EB70E8E710F8011B0B0608D5EA
:1025400004EB0E08B04501F07F013FF640AF04F800
:10255000011B0CF1010CE2E7BAF1000F03D098F96E
:102560000020002A1CDB019B03BB98F8002055F8D3
:10257000227045F82230384615F067FB421C04EB08
:102580000B011144B1423FF622AF98F800100092BF
:1025900004F8011B2046394615F095FB009A1444B7
:1025A00008F10108C145D7D1601B12E70022E6E718
:1025B0006FF00D000DE707293FF6E2AD07E700BF1A
:1025C0002DE9F04F8BB0064614460F46DDF850B0AB
:1025D0000493B1B1B578059535BBAA46F37801935C
:1025E00013B11BF0020F22D1BAF1000F1FD124B199
:1025F0003A463146204615F066FB38460BB0BDE83A
:10260000F08F8A4690F80190B578007805EB800548
:102610003544CA45DED20135284615F016FB013097
:1026200005440AF1010AF4E70BF0010AD6E796F82F
:1026300000904FEA8903039306EB8909002C5BD1D4
:10264000BAF1000F32D04D444D451DD1A9464D463B
:10265000DDF804A0DFF800C280490BF00508CA4489
:102660000BF00202AA45C8D015F8010B56F820005D
:10267000604524D3884222D21BF0010F39D1B8F132
:10268000000FEFD1013FEDE719F8013B56F82300A9
:1026900015F0DBFA159B013033B1169B9C423EBF0F
:1026A000159B23F8140001340744CDE72DB11BF02E
:1026B0000404CCD05446A944C9E72C46C7E7002AF5
:1026C000D0D04FF00009019215F0BFFA159BDFF84A
:1026D00088C1019A6149013033B1169B9C423EBFCB
:1026E000159B23F8140001340744B9F1000FB9D049
:1026F000C5E74FF00109E6E731462046039A15F099
:10270000E2FA039BE3180293BAF1000F0AD049469C
:102710002A4606A815F0D7FA0023A944A370DDF8CD
:1027200008800DE0BDB11BF0040F14D02A464946C5
:10273000029815F0C8FA029BA94403EB0508554618
:10274000019B0BF0020E0BF001004A4609EB030C53
:102750000BF0040B25E00025A570E0E712F8013B23
:10276000DFF8F4A056F82310514503D3DFF8ECA0AE
:10277000514505D3BEF1000F03D108F8013B10E02D
:1027800038B10DF1280A691C554405F8103CCDB24A
:1027900007E0BBF1000F04D008F8013BA378013338
:1027A000A3709445DAD16378019A2B446370029B3D
:1027B0004046A8EB030BA378ABEB030B059B84F817
:1027C00003B01344FF1A039BFF1A019B3A4609EB1F
:1027D0000301B84415F077FAA8EB0400002D3FF48C
:1027E0000DAF049B1C1AA54202D36FF01B0005E736
:1027F0004FF0000906AB13F80930159A56F823106C
:10280000C2B132F81970C24604F1FF3B0AF8013B2D
:1028100097B13A46504615F056FA09F101094D456F
:10282000ABEB07040AEB0708E4DC049B1F44A7EBAF
:102830000B00E3E6159FE6E7012301399C42D4D063
:1028400011F8012F581C08F8032012B91F1EE4DAF2
:10285000CBE70346F2E700BF50BC01000CFE0100CD
:1028600030B50A4C0A44914200D130BD11F8013B09
:1028700058400309E35C83EA0013DDB2C3F303139A
:10288000E05C80EA0510C0B2EDE700BFA2D4010011
:10289000014B1860704700BF8001002030B5002553
:1028A00085B0CDE90101044601A90548039500F072
:1028B000E9F8DDE902309842B8BF255405B030BDD3
:1028C0000D5A01002DE9F84FB0F81890044619F0A0
:1028D000080893460DD001290CBF49F0100949F0B2
:1028E0002009A0F818908BF31188BFF36F8FBDE813
:1028F000F88F09F00709022907D1204613F0CFF815
:102900000028F0D00128238B4ED16769218B002F3E
:1029100015DA256821F00701C4E9008841F00101BA
:1029200021830026218B01F0070ACA4502D0A36843
:10293000002B5AD10DB9002E71D0002356E001F0C2
:1029400007035A1F012A1ED821F00701062B25680C
:1029500089B2C4E900880AD13DB12A46638B126866
:1029600001339BB2002AFAD1638341F00201204671
:10297000218313F094F806460028D3D0238B43F02C
:1029800020032383CDE7042B0CD121F0070189B26A
:102990002046218313F083F805460028C1D041F07A
:1029A000200121830025BCE7032809D1226923F0F7
:1029B0000703166843F00603002523832F46B1E77B
:1029C000042806D1226923F00703566843F0040364
:1029D000F2E7052806D1226923F00703966843F041
:1029E0000503E9E700252E46E8E7012341F0080149
:1029F00021838BF31188BFF36F8FFBB985BB16B1B1
:102A000020461F49B0474FF02003EFF3118B83F3AB
:102A10001288BFF36F8F238B23F008032383238B4C
:102A2000DA0625D5012123F010032383B4F818908A
:102A300009F0070900297FF45EAF54E7A168002977
:102A4000DCD0D1F800903B4652462046D1F804B085
:102A5000D847B9F1000FD1D04946D9F80090F2E734
:102A600029463B46524620462D6813F034F8C5E708
:102A700013F020011EBF23F0200302212383D5E79A
:102A8000035B01002DE9F04F8B4692461C46002562
:102A900091B002909AF8000008B928465FE3252813
:102AA0000AF1010707D05946029B98470028C0F257
:102AB0005683013512E2182200210AA815F00EF9FA
:102AC0009AF80130252B78D000221046964694467D
:102AD0001646394617F8013B2B2B00F09D8000F27B
:102AE0009480202B00F09B80232B00F09B802EB144
:102AF0009DF8306046F004068DF83060BCF1000FA0
:102B000005D09DF8306046F008068DF83060BEF1C3
:102B1000000F05D09DF8306046F010068DF830604B
:102B200028B19DF8300040F020008DF830002AB127
:102B30009DF8302042F040028DF830209DF8302082
:102B400002F04400442803D16FF386128DF8302040
:102B50009DF830202A2B42F080028DF830207BD166
:102B60009DF831204B1C42F001028DF831201A787B
:102B70002E2A0CBF012100219DF8312061F3410272
:102B80008DF8312074D15A782A2A6AD000210A2679
:102B90000133184610F8012BA2F13007092F40F23B
:102BA0008E809DF830200E91C2F3400040EAD17132
:102BB00061F341028DF830205AE00AF102078DF8E6
:102BC00033309DF83130D90740F1498154F8049BE6
:102BD000B9F1000F07DA9DF83020C9F1000942F081
:102BE00004028DF830205A0740F1428154F8048BDA
:102BF000B8F1000F80F241819DF831306FF341034D
:102C00008DF831304FF0FF3837E12D2B0CD0302BC1
:102C10007FF46DAF01225CE74FF0010C59E74FF0F4
:102C2000010E56E7012054E7012652E733460CFB1C
:102C30000202303A1E4616F8010BA0F13007092FA8
:102C4000F4D9994293D09DF830100D92D20F62F3CF
:102C500041018DF830108AE70B4600224FF00A0C34
:102C6000E8E79DF83120023342F004028DF831206C
:102C70001F4617F8012B6C2A41D025D8682A2BD083
:102C80006A2A46D04C2A4CD01F4617F8012B9DF8D3
:102C90003130782A8DF8332000F2D980572A4DD868
:102CA000412A03D0453A022A00F2D18004229DF83D
:102CB000323062F302038DF8323001239EE006FBCE
:102CC00001210346303964E7742A26D07A2ADBD101
:102CD00006229DF831300DE05A78682A9DF831209F
:102CE00006D1012161F3C6028DF831209F1CCCE78B
:102CF0001346022262F3C6038DF83130C5E75A78D5
:102D00006C2A9DF8312001D10421EBE71346032200
:102D1000F0E705229DF83130ECE707229DF83130CD
:102D2000E8E7BDF8303023F4F04323F0020343F426
:102D3000804343F00203ADF83030A6E7A2F158011A
:102D4000202900F2848001A050F821F0112E00000B
:102D50004F2E00004F2E00004F2E00004F2E00007F
:102D60004F2E00004F2E00004F2E00004F2E00006F
:102D7000AD2C00004F2E0000112E0000D12D0000C0
:102D8000AD2C0000AD2C0000AD2C00004F2E00003B
:102D9000D12D00004F2E00004F2E00004F2E0000BE
:102DA0004F2E0000192E0000112E0000352E0000BD
:102DB0004F2E00004F2E0000352E00004F2E000039
:102DC000112E00004F2E00004F2E0000112E00008B
:102DD00001209DF8321003F0780360F30201402BCC
:102DE0008DF8321002BF9DF8301041F001018DF8CE
:102DF0003010632A31D1003B18BF01239DF83020E9
:102E0000C2F340010B4363F341028DF83020D8E652
:102E100002209DF83210DEE703219DF8322003F0F6
:102E20007803A3F1400061F3020243428DF832209F
:102E30004341E3E703219DF8322013F0780F61F35B
:102E4000020214BF012300238DF83220D6E79DF83B
:102E5000303043F001038DF830300023CEE79DF988
:102E60003020002AACBF4FF0FF39DDF83490BAE6CD
:102E70009B077FF5C7AEDDF838800023CDE90D3321
:102E80009DF832309DF8311003F00703012BC1F398
:102E9000C30138D1CB1E042B22D8DFE803F003098D
:102EA0000921210054F8043BDA17CDE90A3206E083
:102EB000073424F00704F4E80223CDE90A239DF83F
:102EC000303013F0030656D03B465246594602981E
:102ED00013F0D1F90028C0F242810544BA46D9E581
:102EE00054F8043B01294FEAE372CDE90A3205D1D7
:102EF0009DF828300A9300230B93E0E70229DED1E6
:102F0000BDF92830D0E7022B23D1CB1E042B13D8D8
:102F1000DFE803F0030A0A12120000232268201DD2
:102F20000A920B930446CAE7E01D20F00700F0E880
:102F30000223CDE90A23F5E754F8043B01290A935B
:102F40004FF000030B93D3D00229B8D1BDF828303D
:102F5000D0E7042B09D1E31D23F0070303F1080494
:102F6000D3E90023CDE90A23A9E7032B04BF54F8D2
:102F7000043B0A93A3E79DF833007828AED8622873
:102F800022D825283FF48FAD5828A7D1DDE90A01C2
:102F90000DF1260300930CAA04AB13F026F9824628
:102FA000B8F1000F0DF126000CDB9DF83020A0EBEE
:102FB0000A036FF3861298458DF8302002D9A8EBEA
:102FC00003030D9380463DE06338152886D801A29F
:102FD00052F820F055300000B9300000DD2E00001E
:102FE000DD2E0000DD2E0000DD2E0000B9300000D7
:102FF000DD2E0000DD2E0000DD2E0000DD2E0000A5
:1030000013310000E1300000E5300000DD2E00004B
:10301000DD2E00002D300000DD2E0000E13000002C
:10302000DD2E0000DD2E0000E1300000B8F1000FC1
:10303000DDF828A00ADB4146504614F00DFE0026BC
:103040000AEB0008BAF1000F0CD147E7504614F024
:10305000FCFDF4E700260A9B0DF1100A8DF81030F4
:103060000DF11108A8EB0A0306B101339DF83220D7
:10307000D00668D5023352060D9948BF0E9A0B440C
:1030800048BF9B18B9F1000F76DD9DF83020A9EB01
:103090000309C2F38003039353076DD4500661D52F
:1030A00046B159463046029B9847002857DB039BA0
:1030B00001351E46302356E01E070FD413F01006CC
:1030C00018BF2026DDE90A23002BBFF65FAF52426E
:1030D00063EB43032D26CDE90A2357E72B26F1E7BF
:1030E000002653E70A9840B30DF126030093002110
:1030F00004AB0CAA13F079F8BDF83230824603F025
:10310000EF0343F4F04343F010030026ADF83230F0
:1031100046E70A9B07293FF6E1AEDFE801F00C0421
:10312000060C08080C0C1D70D8E61D80D6E6EA17C0
:10313000C3E90052D2E61D60D0E6DFF8C8A006461B
:103140000AF105088EE7110748BF013393E71846D7
:1031500003935946029B98470028039B04DA11B059
:10316000BDE8F08F20234D444A46002AA5EB090113
:1031700009F1FF39EBDC0D4636B159463046029B6A
:1031800098470028EBDB01359DF83230D90601D491
:103190001A0706D559463020029B98470028DEDBE7
:1031A00001359DF83230DB0607D559469DF83300CE
:1031B000029B98470028D2DB01350D9E2E44731BDD
:1031C000002B16DC434652465946029813F053F83A
:1031D0000028C4DB0544A944A9EB0503002B7FF7B5
:1031E0007DAE59462020029B98470028B7DB013569
:1031F000F2E759463020029B98470028AFDB0135A3
:10320000DDE700BFB2D4010008B54FF02002EFF3B4
:10321000118382F31288BFF36F8F03F039FC0348E8
:1032200012F009FC02F08AFFFCE700BFB8D40100ED
:10323000054B03EB8000D0F8003223F0E04343F06D
:103240004053C0F8003270470025845010B54FF04D
:103250002003EFF3118483F31288BFF36F8F0122F1
:103260000C4B0D49C3F8002502230020C1F8D036CD
:10327000FFF7DEFF1046FFF7DBFFC1F80427C1F8B8
:103280000429C1F8002B84F31188BFF36F8F00204D
:1032900010BD00BF001000500040005048B1054B69
:1032A0001A68054BB2FBF3F2044B504343F00103A1
:1032B000184770470804002040420F0030C3010047
:1032C000062807D10122044BC3F80025BFF34F8F16
:1032D00020BFFDE7704700BF00400050F0B583B04D
:1032E00000AF381D0DF0B0FE274B984248D10DF0CD
:1032F000FFF9041E13DA38790DF0ACFE6D4688B084
:103300006A46224BC2E90534032342F8103F0023EA
:103310004FF4C2511E4813F054FAAD462CE040F66B
:1033200007031C4D7C71AE68FB8074687B683CB100
:1033300008212846184AA047041EDFDB336913B969
:103340006FF05704DAE70122082128469847041E47
:10335000D4DB01233D79114AAB40C2F804357879BA
:10336000FE7916F06FFD0E4B45F00045B600C0F833
:1033700080509D51002CC1D120460C37BD46F0BD78
:103380006FF01204BAE700BF0000AD0BE5D40100F6
:1033900020C20100E8BD0100E933000000700150C7
:1033A00080A1025038B5049CC4F3072528460DF0CF
:1033B00005F800210A4BA20B02F0FC02C0F88010B5
:1033C00099500123E4B2074AA3402846C2F80835C1
:1033D0000DF0ACF92046BDE838400DF03BBE00BF13
:1033E00080A0025000700150F7B5144683681B6935
:1033F0000BB100229847C4F3072630460CF0E6FFD5
:103400000546304616F01EFD0027104B220E920096
:10341000C0F880709F5030460CF0D0FFA20B0C4BD0
:1034200002F0FC021344E2B242F000421A60094B7F
:10343000C0F8802005F13202009330463B460194EB
:10344000520016F008FD03B0F0BD00BF80A102508D
:1034500080A00250A533000030B5002289B00F498A
:103460000F4818F05AFA002200230024CDE9062361
:103470004FF0FF330B4DCDE903344FF44072284633
:10348000CDE90144084B0949009410F03FFE08497A
:10349000284617F0C3FE204609B030BDB534000001
:1034A0006022002098220020B1360000B071002078
:1034B00016D50100014811F07BB800BF5408002068
:1034C000014B53F82000704784C3010070B5104BC6
:1034D000D3E8EF5F6A1CC3E8E12F0029F8D12DB9CA
:1034E0000C4C0D4E361B3611B54200DB70BD237BF4
:1034F00053B123689B690BB1204698476368042247
:103500002046196800F07EF901351034ECE700BF61
:10351000A435002070C2010080C2010010B5044C27
:10352000237813B9034811F043F80123237010BD29
:10353000D050002054080020084BD3E8EF2F013270
:10354000C3E8E12F0029F8D138B1054BD3E8EF2FBC
:10355000013AC3E8E12F0029F8D17047A0350020D7
:103560009C35002000200246034BD3E8EF0FC3E850
:10357000E12F0029F9D17047A0350020F8B5FFF7F9
:10358000F1FF00260746094C094D2D1B2D11AE42B7
:1035900000DBF8BD63685B792BB123681B6913B14D
:1035A00039462046984701361034F0E770C20100D2
:1035B00080C201000149024812F035BF90C30100EA
:1035C000A835002008B50023074A4FF400401370C7
:1035D000064A1360064B074A1A6000F0F3FABDE88A
:1035E0000840FFF7E7BF00BFD1500020A035002002
:1035F00084010020DB66010001460022002301480F
:1036000012F032BFA8350020014812F0C3BF00BF3E
:10361000A83500200146014813F008B8A83500205D
:10362000014813F037B800BFA83500201B4B2DE927
:10363000F0411B78054603B968B313F063F80646FA
:1036400018B16DB13046FFF7E5FF2DB9144B1B687B
:10365000002B01DDFFF792FFBDE8F041FFF7E0BF6F
:10366000104BD3E8EF2F013AC3E8E12F0029F8D13E
:10367000A8460D4C0D4F3F1B3F11B845E2DA636879
:103680005B7923B12368314620461B68984708F1CF
:1036900001081034F1E7BDE8F08100BFD0500020F0
:1036A000A03500209C35002070C2010080C20100BE
:1036B00010B5FFF70BFF11F0A7FB0C4B186030B1F2
:1036C0000B4B1B68092B02DD0A4810F071FF094CF7
:1036D0000020FFF7ABFF0028FAD14FF0FF324FF088
:1036E000FF33204610F08AFFF2E700BFE8350020E4
:1036F0009C3500205408002013B51B4BD3E8EF2F56
:10370000511CC3E8E01F0028F8D1184B1B7883B187
:103710004FF02003EFF3118483F31288BFF36F8F10
:103720000020FFF783FF84F31188BFF36F8F02B08F
:1037300010BD0F4B1B68002BF9D052B9002200239B
:103740000C48CDE900234FF40042002311F04AFD5C
:10375000EDE70A2AEBD1074818F0EBF8064802B06B
:10376000BDE8104010F024BF9C350020D15000204F
:10377000E83500206022002054080020064B10B5D8
:103780001B68044698472146A060044812F0E2FEF8
:10379000BDE81040FFF7B0BF84010020A83500202D
:1037A000F8B50E4F3D7875B9FFF790FE0C4C0D4EF5
:1037B000361B3611B54207DB0020FFF737FF002824
:1037C000FAD101233B70F8BD63685B791BB12368B4
:1037D00020465B69984701351034EBE7D150002053
:1037E00070C2010080C20100044A054B9B1AB1EB74
:1037F000D30F34BF52F8310000207047E0C0010001
:1038000070C20100054A4368801A0122001101308C
:10381000187119605A71FFF781BE00BF70C20100B4
:103820000EB403B503AB53F8042B014604480193CF
:10383000FFF728F902B05DF804EB03B0704700BF52
:10384000456701002DE9F0471D46089B1746DA063B
:1038500004460E4605D499064CBF2A492A49FFF76B
:10386000DFFF4FF00008DFF8A490A8452ADB002511
:10387000DFF89C80DFF89C90DFF890A0BD422FD24B
:1038800049462046725DFFF7CBFF0135102D20D150
:1038900020462149FFF7C4FF0025DFF87080DFF8DC
:1038A0007C90AF4228D9725D4946A2F120035F2B7C
:1038B00028BF2E222046FFF7B3FF0135102D14D16B
:1038C000BDE8F08749462046FFF7AAFF08F1010846
:1038D000CBE76A07D2D151462046FFF7A1FFCDE7DB
:1038E00041462046FFF79CFFCFE76B07D9D1414601
:1038F0002046FFF795FFD4E741462046FFF790FFAB
:10390000DBE700BFC0D10100BFD10100D0FC010046
:10391000CEFC010022D5010028D501002AD50100E6
:103920002DE9F04F1C4687B001F0010305920746D0
:1039300088469DF84090BDF948A001F0020B049321
:1039400001F0080612F0E2FE0246002844D0384694
:103950003949FFF765FF0546BBF1000F08D018F0A5
:10396000440F3BD1224638463449FFF759FF0544FE
:10397000049B53B1324B384653F82920314B32491E
:10398000002A08BF1A46FFF74BFF3EB12F4B3846BF
:1039900053F829202E49FFF743FF0646BAF1000FDE
:1039A00016DB059B002B45D0012303FA09F9294BAF
:1039B00019F0100F284C18BF1C4651469DF84400C2
:1039C000FFF712FF214602463846FFF729FF06445B
:1039D000701907B0BDE8F08F0546BDE71F4B1868AA
:1039E0000028C4D01E4B4FF47A781B684FF46161F5
:1039F000B4FBF3F4B4FBF0F300FB134408FB04F452
:103A0000B3FBF1F2B4FBF0FE4FF03C0C01FB1231C2
:103A100000FB1E44B1FBFCF308FB04F4B4FBF0F024
:103A20000CFB1311CDE901E0009138460D49FFF779
:103A3000F7FE9CE7084CC0E73BD501003FD50100ED
:103A4000A4C301002DD5010007F50100B8C3010092
:103A500064D5010037D5010032D50100EC350020D6
:103A6000F035002048D5010038B50C46E107054681
:103A700003D5084A0849FFF7D3FEE20608D4A30697
:103A80002846BDE838404CBF04490549FFF7C8BE89
:103A900038BD00BF2DD5010007F50100C0D10100E0
:103AA000BFD101002DE9FF470B88064613F4E07FE4
:103AB0000C469046C3F382194DD00A784B68C2F386
:103AC000C202002B44D025495B1A43F3CF03CDE952
:103AD0000123CDF80090002241463046A368FFF74D
:103AE0001FFF8246254655F8103BC3F3492353B1C7
:103AF0001B4F1C482B463246B9F1000F08BF384611
:103B0000194911F0B6FE6788C7F3CB0797B1236850
:103B1000C3F349231D44102F3C4628BF10242946D7
:103B2000534622463046CDF80080FFF78BFE3F1B00
:103B30002544F0D1B9F1000F04D04A464146304641
:103B4000FFF792FF304604B0BDE8F04712F0EDBD3C
:103B50004FF0FF33BBE7CA46C4E700BFE0C0010037
:103B60007367010045670100852A000042F20F7368
:103B700073B58B4228BF0B4605680446052168468D
:103B80000D4A11F065FF0646636828460B225B6804
:103B90000A4912F0BDFD63683246694628465B68F3
:103BA00012F0B6FD63681B2228465B68044912F0D8
:103BB000AFFD02B070BD00BF6DD30100A6D50100FE
:103BC0008AD5010001230021074A10B5074C136074
:103BD000A04204D801B11360054B186010BD01214B
:103BE00040085B00F4E700BFF035002040420F00C2
:103BF000EC3500202DE9F04F87B09A46DDE91157EA
:103C0000109B044689469046DDF84CB00393CFB331
:103C10003B462A4610210020CDF800B0CDF814B064
:103C2000FEF792FA0646039A08F0070304F0070825
:103C300002F11700144C4FEAC80848EA83183044D0
:103C4000124B04EA462420F0070048EA040803EA7D
:103C5000C243800848EA0308FFF7CEFC044640B19F
:103C60003FB13B462A463146CDF800B01030FEF752
:103C70006BFA534642464946204607B0BDE8F04F2E
:103C800012F084BD3E46CEE700FE07000000F87F3C
:103C90000122014B1A707047E2500020014B0020B6
:103CA00019607047FC3500200122024B02481A704F
:103CB00012F03BBDE3500020ECC301000148FFF7C8
:103CC00055BF00BFECC30100064B10B518680C4689
:103CD000FFF7F6FB2146BDE8104003460F220248DD
:103CE000184700BFFC350020ECC30100054B1B78D2
:103CF0001BB141F2883017F0E1BDA420002111F082
:103D000069B800BFE35000202DE9F04780460F4618
:103D10000424DFF88890DFF888A099F80050CDB926
:103D20004FF0FF334FF0FF32504610F053FB3A464E
:103D3000414628460FF03CFF0646504610F0C2FBB5
:103D4000184DFEB101232B7099F800306BB938463D
:103D5000BDE8F0873A46414600200FF029FF0646AD
:103D6000EEE75CB92C704FF0FF3400200FF09CFFA1
:103D70000028ECD02B78002BF3D1E8E7013CFFF7CB
:103D8000B5FFF2E72B7813B1013C04D12C702B78EE
:103D9000002BC2D1DBE7FFF7A9FFF8E7E3500020D3
:103DA00088070020E25000202DE9F7430F46064621
:103DB0000821C06A12F0D8FD80463C68DFF84890C0
:103DC000241A3C6004EA0905AC4203D8002003B081
:103DD000BDE8F08308236A462146304612F036FDDE
:103DE0000028F4D16946304612F0C8FD40B1BDF854
:103DF0000230BDF8042005EA090513441D443C6067
:103E0000A4EB0804E0E700BF0000FFFF2DE9F04F3E
:103E100091B0044600AF00F11408404617F014FAC0
:103E2000A06A8368DB689847E06288B9984BFB63B7
:103E30006FF0150502234FF48251964807F13802BE
:103E4000BB6312F083FD28464437BD46BDE8F08FC2
:103E5000A06A8368DB6898470368013B1F2B01D980
:103E60008D4BE4E7A06A216807F11C0215F03FFFC3
:103E700008B18A4BDBE7A5892DB13B6AB5FBF3F2AC
:103E800003FB12550DB1864BD1E7E389012B01D815
:103E9000844BCCE7E36ABD6093F804904FF0FF33A6
:103EA0004FF0FF32404610F095FA0821E06A12F018
:103EB0005BFDAA460646E3891FFA85FB5B454AD8A7
:103EC000E389534500F0F4805B450CD1B9680823C1
:103ED0004A462046891B12F0F1FC20B9E08907F11F
:103EE000080112F036FD204607F10801FFF75CFFDC
:103EF0000546002840F0DE80BB68DFF8ACA16360B7
:103F000003EA0A03A360D4E90113994210D30823FA
:103F1000204607F10C0212F099FCD0B907F10C030E
:103F200013F8012B914540F01E8101300828F7D18C
:103F30006368E0891B0C1B0407F10801BB6012F0E9
:103F400008FD4A462046A389B96812F0B7FC00284C
:103F500026DA0546AEE0A1892B04891B13FA81F10C
:103F60004A4608232046B96012F0A8FC80B1E089D7
:103F700007F1080112F0EDFC0AF1010A08234A4694
:103F80002046B9681FFA8AFA12F098FC002897D0E8
:103F9000013590E7002B00F0FF806FF01C0589E0F1
:103FA00051D04FF6FF7963683344BB60B968A38989
:103FB0008AB29B1B9A4220D33C4B4FF48651FB6341
:103FC0000223344807F13802BB6312F0BFFC2046DD
:103FD000616812F098FC0028BBD16368324AA1895D
:103FE00013400B44A3EB4603636013402046A360D9
:103FF00012F0B9FD002841D0ABE70823204607F1B5
:10400000140212F023FC0028A3D1204607F114016A
:1040100012F0B4FC30B1BB8A4B4503D13B8B002B73
:1040200000F08880BB683344BB60BFE74A46204647
:104030005B1A12F043FC00288BDB08D0E26AA3680D
:1040400012681344A360D4E901318B42EED8616851
:10405000A38901EB46029A42CCD1DFF84C90A368C9
:1040600001EA09029342C5D0204612F04CFC002818
:104070007FF46FAF636803EA0903A360A089A38894
:10408000A0EB4606B34215D1204612F057FD60E77B
:10409000D6D5010088C10100F8D5010015D6010070
:1040A0002DD6010041D601000000FFFFB3D601006C
:1040B0006FF02C05404610F005FA002D7FF4C3AEDA
:1040C000E94688B06E460123B0464FF0040AE28903
:1040D00033492374A389C6E90512F36148F810AF88
:1040E00042464FF403512F4812F030FC2E4A6368C9
:1040F00072611A0C9BB2CD464FF40351B546294864
:10410000B261F3614246C6F810A012F01FFC274AC4
:10411000A36872611A0C9BB2CD46B261B5464246A5
:104120004FF403511F48F361C6F810A012F00EFCC3
:10413000CD4688E61E4B07F13802FB6302234FF49D
:1041400086511848BB6312F001FC6368E0891B0CC0
:104150001B0407F10801BB6012F0FBFB2046B968A5
:1041600012F0D1FB46E7204607F10C0112F006FCE5
:10417000D4F804B080B1BA683B8AF98902EA0A022D
:10418000A2601944E06A7B6012F0EEFB02445A45DB
:104190007B68A2603FF4FEAEABEB06036360B2E661
:1041A00064D6010088C101007BD601008DD60100D4
:1041B0009ED601002DE9F04F1E46037C0446894639
:1041C00090468DB07BB9614B6FF00C050B930223C9
:1041D0004FF482515E480AAA0A9312F0B7FB2846B0
:1041E0000DB0BDE8F08FC26A0821104612F0BCFB8A
:1041F00082463146104612F0B7FBA3890746A3EB6F
:104200008A03B342C0F09E801EB1B8F1000F00F0E7
:10421000998063680393204604AA03A9DDF80CB0D3
:1042200012F0E4FB05460028D9D1BDF810304B450B
:1042300005D06268039B9A42EDD1E6B9CFE72046EC
:1042400004A912F09BFB0028F3D0BDF8143086B10E
:10425000B34210D1BDF812004FEA1B4109040144DA
:1042600033464246204612F0FFFA002803DC05469A
:10427000B5E7002BB3D0A7BB04F1140A4FF0FF320F
:104280004FF0FF33504610F0A5F8DFF8C8B0E389CF
:104290009D4254D0D4E90123F9188A4224D3ADF8C1
:1042A0001A30FF2306A88DF81E30ADF81890ADF82F
:1042B0001C6012F042FB32464146204612F01AFCC6
:1042C000034638B9204606A912F027FC002814BF7F
:1042D000034633460193504610F0F4F8019B1D4607
:1042E0007DE75744BFB2C7E70821E06A12F03CFB04
:1042F0004FF6FF73ADF818300023ADF81C301318DB
:10430000ADF81A30A38902EA0B021A44121A62604D
:1043100006A812F012FB06A9204612F0FEFBE08967
:10432000211D12F016FB6368204603EA0B03A3600D
:1043300012F019FC03460028CCD10135A7E76FF035
:104340001B03C7E76FF0150549E700BFC2D50100A1
:1043500088C101000000FFFF2DE9F0471E46037CE5
:1043600088B004460F469046BDF8409073B92C4B78
:104370002C48079302234FF4825106AA069312F0A9
:10438000E5FA6FF00C0008B0BDE8F0870821C06ABC
:1043900012F0EAFAA389A3EB4003B3423CD34FF0F7
:1043A000000A63680193204602AA01A9019D12F048
:1043B0001DFB0028E7D1BDF80830BB4208D12046DC
:1043C00002A912F0DBFA18B10AF1010A1FFA8AFAFF
:1043D0006268019B9A4218D0CA45E4D9BDF80C30F6
:1043E000BBB1CA4515D3BDF80A102D0CB3424FEA34
:1043F000054528BF334642462046294412F026FA96
:104400000028C0D1BDF80C00BDE7BDF80830BB42A4
:10441000E4D06FF00100B6E76FF01500B3E700BF1E
:10442000C2D5010088C101007FB570B9124B134895
:10443000059302234FF4825104AA049312F053FC13
:104440006FF0150007B05DF804FB836863B90C4B8F
:104450000A48059302234FF4825104AA049312F0F0
:1044600042FC6FF00400EDE71B681BB107B05DF87C
:1044700004EB18471846E5E7E1D60100C0C101008A
:10448000F2D6010010B586B008B101B16AB9134B7C
:104490001348059302234FF4825104AA049312F0A7
:1044A00022FC6FF0150006B010BD84680CB1A46842
:1044B00064B90C4B0A48059302234FF4825104AAB5
:1044C000049312F010FC6FF00400ECE7234641F86F
:1044D000040B06B0BDE81040184700BF10D701001C
:1044E000C0C10100F2D6010030B51346044687B0C2
:1044F00068B9134B1348059302234FF4825104AA61
:10450000049312F0F0FB6FF0150007B030BD0068A7
:1045100082680AB1556865B90B4B0A4805930223B6
:104520004FF4825104AA049312F0DDFB6FF00400F3
:10453000EBE70A46AC46616807B0BDE8304060472B
:104540003CD70100C0C10100F2D6010000230122C6
:1045500013B50446CDE90032074BD0E909120FF03C
:1045600007F9A36E1B6823B1E06E02B0BDE81040EE
:10457000184702B010BD00BFC1D1010008B5042228
:104580000021024813F0AAFB002008BD000007200C
:1045900030B50C460E4985B00291D0F89011054611
:1045A000CDE9003100F1E0014FF0FF3320460FF07C
:1045B00005F950B9012384F86430D5F88C3123B162
:1045C000204605B0BDE83040184705B030BD00BFFB
:1045D000ED6D010070B50C461146064612F0F0FB79
:1045E000054610B12060012070BD3046034912F02D
:1045F000E7FB20600028F7D02846F5E7C1D101008D
:104600002DE9FF47074601230469416804F5517508
:10461000D5E8EF2F002A03D1C5E8E03F0028F7D105
:1046200040F0AE8040F24B428B680120043B934245
:1046300083BF40F24C42B3FBF2F3B3FA83F300239F
:1046400088BFC3F12003013B984004F5D47600F005
:10465000948010224FF008089A4002EB400208FABA
:1046600003F8093208F1060822F0030242444FF42D
:10467000806808FA03F808EB4208D1F804C0C4F8CF
:1046800044824FF480680CF1040E08FA03F373447B
:10469000C4F838321344C4E98CC33B4BC4F83C0221
:1046A000C4E9A11330460968C4F840E200F06EF98D
:1046B00030BBD7F81090D7F8048009F5287AD8E9EC
:1046C00007375046012B08BF103F16F04CFF002360
:1046D000D8F824002D494FF4806201EB802100932B
:1046E00050463B4610F0D6F809F52470284916F0DC
:1046F000FFFED8F8140083685F684FB96FF0570069
:104700000023D5E8EF2FC5E8E13F002932D0F8E7D4
:104710004B46204AD8F81810B8470028F0D1D8F8EE
:10472000140083681B69002BE8D00122D8F8181008
:1047300098470028E4D1184B2046C4F88C31174B19
:10474000C4F89031164B0293D4F8F0310193D4F8A9
:10475000E8310093D4F848223346D4F8401300F0EF
:10476000EDF80028CCD10223D5E8EF2FC5E8E13FD2
:104770000029F9D104B0BDE8F0876FF00B00BFE766
:104780006FF07700F6E700BF456E0100B0740020BF
:10479000FD6D0100F16D01004D450000176E010037
:1047A000856E01002DE9F3410F461546066906F5B1
:1047B0005173D3E8AF3F022B61D1136823B96FF077
:1047C000150002B0BDE8F0811B78002BF7D0D6F8B9
:1047D0004083B8F1000F35D106F5CA744FF0FF33AE
:1047E0004FF0FF3220460FF0F5FD30462A6801A950
:1047F000FFF7F0FE019B1BB9204612F02DFBDEE710
:1048000005F108029A666A6983F86480DA66DB63F8
:1048100070B1204612F020FB019930460B6E2A68D9
:10482000FFF7B6FE019C002CC9D000203C60C8E711
:104830002022296803F1400013F0F5F9204612F018
:104840000BFBEFE730460F4912F0BAFA0446002896
:10485000B5D005F1080383666B692022C366002387
:10486000296880F86430C063403013F0DCF92246D8
:104870000121304600F044F80028D6D09FE76FF0C1
:104880000F009EE7C1D101002DE9F04F06460F460B
:1048900091464FF00008D0F89C40DFF860B0A4F5D6
:1048A000A07585B0A4F5C0742946384613F0DDF92B
:1048B000D0B9CDF808B0D4F89031A5F1400ACDE9CF
:1048C00000933A464FF0FF33314650460EF076FFE4
:1048D00070B97023012203FB084383F86420D4F8E5
:1048E0008C310BB1504698477035B8F1000F02D0AB
:1048F00005B0BDE8F08F4FF00108D5E71F6F01004C
:104900001FB5144690B18AB1012912D10A4B00F1AA
:10491000E0010293D0F89031403201934FF0FF3321
:10492000204600930EF04AFF04B010BD6FF0150052
:10493000FAE70020F8E700BF1F6F01002DE9F04102
:10494000089D0C461746DDE906121E46C0B1B9B1F6
:104950000D4B00F1E008002D08BF1D466CB900F5B5
:10496000C074204616F041FB06943B462A46314669
:104970004046BDE8F0410EF0F1BF00230693F4E796
:104980006FF01500BDE8F08189480000F0B50E46D3
:10499000044689B000286FD001230246C363002378
:1049A000D0F89810364F403040F80C7C42F8301F59
:1049B000CDE901334FF0FF330093C36D15F01FFEB7
:1049C000304A06AB92E8030083E8030018460EF075
:1049D00015FE0546D8B904F134000EF0EFFD05468A
:1049E000A8B93946284805AA15F0E3FD054670B96F
:1049F000059B9A6872B10C33D4F89400C4F8A030C7
:104A000012F0AAFAC4F8D40030B96FF00B052846AA
:104A100009B0F0BD0346EFE7D4F8940012F09CFA19
:104A2000C4F8D8000028F0D0D4F88C30D4F8A01006
:104A3000C4F8A8300423C4F8AC30C4F8C43002234E
:104A4000A362124BB4F89420D4F8D470C4F8B81010
:104A5000C4F8D010D4F89010236204F1A403A4F891
:104A6000B020C4F8A470C4F8C010A4F8C820C4F8DA
:104A7000BC00A661E362CAE76FF01505C7E700BF97
:104A80005ED70100E4C2010068D7010020C4010024
:104A90000C4BF0B45F6A0C4E0C4BB34203D36FF077
:104AA0008500F0BC70475D68BD4209D31C693CB10C
:104AB00095F802C00579AC4502D12346F0BC1847F1
:104AC0002433EAE70C360020B00A00208C0A0020CC
:104AD0002DE9F04705460E461746124CDFF8488090
:104AE000DFF84890444503D36FF08500BDE8F087B8
:104AF0006268D9F824309A4212D3A36983B19078BE
:104B00002979884205D13A4631462846BDE8F04722
:104B100018475279012A03D13A4631462846984728
:104B20002434DFE78C0A0020B00A00200C36002075
:104B30002DE9F04105460E4617460A4CDFF828805D
:104B4000444502D36FF0850009E063690BB9243452
:104B5000F6E73A463146284698470028F7D1BDE89F
:104B6000F08100BF8C0A0020B00A0020082200213A
:104B7000014813F0B3B800BFC736002070B50B4B27
:104B80000B4CA34201D3002070BD0022196A1E7F86
:104B90000439D5B2AE4201D82433F2E7013211F81C
:104BA00032508542F5D10120EEE700BF8C0A00208B
:104BB000B00A00207FB5074B4FF4825105930223C2
:104BC000054804AA049312F0D5F94FF0FF3007B05E
:104BD0005DF804FB70D7010050C2010090B583B0AE
:104BE000837800AF3B700379427943EA02237B80EC
:104BF000C378384603F003033B7109F0A9FD10F1B7
:104C0000780F3B7829D16C4688B06A462149224802
:104C1000C2E9051303234FF4C45142F8103F12F0C8
:104C2000A9F9A546387809F039FE10F1780F29D195
:104C30006C4688B06A463B7818491748C2E90513A4
:104C400003234FF4C45142F8103F12F093F9A546E4
:104C50000120134B83F8B90011E00028E2D06C4624
:104C600088B06A460F49C2E9051303230A484FF486
:104C7000C25142F8103F12F07DF90020A5460C37D2
:104C8000BD4690BD0028E3D06C4688B06A463B78AC
:104C90000549E8E795D7010050C20100DCD70100C3
:104CA0000C360020B8D70100FCD701002DE9F041F7
:104CB000C4B282B0630600AF0D46FC7107D0204637
:104CC000FFF75CFFF8B11E4B93F8BA00D8B11C4E49
:104CD000EDB1E84688B06A461A4B4FF4C651C2E9B6
:104CE00005340323184842F8103F12F043F9C54633
:104CF000F87909F05FFDF3690BB9012003E00820A2
:104D0000F91D984728460837BD46BDE8F0816D4635
:104D100088B06A460D4B4FF4C651C2E905340323EF
:104D2000094842F8103F12F025F9AD46F87909F02C
:104D300079FDF369002BE0D00920F91D9847DCE7E5
:104D40000C3600201DD8010050C2010030D80100EF
:104D50002DE9F04F83B0A74E0446B36988469146CB
:104D600000AF63B9207800F01F00012800F0AC808C
:104D7000022800F0498138B16FF0150099E098479A
:104D80000028EFD1002094E094F900206378002AF5
:104D900032DA062BD9F8002010D0082B25D0002BB2
:104DA000EAD101215370117096F8C310002918BF81
:104DB000022343F00103137002231AE063881A0AE6
:104DC000111F0129D8D9072AD6D8D9B2736A1C78FD
:104DD000002CD1D05D78954203D1814200F0498109
:104DE00001302344F3E71B7849E196F8BA30137099
:104DF0000123C8F800305CE0013B082BBCD801A2BD
:104E000052F823F0A54E0000794D0000BB4E000083
:104E1000794D0000294E0000794D0000794D0000C9
:104E2000794D0000354E0000A07809F04DFC0028B7
:104E3000A8D0A1E7658855B14FF0FF090020CA4608
:104E4000D6F8248098F800506DB9002894D0FFF768
:104E50008DFE638886F8BA30F369002B92D0032068
:104E6000654998478EE798F80130042B0DD0052B43
:104E70000ED0022B05D198F8059062884A4508BFEC
:104E8000012098F800309844DCE798F803A0F8E790
:104E900063884B45F5D1BAF1000FF2D14046FFF7D8
:104EA0009DFEEEE76388012B7FF466AF002086F855
:104EB000C3000C37BD46BDE8F08F6388012B7FF43B
:104EC0005BAF86F8C3305DE796F8BA30002B3FF44D
:104ED00053AF756AB4F804C02B4620791A78002ABB
:104EE0003FF44AAF5978022904D193F804E086458B
:104EF00000F2C8801344F1E710705070C8F8001039
:104F0000D7E70D44CCE00B287FF436AF00234FF0F9
:104F1000FF0A9946D046DFF8E4B006E06A78042A32
:104F200011D0052A24D02A7815442A78002AF5D1F0
:104F3000F26922B1494607207B6090477B68002BCD
:104F40007FF420AF18E795F802A0A18852468A4561
:104F500095F80380E7D160881FFA88F18045E2D197
:104F6000072A44D8A946324482F8BB100123DAE765
:104F7000A2885245D7D1A378434533D0A9780846B3
:104F8000796000F05FFA7968084609F0B1FC10F129
:104F9000780F796811D16B4688B06A467B60184BF0
:104FA0005846C2E90531032142F8101F4FF4C4519D
:104FB00011F0E0FF7B689D46D8E70028D6D06B460D
:104FC00088B06A467B600F4B5846C2E90531032121
:104FD00042F8101F4FF4C25111F0CCFF7B689D4680
:104FE0000023A0E72846FFF7F9FD03469BE7A94603
:104FF000F6E700BF0C360020C636002050C2010084
:1050000045D8010066D8010094F900206378002A91
:1050100019DA002B7FF4B0AE247963060AD020465B
:10502000FFF7ACFD00283FF4A7AE96F8BA30002B8E
:105030003FF4A2AED9F800502046294609F012FCF0
:1050400000206870B8E6012B08D0032B7FF494AEE3
:105050006388002B7FF490AE012103E06188002972
:105060007FF48AAEA088FFF721FE00287FF48AAE85
:1050700082E6022AC9F800307FF4B5AE5B88C8F832
:1050800000307FE694F900306078002BBFF63BAF2C
:10509000D9F8002000283FF42FAF0A287FF46CAE27
:1050A000297800293FF468AE6B78042B7FF429AF90
:1050B000AB789C457FF425AF072B8EBF00239B194F
:1050C00093F8BB3013700123D9E700BF054B064AA4
:1050D00058629A62054A0020DA62054A1A63054A54
:1050E0009A6170470C360020514D0000914A000033
:1050F000314B0000D14A0000094B10B593F8B8407D
:1051000054B900F06DF918B9BDE81040FFF752BD71
:10511000FFF7DCFF204610BD6FF07700FBE700BF14
:105120000C36002030B51F4B8BB005AA03F11005DB
:10513000144618685968083303C4AB422246F7D1B5
:105140001B7810222370002101A812F0C7FD122243
:105150000021154812F0C2FD102101A814F052FDE3
:1051600000281BDD0828B8BF08200021083801AB43
:105170000D4A184410F8013B0AAC04EB131414F860
:10518000144C03F00F0314700AAC234413F8143CBE
:1051900001310829537002F10202EBD102480BB031
:1051A00030BD00BF93D80100E45000202DE9F04F3E
:1051B00004468BB000AF00264FF0011BB2463546C7
:1051C000B046207838B97C4B02349C42F3D12C375E
:1051D000BD46BDE8F08F6378052B05D8DFE803F006
:1051E00097040397072CA04623781C44E9E7E3784B
:1051F000002BF9D1A378E3B10AF1010A5FFA8AFA28
:10520000F2E76A68944200F0CE8024359D42F8D3DC
:105210006D4688B06A46694BC2E90534032342F8FB
:10522000103F00234FF4C251654811F0CAFAAD4651
:1052300010E0644D644BE9E7002D66D1634B7B625F
:1052400002233B6200234FF482515D4807F12002A4
:1052500011F0B7FA4FF0FF30B9E7296AA07801EBF7
:10526000C2010B79984205D001322B7F9A42F4D3C8
:10527000574BE4E74FF00109E07894F805C000F0DF
:105280000300387520795FFA89F340EA0C207882B0
:1052900094F9020000282ADA4FF0010C09F11000FD
:1052A0000CFA00F010EA0B0F29D163F07F0038747C
:1052B00007F11000C7E90131FA6009F017FAD7E9E0
:1052C00002127B68D8B93A7C12F0800FA2700A7182
:1052D0004FF001021DBF1033DBB202FA03F302FAF2
:1052E00009F214BF4BEA030B4BEA020B7CE70120E7
:1052F00000FA09F010EA0B0F01D13B74D8E709F16D
:105300000109B9F1100FB7D1AEE70022ADE7032EC6
:105310002AD1FFF707FF8146A8B112F096FCF8608A
:1053200088B12C4812F091FCFA68824217D02A4BBF
:105330007B6202233B6200234FF48251204807F135
:10534000200211F03EFA6FF002012378091BE218E7
:1053500004EB5303D14212D50136F6B244E7494675
:10536000A01C12F0B0FCEEE7002EECD1B8F1000F5B
:105370000ED11A4B7B6202233B62434663E74FF038
:10538000000002F8010C13F8010902F8020DE1E730
:10539000A4EB080388F80230C3F3072388F803302E
:1053A00088F804A0D8E7AB68002B3FF425AF51463E
:1053B0002046984720E700BF8C0A00206AD90100E8
:1053C00048C201008C0A0020B00A0020A4D80100C5
:1053D000E5D8010093D8010002D901004DD90100A0
:1053E0007FB50A48FFF7E2FE70B1094B059302232F
:1053F0000493084800234FF4825104AA11F0E1F904
:10540000002007B05DF804FB0048FAE7FC09002023
:105410008AD9010048C20100094B00211A4610B583
:105420001C78844205D15C681CB1482000FB012037
:1054300010BD0131042903F14803F1D10020F7E741
:10544000D036002010B54FF02003EFF3118483F322
:105450001288BFF36F8FFFF7DFFF50B1436810333F
:1054600007D16FF08B0300F134014360034816F05D
:1054700058F884F31188BFF36F8F10BD582C0020AB
:105480000C4B70B51B6873B10B4A15680022AA4219
:1054900002DB6FF0010070BD1C4613F8106B8642F2
:1054A00004D00132F3E76FF00C00F4E700200C6049
:1054B000F1E700BFEC010020DCC4010070B588B04A
:1054C00005460C46C0B269461646FFF7D9FF0028CC
:1054D0001FDB009BEBB15A68216802929A68D8687A
:1054E000CDE9032600220195CDE9061205920EF0C2
:1054F00005FC0546009811F06EFD6DB1284608497F
:1055000001AA14F0F8FB079808B9059B236008B0BE
:1055100070BD6FF01500FAE76FF01200F7E700BFFB
:10552000D96F0100104B2DE9F0411C6805460E466D
:105530001746ACB14FF0FF324FF0FF330B480EF07F
:1055400049FF63683246D3F8088029463B46204627
:10555000C047044605480EF0B5FF2046BDE8F0817F
:105560006FF00104F9E700BFF83700209C07002026
:1055700000230360044B5A6812B9C3E90000704766
:1055800010605860704700BFF0370020014B186072
:10559000704700BFF8370020002330B585B00546BE
:1055A000CDE9023301904FF0FF334FF0FF320B484B
:1055B0000EF010FF0A4B1C6834B1636820461B686C
:1055C00001A998472468F7E7284600F0D3F8044675
:1055D00002480EF077FF204605B030BD9C07002042
:1055E000F03700201FB5CDE9010103924FF0FF33E2
:1055F0004FF0FF3209480EF0EDFE094B1C6834B144
:10560000636820461B6801A998472468F7E70348A8
:105610000EF058FF002004B010BD00BF9C07002012
:10562000F03700200022024BC3E90022704700BF80
:10563000F03700200022024BC3E90022FFF7F2BF3F
:10564000FC3700202DE9F34107460E4609B100233F
:105650000B6000251B4CDFF87080444510D31B4BBA
:105660001C685CB3384601AA54F8141C143C11F0B1
:10567000D8FC08B3CDB90EB1019B336025461BE0C1
:105680003846216801AA11F0CCFC60B125B90EB1F1
:10569000019B3360254606E000222968206811F04E
:1056A000C0FC0028F3D11434D7E700222968206811
:1056B00011F0B7FC0028DED16469D2E7284602B0B9
:1056C000BDE8F0817CC00100E0C00100FC37002093
:1056D0002DE9F04784B002AFD7F8289004460D4674
:1056E000164698467860B9F1000F19D0D9F8001025
:1056F00089B13A1D11F095FC68B9002007E0D9F88E
:10570000083032460093294643467868D047083728
:10571000BD46BDE8F087D9F804A0BAF1000FEED17C
:105720002046391DFFF78EFF0028E6D0D0F80890FC
:105730004346324629467868C8470028DDD06D4682
:10574000094B8AB002AAC2E90534022382F820304C
:10575000064BD06142F8103F00234FF40951044832
:1057600011F02FF8AD46C8E7C5D9010004000001CB
:1057700008C20100F8B506460025174C174FBC4279
:1057800008D3174B1C6824B3143CAEB9E368DBB9EB
:105790006469F8E71EB9E3684BB91434EFE70022F7
:1057A0003146206811F03DFC0028F4D1F5E7984718
:1057B000002D08BF0546F0E700223146206811F0B1
:1057C00030FC0028E2D1E3E79847002D08BF0546EA
:1057D000DEE72846F8BD00BF7CC00100E0C0010044
:1057E000FC37002010B5064C23783BB9FFF722FFA9
:1057F00000F064F808B90123237010BD0020FCE715
:10580000F65000202DE9F04780468946048FDFF8E6
:10581000A8A0013498B0A4B200F10806651EADB28C
:10582000B5F5004F45D04A23294605AA304611F068
:1058300053FA04F57F543F34A4B2074621460123AE
:1058400030460DF10B0211F047FA002F014603DC40
:10585000002803DC2C46E1E7002816DCB8F83830D5
:10586000AB4209D142466B1E22F8383F4FF400414B
:1058700002233046FEF79EFC2946304611F028FAF6
:105880002146304611F024FAE4E718AB1F44002308
:10589000524607F84C3C05A8CDF8009003AB0396A0
:1058A000ADF81040FFF714FF0028D3D018B0BDE8C2
:1058B000F0870020FAE700BF957001007FB5012551
:1058C000694628460195FFF7DBFD0446002836D1DE
:1058D000284602AA01A9FFF7F1FD10F1130F0446B3
:1058E0002DD038B10C3405D0404080F311884FF0F2
:1058F000040002DF0399B1F5803F23D2002318464C
:10590000009A9568084485429CB203D30133082B62
:10591000F8D11C460D4D53682846AB60D368EC8225
:10592000A982EB6311F04DFC044640B9084E2846AD
:105930006E60FFF71DFE28466E60FFF727FE2046CB
:1059400004B070BD6FF02004F9E700BF04380020F8
:10595000B00100202DE9F84305464FF02003EFF396
:10596000118683F31288BFF36F8F0E4B1C689CB1B6
:105970004FF00C090C4FDFF83480D4E90132002DD0
:1059800008BF13462BB198F8102009FB02F2B85C4F
:1059900098472468002CF0D186F31188BFF36F8FED
:1059A000BDE8F883443800204C380020A04E002089
:1059B0000123420900F01F0003FA00F0C043054B29
:1059C00003EB8203D3E8EF2F0240C3E8E12F002965
:1059D000F8D1704758380020012238B5174B1C7C8D
:1059E00004F01F039A40D043154B610903EB810378
:1059F000D3E8EF1F01EA0005C3E8EC5FBCF1000F3C
:105A0000F6D1114213D00F4B0F4D8BB10C236343D2
:105A1000EA185178E85C10F049FE0020FFF79AFF81
:105A20000C235C4300232A192B51C2E9013338BDF2
:105A300083F31188BFF36F8FEFE700BFA04E002004
:105A40005C380020AD6601004C3800202DE9F84399
:105A50002F4B07461C7C4FEA54184FEA88082D4B01
:105A60004344D3E8AF3F04F01F0943FA09F313F0AE
:105A7000010F294E0AD10146204600F063F828B1F3
:105A800007C80C2303FB046383E807000C2363436C
:105A9000F55CF2182DB92046FFF78AFF2846BDE8CD
:105AA000F8837B1C0FD04FF400450021D2F808C0CA
:105AB0001A480023ECFB0501194AFAF739FF0121C6
:105AC000381A15F0DBFE0EF093FF0120FFF742FFBE
:105AD000012303FA09F9134B9844D8E8EF3F43EA4E
